{
  "contractName": "ChainlinkProxyPriceProvider",
  "abi": [
    {
      "inputs": [
        {
          "internalType": "address[]",
          "name": "_assets",
          "type": "address[]"
        },
        {
          "internalType": "address[]",
          "name": "_sources",
          "type": "address[]"
        },
        {
          "internalType": "address",
          "name": "_fallbackOracle",
          "type": "address"
        }
      ],
      "payable": false,
      "stateMutability": "nonpayable",
      "type": "constructor"
    },
    {
      "anonymous": false,
      "inputs": [
        {
          "indexed": true,
          "internalType": "address",
          "name": "asset",
          "type": "address"
        },
        {
          "indexed": true,
          "internalType": "address",
          "name": "source",
          "type": "address"
        }
      ],
      "name": "AssetSourceUpdated",
      "type": "event"
    },
    {
      "anonymous": false,
      "inputs": [
        {
          "indexed": true,
          "internalType": "address",
          "name": "fallbackOracle",
          "type": "address"
        }
      ],
      "name": "FallbackOracleUpdated",
      "type": "event"
    },
    {
      "anonymous": false,
      "inputs": [
        {
          "indexed": true,
          "internalType": "address",
          "name": "previousOwner",
          "type": "address"
        },
        {
          "indexed": true,
          "internalType": "address",
          "name": "newOwner",
          "type": "address"
        }
      ],
      "name": "OwnershipTransferred",
      "type": "event"
    },
    {
      "constant": true,
      "inputs": [],
      "name": "isOwner",
      "outputs": [
        {
          "internalType": "bool",
          "name": "",
          "type": "bool"
        }
      ],
      "payable": false,
      "stateMutability": "view",
      "type": "function"
    },
    {
      "constant": true,
      "inputs": [],
      "name": "owner",
      "outputs": [
        {
          "internalType": "address",
          "name": "",
          "type": "address"
        }
      ],
      "payable": false,
      "stateMutability": "view",
      "type": "function"
    },
    {
      "constant": false,
      "inputs": [],
      "name": "renounceOwnership",
      "outputs": [],
      "payable": false,
      "stateMutability": "nonpayable",
      "type": "function"
    },
    {
      "constant": false,
      "inputs": [
        {
          "internalType": "address",
          "name": "newOwner",
          "type": "address"
        }
      ],
      "name": "transferOwnership",
      "outputs": [],
      "payable": false,
      "stateMutability": "nonpayable",
      "type": "function"
    },
    {
      "constant": false,
      "inputs": [
        {
          "internalType": "address[]",
          "name": "_assets",
          "type": "address[]"
        },
        {
          "internalType": "address[]",
          "name": "_sources",
          "type": "address[]"
        }
      ],
      "name": "setAssetSources",
      "outputs": [],
      "payable": false,
      "stateMutability": "nonpayable",
      "type": "function"
    },
    {
      "constant": false,
      "inputs": [
        {
          "internalType": "address",
          "name": "_fallbackOracle",
          "type": "address"
        }
      ],
      "name": "setFallbackOracle",
      "outputs": [],
      "payable": false,
      "stateMutability": "nonpayable",
      "type": "function"
    },
    {
      "constant": true,
      "inputs": [
        {
          "internalType": "address",
          "name": "_asset",
          "type": "address"
        }
      ],
      "name": "getAssetPrice",
      "outputs": [
        {
          "internalType": "uint256",
          "name": "",
          "type": "uint256"
        }
      ],
      "payable": false,
      "stateMutability": "view",
      "type": "function"
    },
    {
      "constant": true,
      "inputs": [
        {
          "internalType": "address[]",
          "name": "_assets",
          "type": "address[]"
        }
      ],
      "name": "getAssetsPrices",
      "outputs": [
        {
          "internalType": "uint256[]",
          "name": "",
          "type": "uint256[]"
        }
      ],
      "payable": false,
      "stateMutability": "view",
      "type": "function"
    },
    {
      "constant": true,
      "inputs": [
        {
          "internalType": "address",
          "name": "_asset",
          "type": "address"
        }
      ],
      "name": "getSourceOfAsset",
      "outputs": [
        {
          "internalType": "address",
          "name": "",
          "type": "address"
        }
      ],
      "payable": false,
      "stateMutability": "view",
      "type": "function"
    },
    {
      "constant": true,
      "inputs": [],
      "name": "getFallbackOracle",
      "outputs": [
        {
          "internalType": "address",
          "name": "",
          "type": "address"
        }
      ],
      "payable": false,
      "stateMutability": "view",
      "type": "function"
    }
  ],
  "bytecode": "0x60806040523480156200001157600080fd5b506040516200157838038062001578833981810160405260608110156200003757600080fd5b81019080805160405193929190846401000000008211156200005857600080fd5b838201915060208201858111156200006f57600080fd5b82518660208202830111640100000000821117156200008d57600080fd5b8083526020830192505050908051906020019060200280838360005b83811015620000c6578082015181840152602081019050620000a9565b5050505090500160405260200180516040519392919084640100000000821115620000f057600080fd5b838201915060208201858111156200010757600080fd5b82518660208202830111640100000000821117156200012557600080fd5b8083526020830192505050908051906020019060200280838360005b838110156200015e57808201518184015260208101905062000141565b505050509050016040526020018051906020019092919050505060006200018a6200025460201b60201c565b9050806000806101000a81548173ffffffffffffffffffffffffffffffffffffffff021916908373ffffffffffffffffffffffffffffffffffffffff1602179055508073ffffffffffffffffffffffffffffffffffffffff16600073ffffffffffffffffffffffffffffffffffffffff167f8be0079c531659141344cd1fd0a4f28419497f9722a3daafe3b4186f6b6457e060405160405180910390a35062000239816200025c60201b60201c565b6200024b8383620002e360201b60201c565b505050620004a6565b600033905090565b80600260006101000a81548173ffffffffffffffffffffffffffffffffffffffff021916908373ffffffffffffffffffffffffffffffffffffffff1602179055508073ffffffffffffffffffffffffffffffffffffffff167fce7a780d33665b1ea097af5f155e3821b809ecbaa839d3b33aa83ba28168cefb60405160405180910390a250565b80518251146200035b576040517f08c379a000000000000000000000000000000000000000000000000000000000815260040180806020018281038252601a8152602001807f494e434f4e53495354454e545f504152414d535f4c454e47544800000000000081525060200191505060405180910390fd5b60008090505b8251811015620004a1578181815181106200037857fe5b6020026020010151600160008584815181106200039157fe5b602002602001015173ffffffffffffffffffffffffffffffffffffffff1673ffffffffffffffffffffffffffffffffffffffff16815260200190815260200160002060006101000a81548173ffffffffffffffffffffffffffffffffffffffff021916908373ffffffffffffffffffffffffffffffffffffffff1602179055508181815181106200041e57fe5b602002602001015173ffffffffffffffffffffffffffffffffffffffff168382815181106200044957fe5b602002602001015173ffffffffffffffffffffffffffffffffffffffff167f22c5b7b2d8561d39f7f210b6b326a1aa69f15311163082308ac4877db6339dc160405160405180910390a3808060010191505062000361565b505050565b6110c280620004b66000396000f3fe608060405234801561001057600080fd5b506004361061009e5760003560e01c806392bf2be01161006657806392bf2be0146101a75780639d23d9f21461022b578063abfd5310146102f9578063b3596f07146103c7578063f2fde38b1461041f5761009e565b8063170aee73146100a35780636210308c146100e7578063715018a6146101315780638da5cb5b1461013b5780638f32d59b14610185575b600080fd5b6100e5600480360360208110156100b957600080fd5b81019080803573ffffffffffffffffffffffffffffffffffffffff169060200190929190505050610463565b005b6100ef6104e9565b604051808273ffffffffffffffffffffffffffffffffffffffff1673ffffffffffffffffffffffffffffffffffffffff16815260200191505060405180910390f35b610139610513565b005b61014361064c565b604051808273ffffffffffffffffffffffffffffffffffffffff1673ffffffffffffffffffffffffffffffffffffffff16815260200191505060405180910390f35b61018d610675565b604051808215151515815260200191505060405180910390f35b6101e9600480360360208110156101bd57600080fd5b81019080803573ffffffffffffffffffffffffffffffffffffffff1690602001909291905050506106d3565b604051808273ffffffffffffffffffffffffffffffffffffffff1673ffffffffffffffffffffffffffffffffffffffff16815260200191505060405180910390f35b6102a26004803603602081101561024157600080fd5b810190808035906020019064010000000081111561025e57600080fd5b82018360208201111561027057600080fd5b8035906020019184602083028401116401000000008311171561029257600080fd5b909192939192939050505061073c565b6040518080602001828103825283818151815260200191508051906020019060200280838360005b838110156102e55780820151818401526020810190506102ca565b505050509050019250505060405180910390f35b6103c56004803603604081101561030f57600080fd5b810190808035906020019064010000000081111561032c57600080fd5b82018360208201111561033e57600080fd5b8035906020019184602083028401116401000000008311171561036057600080fd5b90919293919293908035906020019064010000000081111561038157600080fd5b82018360208201111561039357600080fd5b803590602001918460208302840111640100000000831117156103b557600080fd5b90919293919293905050506107e6565b005b610409600480360360208110156103dd57600080fd5b81019080803573ffffffffffffffffffffffffffffffffffffffff1690602001909291905050506108f2565b6040518082815260200191505060405180910390f35b6104616004803603602081101561043557600080fd5b81019080803573ffffffffffffffffffffffffffffffffffffffff169060200190929190505050610c36565b005b61046b610675565b6104dd576040517f08c379a00000000000000000000000000000000000000000000000000000000081526004018080602001828103825260208152602001807f4f776e61626c653a2063616c6c6572206973206e6f7420746865206f776e657281525060200191505060405180910390fd5b6104e681610cbc565b50565b6000600260009054906101000a900473ffffffffffffffffffffffffffffffffffffffff16905090565b61051b610675565b61058d576040517f08c379a00000000000000000000000000000000000000000000000000000000081526004018080602001828103825260208152602001807f4f776e61626c653a2063616c6c6572206973206e6f7420746865206f776e657281525060200191505060405180910390fd5b600073ffffffffffffffffffffffffffffffffffffffff166000809054906101000a900473ffffffffffffffffffffffffffffffffffffffff1673ffffffffffffffffffffffffffffffffffffffff167f8be0079c531659141344cd1fd0a4f28419497f9722a3daafe3b4186f6b6457e060405160405180910390a360008060006101000a81548173ffffffffffffffffffffffffffffffffffffffff021916908373ffffffffffffffffffffffffffffffffffffffff160217905550565b60008060009054906101000a900473ffffffffffffffffffffffffffffffffffffffff16905090565b60008060009054906101000a900473ffffffffffffffffffffffffffffffffffffffff1673ffffffffffffffffffffffffffffffffffffffff166106b7610d43565b73ffffffffffffffffffffffffffffffffffffffff1614905090565b6000600160008373ffffffffffffffffffffffffffffffffffffffff1673ffffffffffffffffffffffffffffffffffffffff16815260200190815260200160002060009054906101000a900473ffffffffffffffffffffffffffffffffffffffff169050919050565b606080838390506040519080825280602002602001820160405280156107715781602001602082028038833980820191505090505b50905060008090505b848490508110156107db576107b685858381811061079457fe5b9050602002013573ffffffffffffffffffffffffffffffffffffffff166108f2565b8282815181106107c257fe5b602002602001018181525050808060010191505061077a565b508091505092915050565b6107ee610675565b610860576040517f08c379a00000000000000000000000000000000000000000000000000000000081526004018080602001828103825260208152602001807f4f776e61626c653a2063616c6c6572206973206e6f7420746865206f776e657281525060200191505060405180910390fd5b6108ec848480806020026020016040519081016040528093929190818152602001838360200280828437600081840152601f19601f82011690508083019250505050505050838380806020026020016040519081016040528093929190818152602001838360200280828437600081840152601f19601f82011690508083019250505050505050610d4b565b50505050565b600080600160008473ffffffffffffffffffffffffffffffffffffffff1673ffffffffffffffffffffffffffffffffffffffff16815260200190815260200160002060009054906101000a900473ffffffffffffffffffffffffffffffffffffffff16905061095f610f07565b73ffffffffffffffffffffffffffffffffffffffff168373ffffffffffffffffffffffffffffffffffffffff1614156109a357670de0b6b3a7640000915050610c31565b600073ffffffffffffffffffffffffffffffffffffffff168173ffffffffffffffffffffffffffffffffffffffff161415610aba57600260009054906101000a900473ffffffffffffffffffffffffffffffffffffffff1673ffffffffffffffffffffffffffffffffffffffff1663b3596f07846040518263ffffffff1660e01b8152600401808273ffffffffffffffffffffffffffffffffffffffff1673ffffffffffffffffffffffffffffffffffffffff16815260200191505060206040518083038186803b158015610a7757600080fd5b505afa158015610a8b573d6000803e3d6000fd5b505050506040513d6020811015610aa157600080fd5b8101908080519060200190929190505050915050610c31565b60008173ffffffffffffffffffffffffffffffffffffffff166350d25bcd6040518163ffffffff1660e01b815260040160206040518083038186803b158015610b0257600080fd5b505afa158015610b16573d6000803e3d6000fd5b505050506040513d6020811015610b2c57600080fd5b810190808051906020019092919050505090506000811315610b52578092505050610c31565b600260009054906101000a900473ffffffffffffffffffffffffffffffffffffffff1673ffffffffffffffffffffffffffffffffffffffff1663b3596f07856040518263ffffffff1660e01b8152600401808273ffffffffffffffffffffffffffffffffffffffff1673ffffffffffffffffffffffffffffffffffffffff16815260200191505060206040518083038186803b158015610bf157600080fd5b505afa158015610c05573d6000803e3d6000fd5b505050506040513d6020811015610c1b57600080fd5b8101908080519060200190929190505050925050505b919050565b610c3e610675565b610cb0576040517f08c379a00000000000000000000000000000000000000000000000000000000081526004018080602001828103825260208152602001807f4f776e61626c653a2063616c6c6572206973206e6f7420746865206f776e657281525060200191505060405180910390fd5b610cb981610f23565b50565b80600260006101000a81548173ffffffffffffffffffffffffffffffffffffffff021916908373ffffffffffffffffffffffffffffffffffffffff1602179055508073ffffffffffffffffffffffffffffffffffffffff167fce7a780d33665b1ea097af5f155e3821b809ecbaa839d3b33aa83ba28168cefb60405160405180910390a250565b600033905090565b8051825114610dc2576040517f08c379a000000000000000000000000000000000000000000000000000000000815260040180806020018281038252601a8152602001807f494e434f4e53495354454e545f504152414d535f4c454e47544800000000000081525060200191505060405180910390fd5b60008090505b8251811015610f0257818181518110610ddd57fe5b602002602001015160016000858481518110610df557fe5b602002602001015173ffffffffffffffffffffffffffffffffffffffff1673ffffffffffffffffffffffffffffffffffffffff16815260200190815260200160002060006101000a81548173ffffffffffffffffffffffffffffffffffffffff021916908373ffffffffffffffffffffffffffffffffffffffff160217905550818181518110610e8157fe5b602002602001015173ffffffffffffffffffffffffffffffffffffffff16838281518110610eab57fe5b602002602001015173ffffffffffffffffffffffffffffffffffffffff167f22c5b7b2d8561d39f7f210b6b326a1aa69f15311163082308ac4877db6339dc160405160405180910390a38080600101915050610dc8565b505050565b600073eeeeeeeeeeeeeeeeeeeeeeeeeeeeeeeeeeeeeeee905090565b600073ffffffffffffffffffffffffffffffffffffffff168173ffffffffffffffffffffffffffffffffffffffff161415610fa9576040517f08c379a00000000000000000000000000000000000000000000000000000000081526004018080602001828103825260268152602001806110686026913960400191505060405180910390fd5b8073ffffffffffffffffffffffffffffffffffffffff166000809054906101000a900473ffffffffffffffffffffffffffffffffffffffff1673ffffffffffffffffffffffffffffffffffffffff167f8be0079c531659141344cd1fd0a4f28419497f9722a3daafe3b4186f6b6457e060405160405180910390a3806000806101000a81548173ffffffffffffffffffffffffffffffffffffffff021916908373ffffffffffffffffffffffffffffffffffffffff1602179055505056fe4f776e61626c653a206e6577206f776e657220697320746865207a65726f2061646472657373a265627a7a72315820717f4590be75e04cbab36935491090d7e9e7cb13417275ab2353698633f7546664736f6c63430005100032",
  "source": "pragma solidity ^0.5.0;\n\nimport \"openzeppelin-solidity/contracts/ownership/Ownable.sol\";\n\nimport \"../interfaces/IPriceOracleGetter.sol\";\nimport \"../interfaces/IChainlinkAggregator.sol\";\nimport \"../libraries/EthAddressLib.sol\";\n\n/// @title ChainlinkProxyPriceProvider\n/// @author Aave\n/// @notice Proxy smart contract to get the price of an asset from a price source, with Chainlink Aggregator\n///         smart contracts as primary option\n/// - If the returned price by a Chainlink aggregator is <= 0, the call is forwarded to a fallbackOracle\n/// - Owned by the Aave governance system, allowed to add sources for assets, replace them\n///   and change the fallbackOracle\ncontract ChainlinkProxyPriceProvider is IPriceOracleGetter, Ownable {\n\n    event AssetSourceUpdated(address indexed asset, address indexed source);\n    event FallbackOracleUpdated(address indexed fallbackOracle);\n\n    mapping(address => IChainlinkAggregator) private assetsSources;\n    IPriceOracleGetter private fallbackOracle;\n\n    /// @notice Constructor\n    /// @param _assets The addresses of the assets\n    /// @param _sources The address of the source of each asset\n    /// @param _fallbackOracle The address of the fallback oracle to use if the data of an\n    ///        aggregator is not consistent\n    constructor(address[] memory _assets, address[] memory _sources, address _fallbackOracle) public {\n        internalSetFallbackOracle(_fallbackOracle);\n        internalSetAssetsSources(_assets, _sources);\n    }\n\n    /// @notice External function called by the Aave governance to set or replace sources of assets\n    /// @param _assets The addresses of the assets\n    /// @param _sources The address of the source of each asset\n    function setAssetSources(address[] calldata _assets, address[] calldata _sources) external onlyOwner {\n        internalSetAssetsSources(_assets, _sources);\n    }\n\n    /// @notice Sets the fallbackOracle\n    /// - Callable only by the Aave governance\n    /// @param _fallbackOracle The address of the fallbackOracle\n    function setFallbackOracle(address _fallbackOracle) external onlyOwner {\n        internalSetFallbackOracle(_fallbackOracle);\n    }\n\n    /// @notice Internal function to set the sources for each asset\n    /// @param _assets The addresses of the assets\n    /// @param _sources The address of the source of each asset\n    function internalSetAssetsSources(address[] memory _assets, address[] memory _sources) internal {\n        require(_assets.length == _sources.length, \"INCONSISTENT_PARAMS_LENGTH\");\n        for (uint256 i = 0; i < _assets.length; i++) {\n            assetsSources[_assets[i]] = IChainlinkAggregator(_sources[i]);\n            emit AssetSourceUpdated(_assets[i], _sources[i]);\n        }\n    }\n\n    /// @notice Internal function to set the fallbackOracle\n    /// @param _fallbackOracle The address of the fallbackOracle\n    function internalSetFallbackOracle(address _fallbackOracle) internal {\n        fallbackOracle = IPriceOracleGetter(_fallbackOracle);\n        emit FallbackOracleUpdated(_fallbackOracle);\n    }\n\n    /// @notice Gets an asset price by address\n    /// @param _asset The asset address\n    function getAssetPrice(address _asset) public view returns(uint256) {\n        IChainlinkAggregator source = assetsSources[_asset];\n        if (_asset == EthAddressLib.ethAddress()) {\n            return 1 ether;\n        } else {\n            // If there is no registered source for the asset, call the fallbackOracle\n            if (address(source) == address(0)) {\n                return IPriceOracleGetter(fallbackOracle).getAssetPrice(_asset);\n            } else {\n                int256 _price = IChainlinkAggregator(source).latestAnswer();\n                if (_price > 0) {\n                    return uint256(_price);\n                } else {\n                    return IPriceOracleGetter(fallbackOracle).getAssetPrice(_asset);\n                }\n            }\n        }\n    }\n\n    /// @notice Gets a list of prices from a list of assets addresses\n    /// @param _assets The list of assets addresses\n    function getAssetsPrices(address[] calldata _assets) external view returns(uint256[] memory) {\n        uint256[] memory prices = new uint256[](_assets.length);\n        for (uint256 i = 0; i < _assets.length; i++) {\n            prices[i] = getAssetPrice(_assets[i]);\n        }\n        return prices;\n    }\n\n    /// @notice Gets the address of the source for an asset address\n    /// @param _asset The address of the asset\n    /// @return address The address of the source\n    function getSourceOfAsset(address _asset) external view returns(address) {\n        return address(assetsSources[_asset]);\n    }\n\n    /// @notice Gets the address of the fallback oracle\n    /// @return address The addres of the fallback oracle\n    function getFallbackOracle() external view returns(address) {\n        return address(fallbackOracle);\n    }\n}",
  "sourcePath": "/home/justin/freelancing/aave-protocol/contracts/misc/ChainlinkProxyPriceProvider.sol",
  "compiler": {
    "name": "solc",
    "version": "0.5.16+commit.9c3226ce.Emscripten.clang"
  },
  "schemaVersion": "3.1.0",
  "updatedAt": "2020-07-28T08:53:26.985Z",
  "devdoc": {
    "author": "Aave",
    "methods": {
      "constructor": {
        "params": {
          "_assets": "The addresses of the assets",
          "_fallbackOracle": "The address of the fallback oracle to use if the data of an        aggregator is not consistent",
          "_sources": "The address of the source of each asset"
        }
      },
      "getAssetPrice(address)": {
        "params": {
          "_asset": "The asset address"
        }
      },
      "getAssetsPrices(address[])": {
        "params": {
          "_assets": "The list of assets addresses"
        }
      },
      "getFallbackOracle()": {
        "return": "address The addres of the fallback oracle"
      },
      "getSourceOfAsset(address)": {
        "params": {
          "_asset": "The address of the asset"
        },
        "return": "address The address of the source"
      },
      "isOwner()": {
        "details": "Returns true if the caller is the current owner."
      },
      "owner()": {
        "details": "Returns the address of the current owner."
      },
      "renounceOwnership()": {
        "details": "Leaves the contract without owner. It will not be possible to call `onlyOwner` functions anymore. Can only be called by the current owner.     * NOTE: Renouncing ownership will leave the contract without an owner, thereby removing any functionality that is only available to the owner."
      },
      "setAssetSources(address[],address[])": {
        "params": {
          "_assets": "The addresses of the assets",
          "_sources": "The address of the source of each asset"
        }
      },
      "setFallbackOracle(address)": {
        "params": {
          "_fallbackOracle": "The address of the fallbackOracle"
        }
      },
      "transferOwnership(address)": {
        "details": "Transfers ownership of the contract to a new account (`newOwner`). Can only be called by the current owner."
      }
    },
    "title": "ChainlinkProxyPriceProvider"
  },
  "userdoc": {
    "methods": {
      "constructor": "Constructor",
      "getAssetPrice(address)": {
        "notice": "Gets an asset price by address"
      },
      "getAssetsPrices(address[])": {
        "notice": "Gets a list of prices from a list of assets addresses"
      },
      "getFallbackOracle()": {
        "notice": "Gets the address of the fallback oracle"
      },
      "getSourceOfAsset(address)": {
        "notice": "Gets the address of the source for an asset address"
      },
      "setAssetSources(address[],address[])": {
        "notice": "External function called by the Aave governance to set or replace sources of assets"
      },
      "setFallbackOracle(address)": {
        "notice": "Sets the fallbackOracle - Callable only by the Aave governance"
      }
    },
    "notice": "Proxy smart contract to get the price of an asset from a price source, with Chainlink Aggregator         smart contracts as primary option - If the returned price by a Chainlink aggregator is <= 0, the call is forwarded to a fallbackOracle - Owned by the Aave governance system, allowed to add sources for assets, replace them   and change the fallbackOracle"
  }
}