{
  "contractName": "IERC20DetailedBytes",
  "abi": [
    {
      "constant": true,
      "inputs": [],
      "name": "decimals",
      "outputs": [
        {
          "internalType": "uint256",
          "name": "",
          "type": "uint256"
        }
      ],
      "payable": false,
      "stateMutability": "view",
      "type": "function"
    },
    {
      "constant": true,
      "inputs": [],
      "name": "name",
      "outputs": [
        {
          "internalType": "bytes32",
          "name": "",
          "type": "bytes32"
        }
      ],
      "payable": false,
      "stateMutability": "view",
      "type": "function"
    },
    {
      "constant": true,
      "inputs": [],
      "name": "symbol",
      "outputs": [
        {
          "internalType": "bytes32",
          "name": "",
          "type": "bytes32"
        }
      ],
      "payable": false,
      "stateMutability": "view",
      "type": "function"
    }
  ],
  "bytecode": "0x608060405234801561001057600080fd5b5060dc8061001f6000396000f3fe6080604052348015600f57600080fd5b5060043610603c5760003560e01c806306fdde03146041578063313ce56714605d57806395d89b41146079575b600080fd5b60476095565b6040518082815260200191505060405180910390f35b6063609b565b6040518082815260200191505060405180910390f35b607f60a1565b6040518082815260200191505060405180910390f35b60005481565b60025481565b6001548156fea265627a7a72315820e15bcd5133ab1c57c7989884e26c4fe608ca946b3ac2cb1dea3bb10f5704a5f864736f6c63430005100032",
  "source": "pragma solidity ^0.5.0;\n\ncontract IERC20DetailedBytes {\n    bytes32  public  name;\n    bytes32  public  symbol;\n    uint256  public  decimals;\n}\n",
  "sourcePath": "/home/justin/freelancing/aave-protocol/contracts/misc/IERC20DetailedBytes.sol",
  "compiler": {
    "name": "solc",
    "version": "0.5.16+commit.9c3226ce.Emscripten.clang"
  },
  "schemaVersion": "3.1.0",
  "updatedAt": "2020-07-28T08:53:26.987Z",
  "devdoc": {
    "methods": {}
  },
  "userdoc": {
    "methods": {}
  }
}