{
  "contractName": "LendingPool",
  "abi": [
    {
      "anonymous": false,
      "inputs": [
        {
          "indexed": true,
          "internalType": "address",
          "name": "_reserve",
          "type": "address"
        },
        {
          "indexed": true,
          "internalType": "address",
          "name": "_user",
          "type": "address"
        },
        {
          "indexed": false,
          "internalType": "uint256",
          "name": "_amount",
          "type": "uint256"
        },
        {
          "indexed": false,
          "internalType": "uint256",
          "name": "_borrowRateMode",
          "type": "uint256"
        },
        {
          "indexed": false,
          "internalType": "uint256",
          "name": "_borrowRate",
          "type": "uint256"
        },
        {
          "indexed": false,
          "internalType": "uint256",
          "name": "_originationFee",
          "type": "uint256"
        },
        {
          "indexed": false,
          "internalType": "uint256",
          "name": "_borrowBalanceIncrease",
          "type": "uint256"
        },
        {
          "indexed": true,
          "internalType": "uint16",
          "name": "_referral",
          "type": "uint16"
        },
        {
          "indexed": false,
          "internalType": "uint256",
          "name": "_timestamp",
          "type": "uint256"
        }
      ],
      "name": "Borrow",
      "type": "event"
    },
    {
      "anonymous": false,
      "inputs": [
        {
          "indexed": true,
          "internalType": "address",
          "name": "_reserve",
          "type": "address"
        },
        {
          "indexed": true,
          "internalType": "address",
          "name": "_user",
          "type": "address"
        },
        {
          "indexed": false,
          "internalType": "uint256",
          "name": "_amount",
          "type": "uint256"
        },
        {
          "indexed": true,
          "internalType": "uint16",
          "name": "_referral",
          "type": "uint16"
        },
        {
          "indexed": false,
          "internalType": "uint256",
          "name": "_timestamp",
          "type": "uint256"
        }
      ],
      "name": "Deposit",
      "type": "event"
    },
    {
      "anonymous": false,
      "inputs": [
        {
          "indexed": true,
          "internalType": "address",
          "name": "_target",
          "type": "address"
        },
        {
          "indexed": true,
          "internalType": "address",
          "name": "_reserve",
          "type": "address"
        },
        {
          "indexed": false,
          "internalType": "uint256",
          "name": "_amount",
          "type": "uint256"
        },
        {
          "indexed": false,
          "internalType": "uint256",
          "name": "_totalFee",
          "type": "uint256"
        },
        {
          "indexed": false,
          "internalType": "uint256",
          "name": "_protocolFee",
          "type": "uint256"
        },
        {
          "indexed": false,
          "internalType": "uint256",
          "name": "_timestamp",
          "type": "uint256"
        }
      ],
      "name": "FlashLoan",
      "type": "event"
    },
    {
      "anonymous": false,
      "inputs": [
        {
          "indexed": true,
          "internalType": "address",
          "name": "_collateral",
          "type": "address"
        },
        {
          "indexed": true,
          "internalType": "address",
          "name": "_reserve",
          "type": "address"
        },
        {
          "indexed": true,
          "internalType": "address",
          "name": "_user",
          "type": "address"
        },
        {
          "indexed": false,
          "internalType": "uint256",
          "name": "_purchaseAmount",
          "type": "uint256"
        },
        {
          "indexed": false,
          "internalType": "uint256",
          "name": "_liquidatedCollateralAmount",
          "type": "uint256"
        },
        {
          "indexed": false,
          "internalType": "uint256",
          "name": "_accruedBorrowInterest",
          "type": "uint256"
        },
        {
          "indexed": false,
          "internalType": "address",
          "name": "_liquidator",
          "type": "address"
        },
        {
          "indexed": false,
          "internalType": "bool",
          "name": "_receiveAToken",
          "type": "bool"
        },
        {
          "indexed": false,
          "internalType": "uint256",
          "name": "_timestamp",
          "type": "uint256"
        }
      ],
      "name": "LiquidationCall",
      "type": "event"
    },
    {
      "anonymous": false,
      "inputs": [
        {
          "indexed": true,
          "internalType": "address",
          "name": "_collateral",
          "type": "address"
        },
        {
          "indexed": true,
          "internalType": "address",
          "name": "_reserve",
          "type": "address"
        },
        {
          "indexed": true,
          "internalType": "address",
          "name": "_user",
          "type": "address"
        },
        {
          "indexed": false,
          "internalType": "uint256",
          "name": "_feeLiquidated",
          "type": "uint256"
        },
        {
          "indexed": false,
          "internalType": "uint256",
          "name": "_liquidatedCollateralForFee",
          "type": "uint256"
        },
        {
          "indexed": false,
          "internalType": "uint256",
          "name": "_timestamp",
          "type": "uint256"
        }
      ],
      "name": "OriginationFeeLiquidated",
      "type": "event"
    },
    {
      "anonymous": false,
      "inputs": [
        {
          "indexed": true,
          "internalType": "address",
          "name": "_reserve",
          "type": "address"
        },
        {
          "indexed": true,
          "internalType": "address",
          "name": "_user",
          "type": "address"
        },
        {
          "indexed": false,
          "internalType": "uint256",
          "name": "_newStableRate",
          "type": "uint256"
        },
        {
          "indexed": false,
          "internalType": "uint256",
          "name": "_borrowBalanceIncrease",
          "type": "uint256"
        },
        {
          "indexed": false,
          "internalType": "uint256",
          "name": "_timestamp",
          "type": "uint256"
        }
      ],
      "name": "RebalanceStableBorrowRate",
      "type": "event"
    },
    {
      "anonymous": false,
      "inputs": [
        {
          "indexed": true,
          "internalType": "address",
          "name": "_reserve",
          "type": "address"
        },
        {
          "indexed": true,
          "internalType": "address",
          "name": "_user",
          "type": "address"
        },
        {
          "indexed": false,
          "internalType": "uint256",
          "name": "_amount",
          "type": "uint256"
        },
        {
          "indexed": false,
          "internalType": "uint256",
          "name": "_timestamp",
          "type": "uint256"
        }
      ],
      "name": "RedeemUnderlying",
      "type": "event"
    },
    {
      "anonymous": false,
      "inputs": [
        {
          "indexed": true,
          "internalType": "address",
          "name": "_reserve",
          "type": "address"
        },
        {
          "indexed": true,
          "internalType": "address",
          "name": "_user",
          "type": "address"
        },
        {
          "indexed": true,
          "internalType": "address",
          "name": "_repayer",
          "type": "address"
        },
        {
          "indexed": false,
          "internalType": "uint256",
          "name": "_amountMinusFees",
          "type": "uint256"
        },
        {
          "indexed": false,
          "internalType": "uint256",
          "name": "_fees",
          "type": "uint256"
        },
        {
          "indexed": false,
          "internalType": "uint256",
          "name": "_borrowBalanceIncrease",
          "type": "uint256"
        },
        {
          "indexed": false,
          "internalType": "uint256",
          "name": "_timestamp",
          "type": "uint256"
        }
      ],
      "name": "Repay",
      "type": "event"
    },
    {
      "anonymous": false,
      "inputs": [
        {
          "indexed": true,
          "internalType": "address",
          "name": "_reserve",
          "type": "address"
        },
        {
          "indexed": true,
          "internalType": "address",
          "name": "_user",
          "type": "address"
        }
      ],
      "name": "ReserveUsedAsCollateralDisabled",
      "type": "event"
    },
    {
      "anonymous": false,
      "inputs": [
        {
          "indexed": true,
          "internalType": "address",
          "name": "_reserve",
          "type": "address"
        },
        {
          "indexed": true,
          "internalType": "address",
          "name": "_user",
          "type": "address"
        }
      ],
      "name": "ReserveUsedAsCollateralEnabled",
      "type": "event"
    },
    {
      "anonymous": false,
      "inputs": [
        {
          "indexed": true,
          "internalType": "address",
          "name": "_reserve",
          "type": "address"
        },
        {
          "indexed": true,
          "internalType": "address",
          "name": "_user",
          "type": "address"
        },
        {
          "indexed": false,
          "internalType": "uint256",
          "name": "_newRateMode",
          "type": "uint256"
        },
        {
          "indexed": false,
          "internalType": "uint256",
          "name": "_newRate",
          "type": "uint256"
        },
        {
          "indexed": false,
          "internalType": "uint256",
          "name": "_borrowBalanceIncrease",
          "type": "uint256"
        },
        {
          "indexed": false,
          "internalType": "uint256",
          "name": "_timestamp",
          "type": "uint256"
        }
      ],
      "name": "Swap",
      "type": "event"
    },
    {
      "constant": true,
      "inputs": [],
      "name": "LENDINGPOOL_REVISION",
      "outputs": [
        {
          "internalType": "uint256",
          "name": "",
          "type": "uint256"
        }
      ],
      "payable": false,
      "stateMutability": "view",
      "type": "function"
    },
    {
      "constant": true,
      "inputs": [],
      "name": "UINT_MAX_VALUE",
      "outputs": [
        {
          "internalType": "uint256",
          "name": "",
          "type": "uint256"
        }
      ],
      "payable": false,
      "stateMutability": "view",
      "type": "function"
    },
    {
      "constant": true,
      "inputs": [],
      "name": "addressesProvider",
      "outputs": [
        {
          "internalType": "contract LendingPoolAddressesProvider",
          "name": "",
          "type": "address"
        }
      ],
      "payable": false,
      "stateMutability": "view",
      "type": "function"
    },
    {
      "constant": true,
      "inputs": [],
      "name": "core",
      "outputs": [
        {
          "internalType": "contract LendingPoolCore",
          "name": "",
          "type": "address"
        }
      ],
      "payable": false,
      "stateMutability": "view",
      "type": "function"
    },
    {
      "constant": true,
      "inputs": [],
      "name": "dataProvider",
      "outputs": [
        {
          "internalType": "contract LendingPoolDataProvider",
          "name": "",
          "type": "address"
        }
      ],
      "payable": false,
      "stateMutability": "view",
      "type": "function"
    },
    {
      "constant": true,
      "inputs": [],
      "name": "parametersProvider",
      "outputs": [
        {
          "internalType": "contract LendingPoolParametersProvider",
          "name": "",
          "type": "address"
        }
      ],
      "payable": false,
      "stateMutability": "view",
      "type": "function"
    },
    {
      "constant": false,
      "inputs": [
        {
          "internalType": "contract LendingPoolAddressesProvider",
          "name": "_addressesProvider",
          "type": "address"
        }
      ],
      "name": "initialize",
      "outputs": [],
      "payable": false,
      "stateMutability": "nonpayable",
      "type": "function"
    },
    {
      "constant": false,
      "inputs": [
        {
          "internalType": "address",
          "name": "_reserve",
          "type": "address"
        },
        {
          "internalType": "uint256",
          "name": "_amount",
          "type": "uint256"
        },
        {
          "internalType": "uint16",
          "name": "_referralCode",
          "type": "uint16"
        }
      ],
      "name": "deposit",
      "outputs": [],
      "payable": true,
      "stateMutability": "payable",
      "type": "function"
    },
    {
      "constant": false,
      "inputs": [
        {
          "internalType": "address",
          "name": "_reserve",
          "type": "address"
        },
        {
          "internalType": "address payable",
          "name": "_user",
          "type": "address"
        },
        {
          "internalType": "uint256",
          "name": "_amount",
          "type": "uint256"
        },
        {
          "internalType": "uint256",
          "name": "_aTokenBalanceAfterRedeem",
          "type": "uint256"
        }
      ],
      "name": "redeemUnderlying",
      "outputs": [],
      "payable": false,
      "stateMutability": "nonpayable",
      "type": "function"
    },
    {
      "constant": false,
      "inputs": [
        {
          "internalType": "address",
          "name": "_reserve",
          "type": "address"
        },
        {
          "internalType": "uint256",
          "name": "_amount",
          "type": "uint256"
        },
        {
          "internalType": "uint256",
          "name": "_interestRateMode",
          "type": "uint256"
        },
        {
          "internalType": "uint16",
          "name": "_referralCode",
          "type": "uint16"
        }
      ],
      "name": "borrow",
      "outputs": [],
      "payable": false,
      "stateMutability": "nonpayable",
      "type": "function"
    },
    {
      "constant": false,
      "inputs": [
        {
          "internalType": "address",
          "name": "_reserve",
          "type": "address"
        },
        {
          "internalType": "uint256",
          "name": "_amount",
          "type": "uint256"
        },
        {
          "internalType": "address payable",
          "name": "_onBehalfOf",
          "type": "address"
        }
      ],
      "name": "repay",
      "outputs": [],
      "payable": true,
      "stateMutability": "payable",
      "type": "function"
    },
    {
      "constant": false,
      "inputs": [
        {
          "internalType": "address",
          "name": "_reserve",
          "type": "address"
        }
      ],
      "name": "swapBorrowRateMode",
      "outputs": [],
      "payable": false,
      "stateMutability": "nonpayable",
      "type": "function"
    },
    {
      "constant": false,
      "inputs": [
        {
          "internalType": "address",
          "name": "_reserve",
          "type": "address"
        },
        {
          "internalType": "address",
          "name": "_user",
          "type": "address"
        }
      ],
      "name": "rebalanceStableBorrowRate",
      "outputs": [],
      "payable": false,
      "stateMutability": "nonpayable",
      "type": "function"
    },
    {
      "constant": false,
      "inputs": [
        {
          "internalType": "address",
          "name": "_reserve",
          "type": "address"
        },
        {
          "internalType": "bool",
          "name": "_useAsCollateral",
          "type": "bool"
        }
      ],
      "name": "setUserUseReserveAsCollateral",
      "outputs": [],
      "payable": false,
      "stateMutability": "nonpayable",
      "type": "function"
    },
    {
      "constant": false,
      "inputs": [
        {
          "internalType": "address",
          "name": "_collateral",
          "type": "address"
        },
        {
          "internalType": "address",
          "name": "_reserve",
          "type": "address"
        },
        {
          "internalType": "address",
          "name": "_user",
          "type": "address"
        },
        {
          "internalType": "uint256",
          "name": "_purchaseAmount",
          "type": "uint256"
        },
        {
          "internalType": "bool",
          "name": "_receiveAToken",
          "type": "bool"
        }
      ],
      "name": "liquidationCall",
      "outputs": [],
      "payable": true,
      "stateMutability": "payable",
      "type": "function"
    },
    {
      "constant": false,
      "inputs": [
        {
          "internalType": "address",
          "name": "_receiver",
          "type": "address"
        },
        {
          "internalType": "address",
          "name": "_reserve",
          "type": "address"
        },
        {
          "internalType": "uint256",
          "name": "_amount",
          "type": "uint256"
        },
        {
          "internalType": "bytes",
          "name": "_params",
          "type": "bytes"
        }
      ],
      "name": "flashLoan",
      "outputs": [],
      "payable": false,
      "stateMutability": "nonpayable",
      "type": "function"
    },
    {
      "constant": true,
      "inputs": [
        {
          "internalType": "address",
          "name": "_reserve",
          "type": "address"
        }
      ],
      "name": "getReserveConfigurationData",
      "outputs": [
        {
          "internalType": "uint256",
          "name": "ltv",
          "type": "uint256"
        },
        {
          "internalType": "uint256",
          "name": "liquidationThreshold",
          "type": "uint256"
        },
        {
          "internalType": "uint256",
          "name": "liquidationBonus",
          "type": "uint256"
        },
        {
          "internalType": "address",
          "name": "interestRateStrategyAddress",
          "type": "address"
        },
        {
          "internalType": "bool",
          "name": "usageAsCollateralEnabled",
          "type": "bool"
        },
        {
          "internalType": "bool",
          "name": "borrowingEnabled",
          "type": "bool"
        },
        {
          "internalType": "bool",
          "name": "stableBorrowRateEnabled",
          "type": "bool"
        },
        {
          "internalType": "bool",
          "name": "isActive",
          "type": "bool"
        }
      ],
      "payable": false,
      "stateMutability": "view",
      "type": "function"
    },
    {
      "constant": true,
      "inputs": [
        {
          "internalType": "address",
          "name": "_reserve",
          "type": "address"
        }
      ],
      "name": "getReserveData",
      "outputs": [
        {
          "internalType": "uint256",
          "name": "totalLiquidity",
          "type": "uint256"
        },
        {
          "internalType": "uint256",
          "name": "availableLiquidity",
          "type": "uint256"
        },
        {
          "internalType": "uint256",
          "name": "totalBorrowsStable",
          "type": "uint256"
        },
        {
          "internalType": "uint256",
          "name": "totalBorrowsVariable",
          "type": "uint256"
        },
        {
          "internalType": "uint256",
          "name": "liquidityRate",
          "type": "uint256"
        },
        {
          "internalType": "uint256",
          "name": "variableBorrowRate",
          "type": "uint256"
        },
        {
          "internalType": "uint256",
          "name": "stableBorrowRate",
          "type": "uint256"
        },
        {
          "internalType": "uint256",
          "name": "averageStableBorrowRate",
          "type": "uint256"
        },
        {
          "internalType": "uint256",
          "name": "utilizationRate",
          "type": "uint256"
        },
        {
          "internalType": "uint256",
          "name": "liquidityIndex",
          "type": "uint256"
        },
        {
          "internalType": "uint256",
          "name": "variableBorrowIndex",
          "type": "uint256"
        },
        {
          "internalType": "address",
          "name": "aTokenAddress",
          "type": "address"
        },
        {
          "internalType": "uint40",
          "name": "lastUpdateTimestamp",
          "type": "uint40"
        }
      ],
      "payable": false,
      "stateMutability": "view",
      "type": "function"
    },
    {
      "constant": true,
      "inputs": [
        {
          "internalType": "address",
          "name": "_user",
          "type": "address"
        }
      ],
      "name": "getUserAccountData",
      "outputs": [
        {
          "internalType": "uint256",
          "name": "totalLiquidityETH",
          "type": "uint256"
        },
        {
          "internalType": "uint256",
          "name": "totalCollateralETH",
          "type": "uint256"
        },
        {
          "internalType": "uint256",
          "name": "totalBorrowsETH",
          "type": "uint256"
        },
        {
          "internalType": "uint256",
          "name": "totalFeesETH",
          "type": "uint256"
        },
        {
          "internalType": "uint256",
          "name": "availableBorrowsETH",
          "type": "uint256"
        },
        {
          "internalType": "uint256",
          "name": "currentLiquidationThreshold",
          "type": "uint256"
        },
        {
          "internalType": "uint256",
          "name": "ltv",
          "type": "uint256"
        },
        {
          "internalType": "uint256",
          "name": "healthFactor",
          "type": "uint256"
        }
      ],
      "payable": false,
      "stateMutability": "view",
      "type": "function"
    },
    {
      "constant": true,
      "inputs": [
        {
          "internalType": "address",
          "name": "_reserve",
          "type": "address"
        },
        {
          "internalType": "address",
          "name": "_user",
          "type": "address"
        }
      ],
      "name": "getUserReserveData",
      "outputs": [
        {
          "internalType": "uint256",
          "name": "currentATokenBalance",
          "type": "uint256"
        },
        {
          "internalType": "uint256",
          "name": "currentBorrowBalance",
          "type": "uint256"
        },
        {
          "internalType": "uint256",
          "name": "principalBorrowBalance",
          "type": "uint256"
        },
        {
          "internalType": "uint256",
          "name": "borrowRateMode",
          "type": "uint256"
        },
        {
          "internalType": "uint256",
          "name": "borrowRate",
          "type": "uint256"
        },
        {
          "internalType": "uint256",
          "name": "liquidityRate",
          "type": "uint256"
        },
        {
          "internalType": "uint256",
          "name": "originationFee",
          "type": "uint256"
        },
        {
          "internalType": "uint256",
          "name": "variableBorrowIndex",
          "type": "uint256"
        },
        {
          "internalType": "uint256",
          "name": "lastUpdateTimestamp",
          "type": "uint256"
        },
        {
          "internalType": "bool",
          "name": "usageAsCollateralEnabled",
          "type": "bool"
        }
      ],
      "payable": false,
      "stateMutability": "view",
      "type": "function"
    },
    {
      "constant": true,
      "inputs": [],
      "name": "getReserves",
      "outputs": [
        {
          "internalType": "address[]",
          "name": "",
          "type": "address[]"
        }
      ],
      "payable": false,
      "stateMutability": "view",
      "type": "function"
    }
  ],
  "bytecode": "0x6080604052600060015560016000806101000a81548160ff021916908315150217905550617154806100326000396000f3fe6080604052600436106101295760003560e01c80638afaff02116100ab578063c72c4d101161006f578063c72c4d1014610934578063c858f5f91461098b578063cd112382146109fe578063d0fc81d214610a6f578063d2d0e06614610a9a578063f2f4eb2614610af657610129565b80638afaff02146107465780639895e3d814610771578063b334ed86146107f6578063bf92857c1461084d578063c4d66de8146108e357610129565b806348ca1300116100f257806348ca1300146104c157806358707e06146105125780635a3b74b9146105695780635ceae9c4146105c65780635cffe9de1461063457610129565b8062a718a91461012e5780630902f1ac146101c857806328dd2d011461023457806335ea6a75146102fc5780633e150141146103ef575b600080fd5b6101c6600480360360a081101561014457600080fd5b81019080803573ffffffffffffffffffffffffffffffffffffffff169060200190929190803573ffffffffffffffffffffffffffffffffffffffff169060200190929190803573ffffffffffffffffffffffffffffffffffffffff16906020019092919080359060200190929190803515159060200190929190505050610b4d565b005b3480156101d457600080fd5b506101dd611149565b6040518080602001828103825283818151815260200191508051906020019060200280838360005b83811015610220578082015181840152602081019050610205565b505050509050019250505060405180910390f35b34801561024057600080fd5b506102a36004803603604081101561025757600080fd5b81019080803573ffffffffffffffffffffffffffffffffffffffff169060200190929190803573ffffffffffffffffffffffffffffffffffffffff16906020019092919050505061128d565b604051808b81526020018a8152602001898152602001888152602001878152602001868152602001858152602001848152602001838152602001821515151581526020019a505050505050505050505060405180910390f35b34801561030857600080fd5b5061034b6004803603602081101561031f57600080fd5b81019080803573ffffffffffffffffffffffffffffffffffffffff169060200190929190505050611429565b604051808e81526020018d81526020018c81526020018b81526020018a81526020018981526020018881526020018781526020018681526020018581526020018481526020018373ffffffffffffffffffffffffffffffffffffffff1673ffffffffffffffffffffffffffffffffffffffff1681526020018264ffffffffff1664ffffffffff1681526020019d505050505050505050505050505060405180910390f35b3480156103fb57600080fd5b5061043e6004803603602081101561041257600080fd5b81019080803573ffffffffffffffffffffffffffffffffffffffff1690602001909291905050506115bc565b604051808981526020018881526020018781526020018673ffffffffffffffffffffffffffffffffffffffff1673ffffffffffffffffffffffffffffffffffffffff168152602001851515151581526020018415151515815260200183151515158152602001821515151581526020019850505050505050505060405180910390f35b3480156104cd57600080fd5b50610510600480360360208110156104e457600080fd5b81019080803573ffffffffffffffffffffffffffffffffffffffff169060200190929190505050611705565b005b34801561051e57600080fd5b50610527611dd1565b604051808273ffffffffffffffffffffffffffffffffffffffff1673ffffffffffffffffffffffffffffffffffffffff16815260200191505060405180910390f35b34801561057557600080fd5b506105c46004803603604081101561058c57600080fd5b81019080803573ffffffffffffffffffffffffffffffffffffffff169060200190929190803515159060200190929190505050611df7565b005b610632600480360360608110156105dc57600080fd5b81019080803573ffffffffffffffffffffffffffffffffffffffff16906020019092919080359060200190929190803573ffffffffffffffffffffffffffffffffffffffff169060200190929190505050612355565b005b34801561064057600080fd5b506107446004803603608081101561065757600080fd5b81019080803573ffffffffffffffffffffffffffffffffffffffff169060200190929190803573ffffffffffffffffffffffffffffffffffffffff16906020019092919080359060200190929190803590602001906401000000008111156106be57600080fd5b8201836020820111156106d057600080fd5b803590602001918460018302840111640100000000831117156106f257600080fd5b91908080601f016020809104026020016040519081016040528093929190818152602001838380828437600081840152601f19601f820116905080830192505050505050509192919290505050613156565b005b34801561075257600080fd5b5061075b613a83565b6040518082815260200191505060405180910390f35b34801561077d57600080fd5b506107f46004803603608081101561079457600080fd5b81019080803573ffffffffffffffffffffffffffffffffffffffff169060200190929190803573ffffffffffffffffffffffffffffffffffffffff1690602001909291908035906020019092919080359060200190929190505050613a88565b005b34801561080257600080fd5b5061080b614056565b604051808273ffffffffffffffffffffffffffffffffffffffff1673ffffffffffffffffffffffffffffffffffffffff16815260200191505060405180910390f35b34801561085957600080fd5b5061089c6004803603602081101561087057600080fd5b81019080803573ffffffffffffffffffffffffffffffffffffffff16906020019092919050505061407c565b604051808981526020018881526020018781526020018681526020018581526020018481526020018381526020018281526020019850505050505050505060405180910390f35b3480156108ef57600080fd5b506109326004803603602081101561090657600080fd5b81019080803573ffffffffffffffffffffffffffffffffffffffff1690602001909291905050506141c5565b005b34801561094057600080fd5b50610949614683565b604051808273ffffffffffffffffffffffffffffffffffffffff1673ffffffffffffffffffffffffffffffffffffffff16815260200191505060405180910390f35b34801561099757600080fd5b506109fc600480360360808110156109ae57600080fd5b81019080803573ffffffffffffffffffffffffffffffffffffffff1690602001909291908035906020019092919080359060200190929190803561ffff1690602001909291905050506146a9565b005b348015610a0a57600080fd5b50610a6d60048036036040811015610a2157600080fd5b81019080803573ffffffffffffffffffffffffffffffffffffffff169060200190929190803573ffffffffffffffffffffffffffffffffffffffff16906020019092919050505061555b565b005b348015610a7b57600080fd5b50610a84615ebe565b6040518082815260200191505060405180910390f35b610af460048036036060811015610ab057600080fd5b81019080803573ffffffffffffffffffffffffffffffffffffffff16906020019092919080359060200190929190803561ffff169060200190929190505050615ee2565b005b348015610b0257600080fd5b50610b0b616463565b604051808273ffffffffffffffffffffffffffffffffffffffff1673ffffffffffffffffffffffffffffffffffffffff16815260200191505060405180910390f35b6000809054906101000a900460ff16610bce576040517f08c379a000000000000000000000000000000000000000000000000000000000815260040180806020018281038252601f8152602001807f5265656e7472616e637947756172643a207265656e7472616e742063616c6c0081525060200191505060405180910390fd5b60008060006101000a81548160ff02191690831515021790555083610bf281616489565b85610bfc81616489565b6000603560009054906101000a900473ffffffffffffffffffffffffffffffffffffffff1673ffffffffffffffffffffffffffffffffffffffff16635834eb9a6040518163ffffffff1660e01b815260040160206040518083038186803b158015610c6657600080fd5b505afa158015610c7a573d6000803e3d6000fd5b505050506040513d6020811015610c9057600080fd5b81019080805190602001909291905050509050600060608273ffffffffffffffffffffffffffffffffffffffff168a8a8a8a8a604051602401808673ffffffffffffffffffffffffffffffffffffffff1673ffffffffffffffffffffffffffffffffffffffff1681526020018573ffffffffffffffffffffffffffffffffffffffff1673ffffffffffffffffffffffffffffffffffffffff1681526020018473ffffffffffffffffffffffffffffffffffffffff1673ffffffffffffffffffffffffffffffffffffffff16815260200183815260200182151515158152602001955050505050506040516020818303038152906040527ea718a9000000000000000000000000000000000000000000000000000000007bffffffffffffffffffffffffffffffffffffffffffffffffffffffff19166020820180517bffffffffffffffffffffffffffffffffffffffffffffffffffffffff83818316178352505050506040518082805190602001908083835b60208310610e265780518252602082019150602081019050602083039250610e03565b6001836020036101000a038019825116818451168082178552505050505050905001915050600060405180830381855af49150503d8060008114610e86576040519150601f19603f3d011682016040523d82523d6000602084013e610e8b565b606091505b509150915081610f03576040517f08c379a00000000000000000000000000000000000000000000000000000000081526004018080602001828103825260178152602001807f4c69717569646174696f6e2063616c6c206661696c656400000000000000000081525060200191505060405180910390fd5b60006060828060200190516040811015610f1c57600080fd5b810190808051906020019092919080516040519392919084640100000000821115610f4657600080fd5b83820191506020820185811115610f5c57600080fd5b8251866001820283011164010000000082111715610f7957600080fd5b8083526020830192505050908051906020019080838360005b83811015610fad578082015181840152602081019050610f92565b50505050905090810190601f168015610fda5780820380516001836020036101000a031916815260200191505b506040525050509150915060008214611121578060405160200180807f4c69717569646174696f6e206661696c65643a2000000000000000000000000081525060140182805190602001908083835b6020831061104c5780518252602082019150602081019050602083039250611029565b6001836020036101000a0380198251168184511680821785525050505050509050019150506040516020818303038152906040526040517f08c379a00000000000000000000000000000000000000000000000000000000081526004018080602001828103825283818151815260200191508051906020019080838360005b838110156110e65780820151818401526020810190506110cb565b50505050905090810190601f1680156111135780820380516001836020036101000a031916815260200191505b509250505060405180910390fd5b5050505050505060016000806101000a81548160ff0219169083151502179055505050505050565b6060603660009054906101000a900473ffffffffffffffffffffffffffffffffffffffff1673ffffffffffffffffffffffffffffffffffffffff16630902f1ac6040518163ffffffff1660e01b815260040160006040518083038186803b1580156111b357600080fd5b505afa1580156111c7573d6000803e3d6000fd5b505050506040513d6000823e3d601f19601f8201168201806040525060208110156111f157600080fd5b810190808051604051939291908464010000000082111561121157600080fd5b8382019150602082018581111561122757600080fd5b825186602082028301116401000000008211171561124457600080fd5b8083526020830192505050908051906020019060200280838360005b8381101561127b578082015181840152602081019050611260565b50505050905001604052505050905090565b600080600080600080600080600080603760009054906101000a900473ffffffffffffffffffffffffffffffffffffffff1673ffffffffffffffffffffffffffffffffffffffff166328dd2d018d8d6040518363ffffffff1660e01b8152600401808373ffffffffffffffffffffffffffffffffffffffff1673ffffffffffffffffffffffffffffffffffffffff1681526020018273ffffffffffffffffffffffffffffffffffffffff1673ffffffffffffffffffffffffffffffffffffffff168152602001925050506101406040518083038186803b15801561137057600080fd5b505afa158015611384573d6000803e3d6000fd5b505050506040513d61014081101561139b57600080fd5b810190808051906020019092919080519060200190929190805190602001909291908051906020019092919080519060200190929190805190602001909291908051906020019092919080519060200190929190805190602001909291908051906020019092919050505099509950995099509950995099509950995099509295989b9194979a5092959850565b6000806000806000806000806000806000806000603760009054906101000a900473ffffffffffffffffffffffffffffffffffffffff1673ffffffffffffffffffffffffffffffffffffffff166335ea6a758f6040518263ffffffff1660e01b8152600401808273ffffffffffffffffffffffffffffffffffffffff1673ffffffffffffffffffffffffffffffffffffffff1681526020019150506101a06040518083038186803b1580156114dd57600080fd5b505afa1580156114f1573d6000803e3d6000fd5b505050506040513d6101a081101561150857600080fd5b81019080805190602001909291908051906020019092919080519060200190929190805190602001909291908051906020019092919080519060200190929190805190602001909291908051906020019092919080519060200190929190805190602001909291908051906020019092919080519060200190929190805190602001909291905050509c509c509c509c509c509c509c509c509c509c509c509c509c5091939597999b9d90929496989a9c50565b600080600080600080600080603760009054906101000a900473ffffffffffffffffffffffffffffffffffffffff1673ffffffffffffffffffffffffffffffffffffffff16633e1501418a6040518263ffffffff1660e01b8152600401808273ffffffffffffffffffffffffffffffffffffffff1673ffffffffffffffffffffffffffffffffffffffff1681526020019150506101006040518083038186803b15801561166857600080fd5b505afa15801561167c573d6000803e3d6000fd5b505050506040513d61010081101561169357600080fd5b81019080805190602001909291908051906020019092919080519060200190929190805190602001909291908051906020019092919080519060200190929190805190602001909291908051906020019092919050505097509750975097509750975097509750919395975091939597565b6000809054906101000a900460ff16611786576040517f08c379a000000000000000000000000000000000000000000000000000000000815260040180806020018281038252601f8152602001807f5265656e7472616e637947756172643a207265656e7472616e742063616c6c0081525060200191505060405180910390fd5b60008060006101000a81548160ff021916908315150217905550806117aa81616489565b816117b4816165bb565b6000806000603660009054906101000a900473ffffffffffffffffffffffffffffffffffffffff1673ffffffffffffffffffffffffffffffffffffffff16639fb8afcd87336040518363ffffffff1660e01b8152600401808373ffffffffffffffffffffffffffffffffffffffff1673ffffffffffffffffffffffffffffffffffffffff1681526020018273ffffffffffffffffffffffffffffffffffffffff1673ffffffffffffffffffffffffffffffffffffffff1681526020019250505060606040518083038186803b15801561188c57600080fd5b505afa1580156118a0573d6000803e3d6000fd5b505050506040513d60608110156118b657600080fd5b810190808051906020019092919080519060200190929190805190602001909291905050509250925092506000821161193a576040517f08c379a0000000000000000000000000000000000000000000000000000000008152600401808060200182810382526037815260200180616e536037913960400191505060405180910390fd5b6000603660009054906101000a900473ffffffffffffffffffffffffffffffffffffffff1673ffffffffffffffffffffffffffffffffffffffff16631ca19f1988336040518363ffffffff1660e01b8152600401808373ffffffffffffffffffffffffffffffffffffffff1673ffffffffffffffffffffffffffffffffffffffff1681526020018273ffffffffffffffffffffffffffffffffffffffff1673ffffffffffffffffffffffffffffffffffffffff1681526020019250505060206040518083038186803b158015611a0f57600080fd5b505afa158015611a23573d6000803e3d6000fd5b505050506040513d6020811015611a3957600080fd5b81019080805190602001909291905050509050600280811115611a5857fe5b816002811115611a6457fe5b1415611bd657603660009054906101000a900473ffffffffffffffffffffffffffffffffffffffff1673ffffffffffffffffffffffffffffffffffffffff1663e2174d868833866040518463ffffffff1660e01b8152600401808473ffffffffffffffffffffffffffffffffffffffff1673ffffffffffffffffffffffffffffffffffffffff1681526020018373ffffffffffffffffffffffffffffffffffffffff1673ffffffffffffffffffffffffffffffffffffffff168152602001828152602001935050505060206040518083038186803b158015611b4557600080fd5b505afa158015611b59573d6000803e3d6000fd5b505050506040513d6020811015611b6f57600080fd5b8101908080519060200190929190505050611bd5576040517f08c379a00000000000000000000000000000000000000000000000000000000081526004018080602001828103825260308152602001806170886030913960400191505060405180910390fd5b5b600080603660009054906101000a900473ffffffffffffffffffffffffffffffffffffffff1673ffffffffffffffffffffffffffffffffffffffff1663f61483118a33898989896040518763ffffffff1660e01b8152600401808773ffffffffffffffffffffffffffffffffffffffff1673ffffffffffffffffffffffffffffffffffffffff1681526020018673ffffffffffffffffffffffffffffffffffffffff1673ffffffffffffffffffffffffffffffffffffffff168152602001858152602001848152602001838152602001826002811115611cb257fe5b60ff16815260200196505050505050506040805180830381600087803b158015611cdb57600080fd5b505af1158015611cef573d6000803e3d6000fd5b505050506040513d6040811015611d0557600080fd5b810190808051906020019092919080519060200190929190505050915091503373ffffffffffffffffffffffffffffffffffffffff168973ffffffffffffffffffffffffffffffffffffffff167fb3e2773606abfd36b5bd91394b3a54d1398336c65005baf7bf7a05efeffaf75b846002811115611d7f57fe5b8488426040518085815260200184815260200183815260200182815260200194505050505060405180910390a3505050505050505060016000806101000a81548160ff02191690831515021790555050565b603860009054906101000a900473ffffffffffffffffffffffffffffffffffffffff1681565b6000809054906101000a900460ff16611e78576040517f08c379a000000000000000000000000000000000000000000000000000000000815260040180806020018281038252601f8152602001807f5265656e7472616e637947756172643a207265656e7472616e742063616c6c0081525060200191505060405180910390fd5b60008060006101000a81548160ff02191690831515021790555081611e9c81616489565b82611ea6816165bb565b6000603660009054906101000a900473ffffffffffffffffffffffffffffffffffffffff1673ffffffffffffffffffffffffffffffffffffffff166318a4dbca86336040518363ffffffff1660e01b8152600401808373ffffffffffffffffffffffffffffffffffffffff1673ffffffffffffffffffffffffffffffffffffffff1681526020018273ffffffffffffffffffffffffffffffffffffffff1673ffffffffffffffffffffffffffffffffffffffff1681526020019250505060206040518083038186803b158015611f7b57600080fd5b505afa158015611f8f573d6000803e3d6000fd5b505050506040513d6020811015611fa557600080fd5b8101908080519060200190929190505050905060008111612011576040517f08c379a000000000000000000000000000000000000000000000000000000000815260040180806020018281038252602a815260200180616ff9602a913960400191505060405180910390fd5b603760009054906101000a900473ffffffffffffffffffffffffffffffffffffffff1673ffffffffffffffffffffffffffffffffffffffff166376e9d6158633846040518463ffffffff1660e01b8152600401808473ffffffffffffffffffffffffffffffffffffffff1673ffffffffffffffffffffffffffffffffffffffff1681526020018373ffffffffffffffffffffffffffffffffffffffff1673ffffffffffffffffffffffffffffffffffffffff168152602001828152602001935050505060206040518083038186803b1580156120ec57600080fd5b505afa158015612100573d6000803e3d6000fd5b505050506040513d602081101561211657600080fd5b810190808051906020019092919050505061217c576040517f08c379a0000000000000000000000000000000000000000000000000000000008152600401808060200182810382526030815260200180616cf06030913960400191505060405180910390fd5b603660009054906101000a900473ffffffffffffffffffffffffffffffffffffffff1673ffffffffffffffffffffffffffffffffffffffff1663fa51854c8633876040518463ffffffff1660e01b8152600401808473ffffffffffffffffffffffffffffffffffffffff1673ffffffffffffffffffffffffffffffffffffffff1681526020018373ffffffffffffffffffffffffffffffffffffffff1673ffffffffffffffffffffffffffffffffffffffff168152602001821515151581526020019350505050600060405180830381600087803b15801561225d57600080fd5b505af1158015612271573d6000803e3d6000fd5b5050505083156122d9573373ffffffffffffffffffffffffffffffffffffffff168573ffffffffffffffffffffffffffffffffffffffff167e058a56ea94653cdf4f152d227ace22d4c00ad99e2a43f58cb7d9e3feb295f260405160405180910390a3612334565b3373ffffffffffffffffffffffffffffffffffffffff168573ffffffffffffffffffffffffffffffffffffffff167f44c58d81365b66dd4b1a7f36c25aa97b8c71c361ee4937adc1a00000227db5dd60405160405180910390a35b50505060016000806101000a81548160ff0219169083151502179055505050565b6000809054906101000a900460ff166123d6576040517f08c379a000000000000000000000000000000000000000000000000000000000815260040180806020018281038252601f8152602001807f5265656e7472616e637947756172643a207265656e7472616e742063616c6c0081525060200191505060405180910390fd5b60008060006101000a81548160ff021916908315150217905550826123fa81616489565b82612404816166ee565b61240c616b3c565b603660009054906101000a900473ffffffffffffffffffffffffffffffffffffffff1673ffffffffffffffffffffffffffffffffffffffff16639fb8afcd87866040518363ffffffff1660e01b8152600401808373ffffffffffffffffffffffffffffffffffffffff1673ffffffffffffffffffffffffffffffffffffffff1681526020018273ffffffffffffffffffffffffffffffffffffffff1673ffffffffffffffffffffffffffffffffffffffff1681526020019250505060606040518083038186803b1580156124df57600080fd5b505afa1580156124f3573d6000803e3d6000fd5b505050506040513d606081101561250957600080fd5b81019080805190602001909291908051906020019092919080519060200190929190505050836000018460200185604001838152508381525083815250505050603660009054906101000a900473ffffffffffffffffffffffffffffffffffffffff1673ffffffffffffffffffffffffffffffffffffffff1663feab31ac87866040518363ffffffff1660e01b8152600401808373ffffffffffffffffffffffffffffffffffffffff1673ffffffffffffffffffffffffffffffffffffffff1681526020018273ffffffffffffffffffffffffffffffffffffffff1673ffffffffffffffffffffffffffffffffffffffff1681526020019250505060206040518083038186803b15801561261c57600080fd5b505afa158015612630573d6000803e3d6000fd5b505050506040513d602081101561264657600080fd5b81019080805190602001909291905050508160e00181815250508573ffffffffffffffffffffffffffffffffffffffff1661267f616767565b73ffffffffffffffffffffffffffffffffffffffff16148160600190151590811515815250506000816020015111612702576040517f08c379a000000000000000000000000000000000000000000000000000000000815260040180806020018281038252602981526020018061705f6029913960400191505060405180910390fd5b7fffffffffffffffffffffffffffffffffffffffffffffffffffffffffffffffff8514158061275c57508373ffffffffffffffffffffffffffffffffffffffff163373ffffffffffffffffffffffffffffffffffffffff16145b6127b1576040517f08c379a00000000000000000000000000000000000000000000000000000000081526004018080602001828103825260448152602001806170b86044913960600191505060405180910390fd5b6127cc8160e00151826020015161678390919063ffffffff16565b8160800181815250507fffffffffffffffffffffffffffffffffffffffffffffffffffffffffffffffff85141580156128085750806080015185105b1561281857848160800181815250505b8060600151158061282d575080608001513410155b612882576040517f08c379a0000000000000000000000000000000000000000000000000000000008152600401808060200182810382526028815260200180616da96028913960400191505060405180910390fd5b8060e00151816080015111612c3457603660009054906101000a900473ffffffffffffffffffffffffffffffffffffffff1673ffffffffffffffffffffffffffffffffffffffff1663da12d96f878660008560800151866040015160006040518763ffffffff1660e01b8152600401808773ffffffffffffffffffffffffffffffffffffffff1673ffffffffffffffffffffffffffffffffffffffff1681526020018673ffffffffffffffffffffffffffffffffffffffff1673ffffffffffffffffffffffffffffffffffffffff168152602001858152602001848152602001838152602001821515151581526020019650505050505050600060405180830381600087803b15801561299457600080fd5b505af11580156129a8573d6000803e3d6000fd5b50505050603660009054906101000a900473ffffffffffffffffffffffffffffffffffffffff1673ffffffffffffffffffffffffffffffffffffffff1663c7d1423782606001516129fa576000612a00565b82608001515b88878560800151603560009054906101000a900473ffffffffffffffffffffffffffffffffffffffff1673ffffffffffffffffffffffffffffffffffffffff1663ee8912966040518163ffffffff1660e01b815260040160206040518083038186803b158015612a6f57600080fd5b505afa158015612a83573d6000803e3d6000fd5b505050506040513d6020811015612a9957600080fd5b81019080805190602001909291905050506040518663ffffffff1660e01b8152600401808573ffffffffffffffffffffffffffffffffffffffff1673ffffffffffffffffffffffffffffffffffffffff1681526020018473ffffffffffffffffffffffffffffffffffffffff1673ffffffffffffffffffffffffffffffffffffffff1681526020018381526020018273ffffffffffffffffffffffffffffffffffffffff1673ffffffffffffffffffffffffffffffffffffffff1681526020019450505050506000604051808303818588803b158015612b7857600080fd5b505af1158015612b8c573d6000803e3d6000fd5b50505050503373ffffffffffffffffffffffffffffffffffffffff168473ffffffffffffffffffffffffffffffffffffffff168773ffffffffffffffffffffffffffffffffffffffff167fb718f0b14f03d8c3adf35b15e3da52421b042ac879e5a689011a8b1e0036773d600085608001518660400151426040518085815260200184815260200183815260200182815260200194505050505060405180910390a450613135565b612c4f8160e00151826080015161680b90919063ffffffff16565b8160a0018181525050603660009054906101000a900473ffffffffffffffffffffffffffffffffffffffff1673ffffffffffffffffffffffffffffffffffffffff1663da12d96f87868460a001518560e0015186604001518760a001518860200151146040518763ffffffff1660e01b8152600401808773ffffffffffffffffffffffffffffffffffffffff1673ffffffffffffffffffffffffffffffffffffffff1681526020018673ffffffffffffffffffffffffffffffffffffffff1673ffffffffffffffffffffffffffffffffffffffff168152602001858152602001848152602001838152602001821515151581526020019650505050505050600060405180830381600087803b158015612d6757600080fd5b505af1158015612d7b573d6000803e3d6000fd5b5050505060008160e001511115612f7257603660009054906101000a900473ffffffffffffffffffffffffffffffffffffffff1673ffffffffffffffffffffffffffffffffffffffff1663c7d142378260600151612dda576000612de0565b8260e001515b88878560e00151603560009054906101000a900473ffffffffffffffffffffffffffffffffffffffff1673ffffffffffffffffffffffffffffffffffffffff1663ee8912966040518163ffffffff1660e01b815260040160206040518083038186803b158015612e4f57600080fd5b505afa158015612e63573d6000803e3d6000fd5b505050506040513d6020811015612e7957600080fd5b81019080805190602001909291905050506040518663ffffffff1660e01b8152600401808573ffffffffffffffffffffffffffffffffffffffff1673ffffffffffffffffffffffffffffffffffffffff1681526020018473ffffffffffffffffffffffffffffffffffffffff1673ffffffffffffffffffffffffffffffffffffffff1681526020018381526020018273ffffffffffffffffffffffffffffffffffffffff1673ffffffffffffffffffffffffffffffffffffffff1681526020019450505050506000604051808303818588803b158015612f5857600080fd5b505af1158015612f6c573d6000803e3d6000fd5b50505050505b603660009054906101000a900473ffffffffffffffffffffffffffffffffffffffff1673ffffffffffffffffffffffffffffffffffffffff166328fcf4d38260600151612fc0576000612fd8565b612fd78360e001513461680b90919063ffffffff16565b5b88338560a001516040518563ffffffff1660e01b8152600401808473ffffffffffffffffffffffffffffffffffffffff1673ffffffffffffffffffffffffffffffffffffffff1681526020018373ffffffffffffffffffffffffffffffffffffffff1673ffffffffffffffffffffffffffffffffffffffff16815260200182815260200193505050506000604051808303818588803b15801561307a57600080fd5b505af115801561308e573d6000803e3d6000fd5b50505050503373ffffffffffffffffffffffffffffffffffffffff168473ffffffffffffffffffffffffffffffffffffffff168773ffffffffffffffffffffffffffffffffffffffff167fb718f0b14f03d8c3adf35b15e3da52421b042ac879e5a689011a8b1e0036773d8460a001518560e001518660400151426040518085815260200184815260200183815260200182815260200194505050505060405180910390a4505b505060016000806101000a81548160ff021916908315150217905550505050565b6000809054906101000a900460ff166131d7576040517f08c379a000000000000000000000000000000000000000000000000000000000815260040180806020018281038252601f8152602001807f5265656e7472616e637947756172643a207265656e7472616e742063616c6c0081525060200191505060405180910390fd5b60008060006101000a81548160ff021916908315150217905550826131fb81616489565b82613205816166ee565b600061320f616767565b73ffffffffffffffffffffffffffffffffffffffff168673ffffffffffffffffffffffffffffffffffffffff1614613320578573ffffffffffffffffffffffffffffffffffffffff166370a08231603660009054906101000a900473ffffffffffffffffffffffffffffffffffffffff166040518263ffffffff1660e01b8152600401808273ffffffffffffffffffffffffffffffffffffffff1673ffffffffffffffffffffffffffffffffffffffff16815260200191505060206040518083038186803b1580156132e057600080fd5b505afa1580156132f4573d6000803e3d6000fd5b505050506040513d602081101561330a57600080fd5b810190808051906020019092919050505061335b565b603660009054906101000a900473ffffffffffffffffffffffffffffffffffffffff1673ffffffffffffffffffffffffffffffffffffffff16315b9050848110156133b6576040517f08c379a0000000000000000000000000000000000000000000000000000000008152600401808060200182810382526031815260200180616c4d6031913960400191505060405180910390fd5b600080603860009054906101000a900473ffffffffffffffffffffffffffffffffffffffff1673ffffffffffffffffffffffffffffffffffffffff1663586feb406040518163ffffffff1660e01b8152600401604080518083038186803b15801561342057600080fd5b505afa158015613434573d6000803e3d6000fd5b505050506040513d604081101561344a57600080fd5b810190808051906020019092919080519060200190929190505050915091506000613492612710613484858b61685590919063ffffffff16565b6168db90919063ffffffff16565b905060006134bd6127106134af858561685590919063ffffffff16565b6168db90919063ffffffff16565b90506000821180156134cf5750600081115b613524576040517f08c379a0000000000000000000000000000000000000000000000000000000008152600401808060200182810382526032815260200180616f606032913960400191505060405180910390fd5b60008b905060008c9050603660009054906101000a900473ffffffffffffffffffffffffffffffffffffffff1673ffffffffffffffffffffffffffffffffffffffff1663fa93b2a58d838e6040518463ffffffff1660e01b8152600401808473ffffffffffffffffffffffffffffffffffffffff1673ffffffffffffffffffffffffffffffffffffffff1681526020018373ffffffffffffffffffffffffffffffffffffffff1673ffffffffffffffffffffffffffffffffffffffff1681526020018281526020019350505050600060405180830381600087803b15801561360b57600080fd5b505af115801561361f573d6000803e3d6000fd5b505050508173ffffffffffffffffffffffffffffffffffffffff1663ee8725588d8d878e6040518563ffffffff1660e01b8152600401808573ffffffffffffffffffffffffffffffffffffffff1673ffffffffffffffffffffffffffffffffffffffff16815260200184815260200183815260200180602001828103825283818151815260200191508051906020019080838360005b838110156136d05780820151818401526020810190506136b5565b50505050905090810190601f1680156136fd5780820380516001836020036101000a031916815260200191505b5095505050505050600060405180830381600087803b15801561371f57600080fd5b505af1158015613733573d6000803e3d6000fd5b505050506000613741616767565b73ffffffffffffffffffffffffffffffffffffffff168d73ffffffffffffffffffffffffffffffffffffffff1614613852578c73ffffffffffffffffffffffffffffffffffffffff166370a08231603660009054906101000a900473ffffffffffffffffffffffffffffffffffffffff166040518263ffffffff1660e01b8152600401808273ffffffffffffffffffffffffffffffffffffffff1673ffffffffffffffffffffffffffffffffffffffff16815260200191505060206040518083038186803b15801561381257600080fd5b505afa158015613826573d6000803e3d6000fd5b505050506040513d602081101561383c57600080fd5b810190808051906020019092919050505061388d565b603660009054906101000a900473ffffffffffffffffffffffffffffffffffffffff1673ffffffffffffffffffffffffffffffffffffffff16315b90506138a2858961678390919063ffffffff16565b81146138f9576040517f08c379a0000000000000000000000000000000000000000000000000000000008152600401808060200182810382526032815260200180616e216032913960400191505060405180910390fd5b603660009054906101000a900473ffffffffffffffffffffffffffffffffffffffff1673ffffffffffffffffffffffffffffffffffffffff166309ac29538e8a61394c888a61680b90919063ffffffff16565b886040518563ffffffff1660e01b8152600401808573ffffffffffffffffffffffffffffffffffffffff1673ffffffffffffffffffffffffffffffffffffffff168152602001848152602001838152602001828152602001945050505050600060405180830381600087803b1580156139c457600080fd5b505af11580156139d8573d6000803e3d6000fd5b505050508c73ffffffffffffffffffffffffffffffffffffffff168e73ffffffffffffffffffffffffffffffffffffffff167f5b8f46461c1dd69fb968f1a003acee221ea3e19540e350233b612ddb43433b558e8888426040518085815260200184815260200183815260200182815260200194505050505060405180910390a35050505050505050505060016000806101000a81548160ff02191690831515021790555050505050565b600281565b6000809054906101000a900460ff16613b09576040517f08c379a000000000000000000000000000000000000000000000000000000000815260040180806020018281038252601f8152602001807f5265656e7472616e637947756172643a207265656e7472616e742063616c6c0081525060200191505060405180910390fd5b60008060006101000a81548160ff02191690831515021790555083603660009054906101000a900473ffffffffffffffffffffffffffffffffffffffff1673ffffffffffffffffffffffffffffffffffffffff166334b3beee826040518263ffffffff1660e01b8152600401808273ffffffffffffffffffffffffffffffffffffffff1673ffffffffffffffffffffffffffffffffffffffff16815260200191505060206040518083038186803b158015613bc357600080fd5b505afa158015613bd7573d6000803e3d6000fd5b505050506040513d6020811015613bed57600080fd5b810190808051906020019092919050505073ffffffffffffffffffffffffffffffffffffffff163373ffffffffffffffffffffffffffffffffffffffff1614613c81576040517f08c379a000000000000000000000000000000000000000000000000000000000815260040180806020018281038252604b815260200180616ebe604b913960600191505060405180910390fd5b84613c8b81616489565b83613c95816166ee565b6000603660009054906101000a900473ffffffffffffffffffffffffffffffffffffffff1673ffffffffffffffffffffffffffffffffffffffff1663e2403019896040518263ffffffff1660e01b8152600401808273ffffffffffffffffffffffffffffffffffffffff1673ffffffffffffffffffffffffffffffffffffffff16815260200191505060206040518083038186803b158015613d3657600080fd5b505afa158015613d4a573d6000803e3d6000fd5b505050506040513d6020811015613d6057600080fd5b8101908080519060200190929190505050905085811015613dcc576040517f08c379a0000000000000000000000000000000000000000000000000000000008152600401808060200182810382526031815260200180616d446031913960400191505060405180910390fd5b603660009054906101000a900473ffffffffffffffffffffffffffffffffffffffff1673ffffffffffffffffffffffffffffffffffffffff1663afcdbea389898960008a146040518563ffffffff1660e01b8152600401808573ffffffffffffffffffffffffffffffffffffffff1673ffffffffffffffffffffffffffffffffffffffff1681526020018473ffffffffffffffffffffffffffffffffffffffff1673ffffffffffffffffffffffffffffffffffffffff16815260200183815260200182151515158152602001945050505050600060405180830381600087803b158015613eb857600080fd5b505af1158015613ecc573d6000803e3d6000fd5b50505050603660009054906101000a900473ffffffffffffffffffffffffffffffffffffffff1673ffffffffffffffffffffffffffffffffffffffff1663fa93b2a58989896040518463ffffffff1660e01b8152600401808473ffffffffffffffffffffffffffffffffffffffff1673ffffffffffffffffffffffffffffffffffffffff1681526020018373ffffffffffffffffffffffffffffffffffffffff1673ffffffffffffffffffffffffffffffffffffffff1681526020018281526020019350505050600060405180830381600087803b158015613fad57600080fd5b505af1158015613fc1573d6000803e3d6000fd5b505050508673ffffffffffffffffffffffffffffffffffffffff168873ffffffffffffffffffffffffffffffffffffffff167f9c4ed599cd8555b9c1e8cd7643240d7d71eb76b792948c49fcb4d411f7b6b3c68842604051808381526020018281526020019250505060405180910390a35050505060016000806101000a81548160ff02191690831515021790555050505050565b603760009054906101000a900473ffffffffffffffffffffffffffffffffffffffff1681565b600080600080600080600080603760009054906101000a900473ffffffffffffffffffffffffffffffffffffffff1673ffffffffffffffffffffffffffffffffffffffff1663bf92857c8a6040518263ffffffff1660e01b8152600401808273ffffffffffffffffffffffffffffffffffffffff1673ffffffffffffffffffffffffffffffffffffffff1681526020019150506101006040518083038186803b15801561412857600080fd5b505afa15801561413c573d6000803e3d6000fd5b505050506040513d61010081101561415357600080fd5b81019080805190602001909291908051906020019092919080519060200190929190805190602001909291908051906020019092919080519060200190929190805190602001909291908051906020019092919050505097509750975097509750975097509750919395975091939597565b60006141cf616925565b9050600260009054906101000a900460ff16806141f057506141ef61692e565b5b806141fc575060015481115b614251576040517f08c379a000000000000000000000000000000000000000000000000000000000815260040180806020018281038252602e815260200180616f92602e913960400191505060405180910390fd5b6000600260009054906101000a900460ff16159050801561428f576001600260006101000a81548160ff021916908315150217905550816001819055505b82603560006101000a81548173ffffffffffffffffffffffffffffffffffffffff021916908373ffffffffffffffffffffffffffffffffffffffff160217905550603560009054906101000a900473ffffffffffffffffffffffffffffffffffffffff1673ffffffffffffffffffffffffffffffffffffffff1663ed6ff7606040518163ffffffff1660e01b815260040160206040518083038186803b15801561433857600080fd5b505afa15801561434c573d6000803e3d6000fd5b505050506040513d602081101561436257600080fd5b8101908080519060200190929190505050603660006101000a81548173ffffffffffffffffffffffffffffffffffffffff021916908373ffffffffffffffffffffffffffffffffffffffff160217905550603560009054906101000a900473ffffffffffffffffffffffffffffffffffffffff1673ffffffffffffffffffffffffffffffffffffffff16632f58b80d6040518163ffffffff1660e01b815260040160206040518083038186803b15801561441b57600080fd5b505afa15801561442f573d6000803e3d6000fd5b505050506040513d602081101561444557600080fd5b8101908080519060200190929190505050603760006101000a81548173ffffffffffffffffffffffffffffffffffffffff021916908373ffffffffffffffffffffffffffffffffffffffff160217905550603560009054906101000a900473ffffffffffffffffffffffffffffffffffffffff1673ffffffffffffffffffffffffffffffffffffffff166304061d8e6040518163ffffffff1660e01b815260040160206040518083038186803b1580156144fe57600080fd5b505afa158015614512573d6000803e3d6000fd5b505050506040513d602081101561452857600080fd5b8101908080519060200190929190505050603860006101000a81548173ffffffffffffffffffffffffffffffffffffffff021916908373ffffffffffffffffffffffffffffffffffffffff160217905550603560009054906101000a900473ffffffffffffffffffffffffffffffffffffffff1673ffffffffffffffffffffffffffffffffffffffff1663fbeefc3c6040518163ffffffff1660e01b815260040160206040518083038186803b1580156145e157600080fd5b505afa1580156145f5573d6000803e3d6000fd5b505050506040513d602081101561460b57600080fd5b8101908080519060200190929190505050603960006101000a81548173ffffffffffffffffffffffffffffffffffffffff021916908373ffffffffffffffffffffffffffffffffffffffff160217905550801561467e576000600260006101000a81548160ff0219169083151502179055505b505050565b603560009054906101000a900473ffffffffffffffffffffffffffffffffffffffff1681565b6000809054906101000a900460ff1661472a576040517f08c379a000000000000000000000000000000000000000000000000000000000815260040180806020018281038252601f8152602001807f5265656e7472616e637947756172643a207265656e7472616e742063616c6c0081525060200191505060405180910390fd5b60008060006101000a81548160ff0219169083151502179055508361474e81616489565b84614758816165bb565b84614762816166ee565b61476a616b83565b603660009054906101000a900473ffffffffffffffffffffffffffffffffffffffff1673ffffffffffffffffffffffffffffffffffffffff16635cf2e656896040518263ffffffff1660e01b8152600401808273ffffffffffffffffffffffffffffffffffffffff1673ffffffffffffffffffffffffffffffffffffffff16815260200191505060206040518083038186803b15801561480957600080fd5b505afa15801561481d573d6000803e3d6000fd5b505050506040513d602081101561483357600080fd5b8101908080519060200190929190505050614899576040517f08c379a0000000000000000000000000000000000000000000000000000000008152600401808060200182810382526024815260200180616d206024913960400191505060405180910390fd5b856002808111156148a657fe5b14806148bd575085600160028111156148bb57fe5b145b614912576040517f08c379a0000000000000000000000000000000000000000000000000000000008152600401808060200182810382526023815260200180616c7e6023913960400191505060405180910390fd5b85600281111561491e57fe5b816101c00190600281111561492f57fe5b9081600281111561493c57fe5b81525050603660009054906101000a900473ffffffffffffffffffffffffffffffffffffffff1673ffffffffffffffffffffffffffffffffffffffff1663e2403019896040518263ffffffff1660e01b8152600401808273ffffffffffffffffffffffffffffffffffffffff1673ffffffffffffffffffffffffffffffffffffffff16815260200191505060206040518083038186803b1580156149df57600080fd5b505afa1580156149f3573d6000803e3d6000fd5b505050506040513d6020811015614a0957600080fd5b810190808051906020019092919050505081610160018181525050868161016001511015614a82576040517f08c379a0000000000000000000000000000000000000000000000000000000008152600401808060200182810382526036815260200180616f2a6036913960400191505060405180910390fd5b603760009054906101000a900473ffffffffffffffffffffffffffffffffffffffff1673ffffffffffffffffffffffffffffffffffffffff16632c6d0e9b336040518263ffffffff1660e01b8152600401808273ffffffffffffffffffffffffffffffffffffffff1673ffffffffffffffffffffffffffffffffffffffff1681526020019150506101006040518083038186803b158015614b2257600080fd5b505afa158015614b36573d6000803e3d6000fd5b505050506040513d610100811015614b4d57600080fd5b810190808051906020019092919080519060200190929190805190602001909291908051906020019092919080519060200190929190805190602001909291908051906020019092919080519060200190929190505050909192939495965090508660c0018760e0018861010001896020018a6040018b6101e0018615151515815250868152508681525086815250868152508681525050505050505060008160c0015111614c64576040517f08c379a000000000000000000000000000000000000000000000000000000000815260040180806020018281038252601b8152602001807f54686520636f6c6c61746572616c2062616c616e63652069732030000000000081525060200191505060405180910390fd5b806101e0015115614cc0576040517f08c379a000000000000000000000000000000000000000000000000000000000815260040180806020018281038252603f815260200180616c0e603f913960400191505060405180910390fd5b603960009054906101000a900473ffffffffffffffffffffffffffffffffffffffff1673ffffffffffffffffffffffffffffffffffffffff1663e563a7d033896040518363ffffffff1660e01b8152600401808373ffffffffffffffffffffffffffffffffffffffff1673ffffffffffffffffffffffffffffffffffffffff1681526020018281526020019250505060206040518083038186803b158015614d6757600080fd5b505afa158015614d7b573d6000803e3d6000fd5b505050506040513d6020811015614d9157600080fd5b81019080805190602001909291905050508160600181815250506000816060015111614e08576040517f08c379a0000000000000000000000000000000000000000000000000000000008152600401808060200182810382526021815260200180616ca16021913960400191505060405180910390fd5b603760009054906101000a900473ffffffffffffffffffffffffffffffffffffffff1673ffffffffffffffffffffffffffffffffffffffff166312737c33898984606001518560e0015186610100015187602001516040518763ffffffff1660e01b8152600401808773ffffffffffffffffffffffffffffffffffffffff1673ffffffffffffffffffffffffffffffffffffffff168152602001868152602001858152602001848152602001838152602001828152602001965050505050505060206040518083038186803b158015614ee057600080fd5b505afa158015614ef4573d6000803e3d6000fd5b505050506040513d6020811015614f0a57600080fd5b81019080805190602001909291905050508160a00181815250508060c001518160a001511115614f85576040517f08c379a0000000000000000000000000000000000000000000000000000000008152600401808060200182810382526034815260200180616e8a6034913960400191505060405180910390fd5b60016002811115614f9257fe5b816101c001516002811115614fa357fe5b141561524657603660009054906101000a900473ffffffffffffffffffffffffffffffffffffffff1673ffffffffffffffffffffffffffffffffffffffff1663e2174d8689338a6040518463ffffffff1660e01b8152600401808473ffffffffffffffffffffffffffffffffffffffff1673ffffffffffffffffffffffffffffffffffffffff1681526020018373ffffffffffffffffffffffffffffffffffffffff1673ffffffffffffffffffffffffffffffffffffffff168152602001828152602001935050505060206040518083038186803b15801561508457600080fd5b505afa158015615098573d6000803e3d6000fd5b505050506040513d60208110156150ae57600080fd5b8101908080519060200190929190505050615114576040517f08c379a0000000000000000000000000000000000000000000000000000000008152600401808060200182810382526039815260200180616fc06039913960400191505060405180910390fd5b6000603860009054906101000a900473ffffffffffffffffffffffffffffffffffffffff1673ffffffffffffffffffffffffffffffffffffffff1663d6b725ac6040518163ffffffff1660e01b815260040160206040518083038186803b15801561517e57600080fd5b505afa158015615192573d6000803e3d6000fd5b505050506040513d60208110156151a857600080fd5b8101908080519060200190929190505050905060006151e860646151da8486610160015161685590919063ffffffff16565b6168db90919063ffffffff16565b905080891115615243576040517f08c379a000000000000000000000000000000000000000000000000000000000815260040180806020018281038252603c815260200180617023603c913960400191505060405180910390fd5b50505b603660009054906101000a900473ffffffffffffffffffffffffffffffffffffffff1673ffffffffffffffffffffffffffffffffffffffff166337ac6fe489338a8560600151866101c001516040518663ffffffff1660e01b8152600401808673ffffffffffffffffffffffffffffffffffffffff1673ffffffffffffffffffffffffffffffffffffffff1681526020018573ffffffffffffffffffffffffffffffffffffffff1673ffffffffffffffffffffffffffffffffffffffff16815260200184815260200183815260200182600281111561532157fe5b60ff168152602001955050505050506040805180830381600087803b15801561534957600080fd5b505af115801561535d573d6000803e3d6000fd5b505050506040513d604081101561537357600080fd5b810190808051906020019092919080519060200190929190505050826101a001836101200182815250828152505050603660009054906101000a900473ffffffffffffffffffffffffffffffffffffffff1673ffffffffffffffffffffffffffffffffffffffff1663fa93b2a589338a6040518463ffffffff1660e01b8152600401808473ffffffffffffffffffffffffffffffffffffffff1673ffffffffffffffffffffffffffffffffffffffff1681526020018373ffffffffffffffffffffffffffffffffffffffff1673ffffffffffffffffffffffffffffffffffffffff1681526020018281526020019350505050600060405180830381600087803b15801561547f57600080fd5b505af1158015615493573d6000803e3d6000fd5b505050508461ffff163373ffffffffffffffffffffffffffffffffffffffff168973ffffffffffffffffffffffffffffffffffffffff167f1e77446728e5558aa1b7e81e0cdab9cc1b075ba893b740600c76a315c2caa5538a8a866101a0015187606001518861012001514260405180878152602001868152602001858152602001848152602001838152602001828152602001965050505050505060405180910390a45050505060016000806101000a81548160ff02191690831515021790555050505050565b6000809054906101000a900460ff166155dc576040517f08c379a000000000000000000000000000000000000000000000000000000000815260040180806020018281038252601f8152602001807f5265656e7472616e637947756172643a207265656e7472616e742063616c6c0081525060200191505060405180910390fd5b60008060006101000a81548160ff0219169083151502179055508161560081616489565b600080603660009054906101000a900473ffffffffffffffffffffffffffffffffffffffff1673ffffffffffffffffffffffffffffffffffffffff16639fb8afcd86866040518363ffffffff1660e01b8152600401808373ffffffffffffffffffffffffffffffffffffffff1673ffffffffffffffffffffffffffffffffffffffff1681526020018273ffffffffffffffffffffffffffffffffffffffff1673ffffffffffffffffffffffffffffffffffffffff1681526020019250505060606040518083038186803b1580156156d657600080fd5b505afa1580156156ea573d6000803e3d6000fd5b505050506040513d606081101561570057600080fd5b81019080805190602001909291908051906020019092919080519060200190929190505050925092505060008211615783576040517f08c379a000000000000000000000000000000000000000000000000000000000815260040180806020018281038252602e815260200180616cc2602e913960400191505060405180910390fd5b6001600281111561579057fe5b603660009054906101000a900473ffffffffffffffffffffffffffffffffffffffff1673ffffffffffffffffffffffffffffffffffffffff16631ca19f1987876040518363ffffffff1660e01b8152600401808373ffffffffffffffffffffffffffffffffffffffff1673ffffffffffffffffffffffffffffffffffffffff1681526020018273ffffffffffffffffffffffffffffffffffffffff1673ffffffffffffffffffffffffffffffffffffffff1681526020019250505060206040518083038186803b15801561586357600080fd5b505afa158015615877573d6000803e3d6000fd5b505050506040513d602081101561588d57600080fd5b810190808051906020019092919050505060028111156158a957fe5b146158ff576040517f08c379a0000000000000000000000000000000000000000000000000000000008152600401808060200182810382526034815260200180616d756034913960400191505060405180910390fd5b6000603660009054906101000a900473ffffffffffffffffffffffffffffffffffffffff1673ffffffffffffffffffffffffffffffffffffffff16636fffab0c87876040518363ffffffff1660e01b8152600401808373ffffffffffffffffffffffffffffffffffffffff1673ffffffffffffffffffffffffffffffffffffffff1681526020018273ffffffffffffffffffffffffffffffffffffffff1673ffffffffffffffffffffffffffffffffffffffff1681526020019250505060206040518083038186803b1580156159d457600080fd5b505afa1580156159e8573d6000803e3d6000fd5b505050506040513d60208110156159fe57600080fd5b810190808051906020019092919050505090506000603660009054906101000a900473ffffffffffffffffffffffffffffffffffffffff1673ffffffffffffffffffffffffffffffffffffffff1663c540148e886040518263ffffffff1660e01b8152600401808273ffffffffffffffffffffffffffffffffffffffff1673ffffffffffffffffffffffffffffffffffffffff16815260200191505060206040518083038186803b158015615ab257600080fd5b505afa158015615ac6573d6000803e3d6000fd5b505050506040513d6020811015615adc57600080fd5b810190808051906020019092919050505090506000603660009054906101000a900473ffffffffffffffffffffffffffffffffffffffff1673ffffffffffffffffffffffffffffffffffffffff166388079d88896040518263ffffffff1660e01b8152600401808273ffffffffffffffffffffffffffffffffffffffff1673ffffffffffffffffffffffffffffffffffffffff16815260200191505060206040518083038186803b158015615b9057600080fd5b505afa158015615ba4573d6000803e3d6000fd5b505050506040513d6020811015615bba57600080fd5b810190808051906020019092919050505090506000615c9d615c8e603860009054906101000a900473ffffffffffffffffffffffffffffffffffffffff1673ffffffffffffffffffffffffffffffffffffffff166346f4f8d16040518163ffffffff1660e01b815260040160206040518083038186803b158015615c3d57600080fd5b505afa158015615c51573d6000803e3d6000fd5b505050506040513d6020811015615c6757600080fd5b8101908080519060200190929190505050615c8061693f565b61678390919063ffffffff16565b8361695390919063ffffffff16565b905082841080615cac57508084115b15615e4e576000603660009054906101000a900473ffffffffffffffffffffffffffffffffffffffff1673ffffffffffffffffffffffffffffffffffffffff1663af825b078b8b896040518463ffffffff1660e01b8152600401808473ffffffffffffffffffffffffffffffffffffffff1673ffffffffffffffffffffffffffffffffffffffff1681526020018373ffffffffffffffffffffffffffffffffffffffff1673ffffffffffffffffffffffffffffffffffffffff1681526020018281526020019350505050602060405180830381600087803b158015615d9057600080fd5b505af1158015615da4573d6000803e3d6000fd5b505050506040513d6020811015615dba57600080fd5b810190808051906020019092919050505090508873ffffffffffffffffffffffffffffffffffffffff168a73ffffffffffffffffffffffffffffffffffffffff167f5050ad184862424ee0852d1838d355ad65bed1e5e6da67ac9a2dac1922677f6083894260405180848152602001838152602001828152602001935050505060405180910390a350505050505050615e9f565b6040517f08c379a000000000000000000000000000000000000000000000000000000000815260040180806020018281038252602f815260200180616df2602f913960400191505060405180910390fd5b5060016000806101000a81548160ff0219169083151502179055505050565b7fffffffffffffffffffffffffffffffffffffffffffffffffffffffffffffffff81565b6000809054906101000a900460ff16615f63576040517f08c379a000000000000000000000000000000000000000000000000000000000815260040180806020018281038252601f8152602001807f5265656e7472616e637947756172643a207265656e7472616e742063616c6c0081525060200191505060405180910390fd5b60008060006101000a81548160ff02191690831515021790555082615f8781616489565b83615f91816165bb565b83615f9b816166ee565b6000603660009054906101000a900473ffffffffffffffffffffffffffffffffffffffff1673ffffffffffffffffffffffffffffffffffffffff166334b3beee886040518263ffffffff1660e01b8152600401808273ffffffffffffffffffffffffffffffffffffffff1673ffffffffffffffffffffffffffffffffffffffff16815260200191505060206040518083038186803b15801561603c57600080fd5b505afa158015616050573d6000803e3d6000fd5b505050506040513d602081101561606657600080fd5b810190808051906020019092919050505090506000808273ffffffffffffffffffffffffffffffffffffffff166370a08231336040518263ffffffff1660e01b8152600401808273ffffffffffffffffffffffffffffffffffffffff1673ffffffffffffffffffffffffffffffffffffffff16815260200191505060206040518083038186803b1580156160f957600080fd5b505afa15801561610d573d6000803e3d6000fd5b505050506040513d602081101561612357600080fd5b8101908080519060200190929190505050149050603660009054906101000a900473ffffffffffffffffffffffffffffffffffffffff1673ffffffffffffffffffffffffffffffffffffffff1663bcd6ffa489338a856040518563ffffffff1660e01b8152600401808573ffffffffffffffffffffffffffffffffffffffff1673ffffffffffffffffffffffffffffffffffffffff1681526020018473ffffffffffffffffffffffffffffffffffffffff1673ffffffffffffffffffffffffffffffffffffffff16815260200183815260200182151515158152602001945050505050600060405180830381600087803b15801561622057600080fd5b505af1158015616234573d6000803e3d6000fd5b505050508173ffffffffffffffffffffffffffffffffffffffff166394362e8b33896040518363ffffffff1660e01b8152600401808373ffffffffffffffffffffffffffffffffffffffff1673ffffffffffffffffffffffffffffffffffffffff16815260200182815260200192505050600060405180830381600087803b1580156162bf57600080fd5b505af11580156162d3573d6000803e3d6000fd5b50505050603660009054906101000a900473ffffffffffffffffffffffffffffffffffffffff1673ffffffffffffffffffffffffffffffffffffffff166328fcf4d3348a338b6040518563ffffffff1660e01b8152600401808473ffffffffffffffffffffffffffffffffffffffff1673ffffffffffffffffffffffffffffffffffffffff1681526020018373ffffffffffffffffffffffffffffffffffffffff1673ffffffffffffffffffffffffffffffffffffffff16815260200182815260200193505050506000604051808303818588803b1580156163b457600080fd5b505af11580156163c8573d6000803e3d6000fd5b50505050508561ffff163373ffffffffffffffffffffffffffffffffffffffff168973ffffffffffffffffffffffffffffffffffffffff167fc12c57b1c73a2c3a2ea4613e9476abb3d8d146857aab7329e24243fb59710c828a42604051808381526020018281526020019250505060405180910390a4505050505060016000806101000a81548160ff021916908315150217905550505050565b603660009054906101000a900473ffffffffffffffffffffffffffffffffffffffff1681565b603660009054906101000a900473ffffffffffffffffffffffffffffffffffffffff1673ffffffffffffffffffffffffffffffffffffffff166305075d6e826040518263ffffffff1660e01b8152600401808273ffffffffffffffffffffffffffffffffffffffff1673ffffffffffffffffffffffffffffffffffffffff16815260200191505060206040518083038186803b15801561652857600080fd5b505afa15801561653c573d6000803e3d6000fd5b505050506040513d602081101561655257600080fd5b81019080805190602001909291905050506165b8576040517f08c379a0000000000000000000000000000000000000000000000000000000008152600401808060200182810382526021815260200180616dd16021913960400191505060405180910390fd5b50565b603660009054906101000a900473ffffffffffffffffffffffffffffffffffffffff1673ffffffffffffffffffffffffffffffffffffffff16634a08accb826040518263ffffffff1660e01b8152600401808273ffffffffffffffffffffffffffffffffffffffff1673ffffffffffffffffffffffffffffffffffffffff16815260200191505060206040518083038186803b15801561665a57600080fd5b505afa15801561666e573d6000803e3d6000fd5b505050506040513d602081101561668457600080fd5b8101908080519060200190929190505050156166eb576040517f08c379a00000000000000000000000000000000000000000000000000000000081526004018080602001828103825260248152602001806170fc6024913960400191505060405180910390fd5b50565b60008111616764576040517f08c379a000000000000000000000000000000000000000000000000000000000815260040180806020018281038252601d8152602001807f416d6f756e74206d7573742062652067726561746572207468616e203000000081525060200191505060405180910390fd5b50565b600073eeeeeeeeeeeeeeeeeeeeeeeeeeeeeeeeeeeeeeee905090565b600080828401905083811015616801576040517f08c379a000000000000000000000000000000000000000000000000000000000815260040180806020018281038252601b8152602001807f536166654d6174683a206164646974696f6e206f766572666c6f77000000000081525060200191505060405180910390fd5b8091505092915050565b600061684d83836040518060400160405280601e81526020017f536166654d6174683a207375627472616374696f6e206f766572666c6f7700008152506169b6565b905092915050565b60008083141561686857600090506168d5565b600082840290508284828161687957fe5b04146168d0576040517f08c379a0000000000000000000000000000000000000000000000000000000008152600401808060200182810382526021815260200180616f096021913960400191505060405180910390fd5b809150505b92915050565b600061691d83836040518060400160405280601a81526020017f536166654d6174683a206469766973696f6e206279207a65726f000000000000815250616a76565b905092915050565b60006002905090565b600080303b90506000811491505090565b60006b033b2e3c9fd0803ce8000000905090565b60006169ae6b033b2e3c9fd0803ce80000006169a061697b858761685590919063ffffffff16565b60026b033b2e3c9fd0803ce80000008161699157fe5b0461678390919063ffffffff16565b6168db90919063ffffffff16565b905092915050565b6000838311158290616a63576040517f08c379a00000000000000000000000000000000000000000000000000000000081526004018080602001828103825283818151815260200191508051906020019080838360005b83811015616a28578082015181840152602081019050616a0d565b50505050905090810190601f168015616a555780820380516001836020036101000a031916815260200191505b509250505060405180910390fd5b5060008385039050809150509392505050565b60008083118290616b22576040517f08c379a00000000000000000000000000000000000000000000000000000000081526004018080602001828103825283818151815260200191508051906020019080838360005b83811015616ae7578082015181840152602081019050616acc565b50505050905090810190601f168015616b145780820380516001836020036101000a031916815260200191505b509250505060405180910390fd5b506000838581616b2e57fe5b049050809150509392505050565b604051806101000160405280600081526020016000815260200160008152602001600015158152602001600081526020016000815260200160008152602001600081525090565b604051806102000160405280600081526020016000815260200160008152602001600081526020016000815260200160008152602001600081526020016000815260200160008152602001600081526020016000815260200160008152602001600081526020016000815260200160006002811115616bfe57fe5b8152602001600015158152509056fe54686520626f72726f7765722063616e20616c7265616479206265206c69717569646174656420736f2068652063616e6e6f7420626f72726f77206d6f72655468657265206973206e6f7420656e6f756768206c697175696469747920617661696c61626c6520746f20626f72726f77496e76616c696420696e7465726573742072617465206d6f64652073656c656374656454686520616d6f756e7420746f20626f72726f7720697320746f6f20736d616c6c5573657220646f6573206e6f74206861766520616e7920626f72726f7720666f722074686973207265736572766555736572206465706f73697420697320616c7265616479206265696e67207573656420617320636f6c6c61746572616c52657365727665206973206e6f7420656e61626c656420666f7220626f72726f77696e675468657265206973206e6f7420656e6f756768206c697175696469747920617661696c61626c6520746f2072656465656d546865207573657220626f72726f77206973207661726961626c6520616e642063616e6e6f7420626520726562616c616e636564496e76616c6964206d73672e76616c75652073656e7420666f72207468652072657061796d656e74416374696f6e20726571756972657320616e206163746976652072657365727665496e746572657374207261746520726562616c616e636520636f6e646974696f6e732077657265206e6f74206d65745468652061637475616c2062616c616e6365206f66207468652070726f746f636f6c20697320696e636f6e73697374656e745573657220646f6573206e6f742068617665206120626f72726f7720696e2070726f6772657373206f6e207468697320726573657276655468657265206973206e6f7420656e6f75676820636f6c6c61746572616c20746f20636f7665722061206e657720626f72726f775468652063616c6c6572206f6620746869732066756e6374696f6e2063616e206f6e6c79206265207468652061546f6b656e20636f6e7472616374206f6620746869732072657365727665536166654d6174683a206d756c7469706c69636174696f6e206f766572666c6f775468657265206973206e6f7420656e6f756768206c697175696469747920617661696c61626c6520696e2074686520726573657276655468652072657175657374656420616d6f756e7420697320746f6f20736d616c6c20666f72206120666c6173684c6f616e2e436f6e747261637420696e7374616e63652068617320616c7265616479206265656e20696e697469616c697a6564557365722063616e6e6f7420626f72726f77207468652073656c656374656420616d6f756e742077697468206120737461626c6520726174655573657220646f6573206e6f74206861766520616e79206c6971756964697479206465706f73697465645573657220697320747279696e6720746f20626f72726f7720746f6f206d756368206c6971756964697479206174206120737461626c652072617465546865207573657220646f6573206e6f74206861766520616e7920626f72726f772070656e64696e67557365722063616e6e6f7420626f72726f77207468652073656c656374656420616d6f756e7420617420737461626c65546f207265706179206f6e20626568616c66206f6620616e207573657220616e206578706c6963697420616d6f756e7420746f207265706179206973206e65656465642e416374696f6e20726571756972657320616e20756e667265657a65642072657365727665a265627a7a72315820a8838cd12dc7669b63910b7a396028a6ebf0fc21212b4b8ed5481da812bb5df364736f6c63430005100032",
  "source": "pragma solidity ^0.5.0;\n\nimport \"openzeppelin-solidity/contracts/math/SafeMath.sol\";\nimport \"openzeppelin-solidity/contracts/utils/ReentrancyGuard.sol\";\nimport \"openzeppelin-solidity/contracts/utils/Address.sol\";\nimport \"openzeppelin-solidity/contracts/token/ERC20/IERC20.sol\";\nimport \"../libraries/openzeppelin-upgradeability/VersionedInitializable.sol\";\n\nimport \"../configuration/LendingPoolAddressesProvider.sol\";\nimport \"../configuration/LendingPoolParametersProvider.sol\";\nimport \"../tokenization/AToken.sol\";\nimport \"../libraries/CoreLibrary.sol\";\nimport \"../libraries/WadRayMath.sol\";\nimport \"../interfaces/IFeeProvider.sol\";\nimport \"../flashloan/interfaces/IFlashLoanReceiver.sol\";\nimport \"./LendingPoolCore.sol\";\nimport \"./LendingPoolDataProvider.sol\";\nimport \"./LendingPoolLiquidationManager.sol\";\nimport \"../libraries/EthAddressLib.sol\";\n\n/**\n* @title LendingPool contract\n* @notice Implements the actions of the LendingPool, and exposes accessory methods to fetch the users and reserve data\n* @author Aave\n **/\n\ncontract LendingPool is ReentrancyGuard, VersionedInitializable {\n    using SafeMath for uint256;\n    using WadRayMath for uint256;\n    using Address for address;\n\n    LendingPoolAddressesProvider public addressesProvider;\n    LendingPoolCore public core;\n    LendingPoolDataProvider public dataProvider;\n    LendingPoolParametersProvider public parametersProvider;\n    IFeeProvider feeProvider;\n\n    /**\n    * @dev emitted on deposit\n    * @param _reserve the address of the reserve\n    * @param _user the address of the user\n    * @param _amount the amount to be deposited\n    * @param _referral the referral number of the action\n    * @param _timestamp the timestamp of the action\n    **/\n    event Deposit(\n        address indexed _reserve,\n        address indexed _user,\n        uint256 _amount,\n        uint16 indexed _referral,\n        uint256 _timestamp\n    );\n\n    /**\n    * @dev emitted during a redeem action.\n    * @param _reserve the address of the reserve\n    * @param _user the address of the user\n    * @param _amount the amount to be deposited\n    * @param _timestamp the timestamp of the action\n    **/\n    event RedeemUnderlying(\n        address indexed _reserve,\n        address indexed _user,\n        uint256 _amount,\n        uint256 _timestamp\n    );\n\n    /**\n    * @dev emitted on borrow\n    * @param _reserve the address of the reserve\n    * @param _user the address of the user\n    * @param _amount the amount to be deposited\n    * @param _borrowRateMode the rate mode, can be either 1-stable or 2-variable\n    * @param _borrowRate the rate at which the user has borrowed\n    * @param _originationFee the origination fee to be paid by the user\n    * @param _borrowBalanceIncrease the balance increase since the last borrow, 0 if it's the first time borrowing\n    * @param _referral the referral number of the action\n    * @param _timestamp the timestamp of the action\n    **/\n    event Borrow(\n        address indexed _reserve,\n        address indexed _user,\n        uint256 _amount,\n        uint256 _borrowRateMode,\n        uint256 _borrowRate,\n        uint256 _originationFee,\n        uint256 _borrowBalanceIncrease,\n        uint16 indexed _referral,\n        uint256 _timestamp\n    );\n\n    /**\n    * @dev emitted on repay\n    * @param _reserve the address of the reserve\n    * @param _user the address of the user for which the repay has been executed\n    * @param _repayer the address of the user that has performed the repay action\n    * @param _amountMinusFees the amount repaid minus fees\n    * @param _fees the fees repaid\n    * @param _borrowBalanceIncrease the balance increase since the last action\n    * @param _timestamp the timestamp of the action\n    **/\n    event Repay(\n        address indexed _reserve,\n        address indexed _user,\n        address indexed _repayer,\n        uint256 _amountMinusFees,\n        uint256 _fees,\n        uint256 _borrowBalanceIncrease,\n        uint256 _timestamp\n    );\n\n    /**\n    * @dev emitted when a user performs a rate swap\n    * @param _reserve the address of the reserve\n    * @param _user the address of the user executing the swap\n    * @param _newRateMode the new interest rate mode\n    * @param _newRate the new borrow rate\n    * @param _borrowBalanceIncrease the balance increase since the last action\n    * @param _timestamp the timestamp of the action\n    **/\n    event Swap(\n        address indexed _reserve,\n        address indexed _user,\n        uint256 _newRateMode,\n        uint256 _newRate,\n        uint256 _borrowBalanceIncrease,\n        uint256 _timestamp\n    );\n\n    /**\n    * @dev emitted when a user enables a reserve as collateral\n    * @param _reserve the address of the reserve\n    * @param _user the address of the user\n    **/\n    event ReserveUsedAsCollateralEnabled(address indexed _reserve, address indexed _user);\n\n    /**\n    * @dev emitted when a user disables a reserve as collateral\n    * @param _reserve the address of the reserve\n    * @param _user the address of the user\n    **/\n    event ReserveUsedAsCollateralDisabled(address indexed _reserve, address indexed _user);\n\n    /**\n    * @dev emitted when the stable rate of a user gets rebalanced\n    * @param _reserve the address of the reserve\n    * @param _user the address of the user for which the rebalance has been executed\n    * @param _newStableRate the new stable borrow rate after the rebalance\n    * @param _borrowBalanceIncrease the balance increase since the last action\n    * @param _timestamp the timestamp of the action\n    **/\n    event RebalanceStableBorrowRate(\n        address indexed _reserve,\n        address indexed _user,\n        uint256 _newStableRate,\n        uint256 _borrowBalanceIncrease,\n        uint256 _timestamp\n    );\n\n    /**\n    * @dev emitted when a flashloan is executed\n    * @param _target the address of the flashLoanReceiver\n    * @param _reserve the address of the reserve\n    * @param _amount the amount requested\n    * @param _totalFee the total fee on the amount\n    * @param _protocolFee the part of the fee for the protocol\n    * @param _timestamp the timestamp of the action\n    **/\n    event FlashLoan(\n        address indexed _target,\n        address indexed _reserve,\n        uint256 _amount,\n        uint256 _totalFee,\n        uint256 _protocolFee,\n        uint256 _timestamp\n    );\n\n    /**\n    * @dev these events are not emitted directly by the LendingPool\n    * but they are declared here as the LendingPoolLiquidationManager\n    * is executed using a delegateCall().\n    * This allows to have the events in the generated ABI for LendingPool.\n    **/\n\n    /**\n    * @dev emitted when a borrow fee is liquidated\n    * @param _collateral the address of the collateral being liquidated\n    * @param _reserve the address of the reserve\n    * @param _user the address of the user being liquidated\n    * @param _feeLiquidated the total fee liquidated\n    * @param _liquidatedCollateralForFee the amount of collateral received by the protocol in exchange for the fee\n    * @param _timestamp the timestamp of the action\n    **/\n    event OriginationFeeLiquidated(\n        address indexed _collateral,\n        address indexed _reserve,\n        address indexed _user,\n        uint256 _feeLiquidated,\n        uint256 _liquidatedCollateralForFee,\n        uint256 _timestamp\n    );\n\n    /**\n    * @dev emitted when a borrower is liquidated\n    * @param _collateral the address of the collateral being liquidated\n    * @param _reserve the address of the reserve\n    * @param _user the address of the user being liquidated\n    * @param _purchaseAmount the total amount liquidated\n    * @param _liquidatedCollateralAmount the amount of collateral being liquidated\n    * @param _accruedBorrowInterest the amount of interest accrued by the borrower since the last action\n    * @param _liquidator the address of the liquidator\n    * @param _receiveAToken true if the liquidator wants to receive aTokens, false otherwise\n    * @param _timestamp the timestamp of the action\n    **/\n    event LiquidationCall(\n        address indexed _collateral,\n        address indexed _reserve,\n        address indexed _user,\n        uint256 _purchaseAmount,\n        uint256 _liquidatedCollateralAmount,\n        uint256 _accruedBorrowInterest,\n        address _liquidator,\n        bool _receiveAToken,\n        uint256 _timestamp\n    );\n\n    /**\n    * @dev functions affected by this modifier can only be invoked by the\n    * aToken.sol contract\n    * @param _reserve the address of the reserve\n    **/\n    modifier onlyOverlyingAToken(address _reserve) {\n        require(\n            msg.sender == core.getReserveATokenAddress(_reserve),\n            \"The caller of this function can only be the aToken contract of this reserve\"\n        );\n        _;\n    }\n\n    /**\n    * @dev functions affected by this modifier can only be invoked if the reserve is active\n    * @param _reserve the address of the reserve\n    **/\n    modifier onlyActiveReserve(address _reserve) {\n        requireReserveActiveInternal(_reserve);\n        _;\n    }\n\n    /**\n    * @dev functions affected by this modifier can only be invoked if the reserve is not freezed.\n    * A freezed reserve only allows redeems, repays, rebalances and liquidations.\n    * @param _reserve the address of the reserve\n    **/\n    modifier onlyUnfreezedReserve(address _reserve) {\n        requireReserveNotFreezedInternal(_reserve);\n        _;\n    }\n\n    /**\n    * @dev functions affected by this modifier can only be invoked if the provided _amount input parameter\n    * is not zero.\n    * @param _amount the amount provided\n    **/\n    modifier onlyAmountGreaterThanZero(uint256 _amount) {\n        requireAmountGreaterThanZeroInternal(_amount);\n        _;\n    }\n\n    uint256 public constant UINT_MAX_VALUE = uint256(-1);\n\n    uint256 public constant LENDINGPOOL_REVISION = 0x2;\n\n    function getRevision() internal pure returns (uint256) {\n        return LENDINGPOOL_REVISION;\n    }\n\n    /**\n    * @dev this function is invoked by the proxy contract when the LendingPool contract is added to the\n    * AddressesProvider.\n    * @param _addressesProvider the address of the LendingPoolAddressesProvider registry\n    **/\n    function initialize(LendingPoolAddressesProvider _addressesProvider) public initializer {\n        addressesProvider = _addressesProvider;\n        core = LendingPoolCore(addressesProvider.getLendingPoolCore());\n        dataProvider = LendingPoolDataProvider(addressesProvider.getLendingPoolDataProvider());\n        parametersProvider = LendingPoolParametersProvider(\n            addressesProvider.getLendingPoolParametersProvider()\n        );\n        feeProvider = IFeeProvider(addressesProvider.getFeeProvider());\n    }\n\n    /**\n    * @dev deposits The underlying asset into the reserve. A corresponding amount of the overlying asset (aTokens)\n    * is minted.\n    * @param _reserve the address of the reserve\n    * @param _amount the amount to be deposited\n    * @param _referralCode integrators are assigned a referral code and can potentially receive rewards.\n    **/\n    function deposit(address _reserve, uint256 _amount, uint16 _referralCode)\n        external\n        payable\n        nonReentrant\n        onlyActiveReserve(_reserve)\n        onlyUnfreezedReserve(_reserve)\n        onlyAmountGreaterThanZero(_amount)\n    {\n        AToken aToken = AToken(core.getReserveATokenAddress(_reserve));\n\n        bool isFirstDeposit = aToken.balanceOf(msg.sender) == 0;\n\n        core.updateStateOnDeposit(_reserve, msg.sender, _amount, isFirstDeposit);\n\n        //minting AToken to user 1:1 with the specific exchange rate\n        aToken.mintOnDeposit(msg.sender, _amount);\n\n        //transfer to the core contract\n        core.transferToReserve.value(msg.value)(_reserve, msg.sender, _amount);\n\n        //solium-disable-next-line\n        emit Deposit(_reserve, msg.sender, _amount, _referralCode, block.timestamp);\n\n    }\n\n    /**\n    * @dev Redeems the underlying amount of assets requested by _user.\n    * This function is executed by the overlying aToken contract in response to a redeem action.\n    * @param _reserve the address of the reserve\n    * @param _user the address of the user performing the action\n    * @param _amount the underlying amount to be redeemed\n    **/\n    function redeemUnderlying(\n        address _reserve,\n        address payable _user,\n        uint256 _amount,\n        uint256 _aTokenBalanceAfterRedeem\n    )\n        external\n        nonReentrant\n        onlyOverlyingAToken(_reserve)\n        onlyActiveReserve(_reserve)\n        onlyAmountGreaterThanZero(_amount)\n    {\n        uint256 currentAvailableLiquidity = core.getReserveAvailableLiquidity(_reserve);\n        require(\n            currentAvailableLiquidity >= _amount,\n            \"There is not enough liquidity available to redeem\"\n        );\n\n        core.updateStateOnRedeem(_reserve, _user, _amount, _aTokenBalanceAfterRedeem == 0);\n\n        core.transferToUser(_reserve, _user, _amount);\n\n        //solium-disable-next-line\n        emit RedeemUnderlying(_reserve, _user, _amount, block.timestamp);\n\n    }\n\n    /**\n    * @dev data structures for local computations in the borrow() method.\n    */\n\n    struct BorrowLocalVars {\n        uint256 principalBorrowBalance;\n        uint256 currentLtv;\n        uint256 currentLiquidationThreshold;\n        uint256 borrowFee;\n        uint256 requestedBorrowAmountETH;\n        uint256 amountOfCollateralNeededETH;\n        uint256 userCollateralBalanceETH;\n        uint256 userBorrowBalanceETH;\n        uint256 userTotalFeesETH;\n        uint256 borrowBalanceIncrease;\n        uint256 currentReserveStableRate;\n        uint256 availableLiquidity;\n        uint256 reserveDecimals;\n        uint256 finalUserBorrowRate;\n        CoreLibrary.InterestRateMode rateMode;\n        bool healthFactorBelowThreshold;\n    }\n\n    /**\n    * @dev Allows users to borrow a specific amount of the reserve currency, provided that the borrower\n    * already deposited enough collateral.\n    * @param _reserve the address of the reserve\n    * @param _amount the amount to be borrowed\n    * @param _interestRateMode the interest rate mode at which the user wants to borrow. Can be 0 (STABLE) or 1 (VARIABLE)\n    **/\n    function borrow(\n        address _reserve,\n        uint256 _amount,\n        uint256 _interestRateMode,\n        uint16 _referralCode\n    )\n        external\n        nonReentrant\n        onlyActiveReserve(_reserve)\n        onlyUnfreezedReserve(_reserve)\n        onlyAmountGreaterThanZero(_amount)\n    {\n        // Usage of a memory struct of vars to avoid \"Stack too deep\" errors due to local variables\n        BorrowLocalVars memory vars;\n\n        //check that the reserve is enabled for borrowing\n        require(core.isReserveBorrowingEnabled(_reserve), \"Reserve is not enabled for borrowing\");\n        //validate interest rate mode\n        require(\n            uint256(CoreLibrary.InterestRateMode.VARIABLE) == _interestRateMode ||\n                uint256(CoreLibrary.InterestRateMode.STABLE) == _interestRateMode,\n            \"Invalid interest rate mode selected\"\n        );\n\n        //cast the rateMode to coreLibrary.interestRateMode\n        vars.rateMode = CoreLibrary.InterestRateMode(_interestRateMode);\n\n        //check that the amount is available in the reserve\n        vars.availableLiquidity = core.getReserveAvailableLiquidity(_reserve);\n\n        require(\n            vars.availableLiquidity >= _amount,\n            \"There is not enough liquidity available in the reserve\"\n        );\n\n        (\n            ,\n            vars.userCollateralBalanceETH,\n            vars.userBorrowBalanceETH,\n            vars.userTotalFeesETH,\n            vars.currentLtv,\n            vars.currentLiquidationThreshold,\n            ,\n            vars.healthFactorBelowThreshold\n        ) = dataProvider.calculateUserGlobalData(msg.sender);\n\n        require(vars.userCollateralBalanceETH > 0, \"The collateral balance is 0\");\n\n        require(\n            !vars.healthFactorBelowThreshold,\n            \"The borrower can already be liquidated so he cannot borrow more\"\n        );\n\n        //calculating fees\n        vars.borrowFee = feeProvider.calculateLoanOriginationFee(msg.sender, _amount);\n\n        require(vars.borrowFee > 0, \"The amount to borrow is too small\");\n\n        vars.amountOfCollateralNeededETH = dataProvider.calculateCollateralNeededInETH(\n            _reserve,\n            _amount,\n            vars.borrowFee,\n            vars.userBorrowBalanceETH,\n            vars.userTotalFeesETH,\n            vars.currentLtv\n        );\n\n        require(\n            vars.amountOfCollateralNeededETH <= vars.userCollateralBalanceETH,\n            \"There is not enough collateral to cover a new borrow\"\n        );\n\n        /**\n        * Following conditions need to be met if the user is borrowing at a stable rate:\n        * 1. Reserve must be enabled for stable rate borrowing\n        * 2. Users cannot borrow from the reserve if their collateral is (mostly) the same currency\n        *    they are borrowing, to prevent abuses.\n        * 3. Users will be able to borrow only a relatively small, configurable amount of the total\n        *    liquidity\n        **/\n\n        if (vars.rateMode == CoreLibrary.InterestRateMode.STABLE) {\n            //check if the borrow mode is stable and if stable rate borrowing is enabled on this reserve\n            require(\n                core.isUserAllowedToBorrowAtStable(_reserve, msg.sender, _amount),\n                \"User cannot borrow the selected amount with a stable rate\"\n            );\n\n            //calculate the max available loan size in stable rate mode as a percentage of the\n            //available liquidity\n            uint256 maxLoanPercent = parametersProvider.getMaxStableRateBorrowSizePercent();\n            uint256 maxLoanSizeStable = vars.availableLiquidity.mul(maxLoanPercent).div(100);\n\n            require(\n                _amount <= maxLoanSizeStable,\n                \"User is trying to borrow too much liquidity at a stable rate\"\n            );\n        }\n\n        //all conditions passed - borrow is accepted\n        (vars.finalUserBorrowRate, vars.borrowBalanceIncrease) = core.updateStateOnBorrow(\n            _reserve,\n            msg.sender,\n            _amount,\n            vars.borrowFee,\n            vars.rateMode\n        );\n\n        //if we reached this point, we can transfer\n        core.transferToUser(_reserve, msg.sender, _amount);\n\n        emit Borrow(\n            _reserve,\n            msg.sender,\n            _amount,\n            _interestRateMode,\n            vars.finalUserBorrowRate,\n            vars.borrowFee,\n            vars.borrowBalanceIncrease,\n            _referralCode,\n            //solium-disable-next-line\n            block.timestamp\n        );\n    }\n\n    /**\n    * @notice repays a borrow on the specific reserve, for the specified amount (or for the whole amount, if uint256(-1) is specified).\n    * @dev the target user is defined by _onBehalfOf. If there is no repayment on behalf of another account,\n    * _onBehalfOf must be equal to msg.sender.\n    * @param _reserve the address of the reserve on which the user borrowed\n    * @param _amount the amount to repay, or uint256(-1) if the user wants to repay everything\n    * @param _onBehalfOf the address for which msg.sender is repaying.\n    **/\n\n    struct RepayLocalVars {\n        uint256 principalBorrowBalance;\n        uint256 compoundedBorrowBalance;\n        uint256 borrowBalanceIncrease;\n        bool isETH;\n        uint256 paybackAmount;\n        uint256 paybackAmountMinusFees;\n        uint256 currentStableRate;\n        uint256 originationFee;\n    }\n\n    function repay(address _reserve, uint256 _amount, address payable _onBehalfOf)\n        external\n        payable\n        nonReentrant\n        onlyActiveReserve(_reserve)\n        onlyAmountGreaterThanZero(_amount)\n    {\n        // Usage of a memory struct of vars to avoid \"Stack too deep\" errors due to local variables\n        RepayLocalVars memory vars;\n\n        (\n            vars.principalBorrowBalance,\n            vars.compoundedBorrowBalance,\n            vars.borrowBalanceIncrease\n        ) = core.getUserBorrowBalances(_reserve, _onBehalfOf);\n\n        vars.originationFee = core.getUserOriginationFee(_reserve, _onBehalfOf);\n        vars.isETH = EthAddressLib.ethAddress() == _reserve;\n\n        require(vars.compoundedBorrowBalance > 0, \"The user does not have any borrow pending\");\n\n        require(\n            _amount != UINT_MAX_VALUE || msg.sender == _onBehalfOf,\n            \"To repay on behalf of an user an explicit amount to repay is needed.\"\n        );\n\n        //default to max amount\n        vars.paybackAmount = vars.compoundedBorrowBalance.add(vars.originationFee);\n\n        if (_amount != UINT_MAX_VALUE && _amount < vars.paybackAmount) {\n            vars.paybackAmount = _amount;\n        }\n\n        require(\n            !vars.isETH || msg.value >= vars.paybackAmount,\n            \"Invalid msg.value sent for the repayment\"\n        );\n\n        //if the amount is smaller than the origination fee, just transfer the amount to the fee destination address\n        if (vars.paybackAmount <= vars.originationFee) {\n            core.updateStateOnRepay(\n                _reserve,\n                _onBehalfOf,\n                0,\n                vars.paybackAmount,\n                vars.borrowBalanceIncrease,\n                false\n            );\n\n            core.transferToFeeCollectionAddress.value(vars.isETH ? vars.paybackAmount : 0)(\n                _reserve,\n                _onBehalfOf,\n                vars.paybackAmount,\n                addressesProvider.getTokenDistributor()\n            );\n\n            emit Repay(\n                _reserve,\n                _onBehalfOf,\n                msg.sender,\n                0,\n                vars.paybackAmount,\n                vars.borrowBalanceIncrease,\n                //solium-disable-next-line\n                block.timestamp\n            );\n            return;\n        }\n\n        vars.paybackAmountMinusFees = vars.paybackAmount.sub(vars.originationFee);\n\n        core.updateStateOnRepay(\n            _reserve,\n            _onBehalfOf,\n            vars.paybackAmountMinusFees,\n            vars.originationFee,\n            vars.borrowBalanceIncrease,\n            vars.compoundedBorrowBalance == vars.paybackAmountMinusFees\n        );\n\n        //if the user didn't repay the origination fee, transfer the fee to the fee collection address\n        if(vars.originationFee > 0) {\n            core.transferToFeeCollectionAddress.value(vars.isETH ? vars.originationFee : 0)(\n                _reserve,\n                _onBehalfOf,\n                vars.originationFee,\n                addressesProvider.getTokenDistributor()\n            );\n        }\n\n        //sending the total msg.value if the transfer is ETH.\n        //the transferToReserve() function will take care of sending the\n        //excess ETH back to the caller\n        core.transferToReserve.value(vars.isETH ? msg.value.sub(vars.originationFee) : 0)(\n            _reserve,\n            msg.sender,\n            vars.paybackAmountMinusFees\n        );\n\n        emit Repay(\n            _reserve,\n            _onBehalfOf,\n            msg.sender,\n            vars.paybackAmountMinusFees,\n            vars.originationFee,\n            vars.borrowBalanceIncrease,\n            //solium-disable-next-line\n            block.timestamp\n        );\n    }\n\n    /**\n    * @dev borrowers can user this function to swap between stable and variable borrow rate modes.\n    * @param _reserve the address of the reserve on which the user borrowed\n    **/\n    function swapBorrowRateMode(address _reserve)\n        external\n        nonReentrant\n        onlyActiveReserve(_reserve)\n        onlyUnfreezedReserve(_reserve)\n    {\n        (uint256 principalBorrowBalance, uint256 compoundedBorrowBalance, uint256 borrowBalanceIncrease) = core\n            .getUserBorrowBalances(_reserve, msg.sender);\n\n        require(\n            compoundedBorrowBalance > 0,\n            \"User does not have a borrow in progress on this reserve\"\n        );\n\n        CoreLibrary.InterestRateMode currentRateMode = core.getUserCurrentBorrowRateMode(\n            _reserve,\n            msg.sender\n        );\n\n        if (currentRateMode == CoreLibrary.InterestRateMode.VARIABLE) {\n            /**\n            * user wants to swap to stable, before swapping we need to ensure that\n            * 1. stable borrow rate is enabled on the reserve\n            * 2. user is not trying to abuse the reserve by depositing\n            * more collateral than he is borrowing, artificially lowering\n            * the interest rate, borrowing at variable, and switching to stable\n            **/\n            require(\n                core.isUserAllowedToBorrowAtStable(_reserve, msg.sender, compoundedBorrowBalance),\n                \"User cannot borrow the selected amount at stable\"\n            );\n        }\n\n        (CoreLibrary.InterestRateMode newRateMode, uint256 newBorrowRate) = core\n            .updateStateOnSwapRate(\n            _reserve,\n            msg.sender,\n            principalBorrowBalance,\n            compoundedBorrowBalance,\n            borrowBalanceIncrease,\n            currentRateMode\n        );\n\n        emit Swap(\n            _reserve,\n            msg.sender,\n            uint256(newRateMode),\n            newBorrowRate,\n            borrowBalanceIncrease,\n            //solium-disable-next-line\n            block.timestamp\n        );\n    }\n\n    /**\n    * @dev rebalances the stable interest rate of a user if current liquidity rate > user stable rate.\n    * this is regulated by Aave to ensure that the protocol is not abused, and the user is paying a fair\n    * rate. Anyone can call this function though.\n    * @param _reserve the address of the reserve\n    * @param _user the address of the user to be rebalanced\n    **/\n    function rebalanceStableBorrowRate(address _reserve, address _user)\n        external\n        nonReentrant\n        onlyActiveReserve(_reserve)\n    {\n        (, uint256 compoundedBalance, uint256 borrowBalanceIncrease) = core.getUserBorrowBalances(\n            _reserve,\n            _user\n        );\n\n        //step 1: user must be borrowing on _reserve at a stable rate\n        require(compoundedBalance > 0, \"User does not have any borrow for this reserve\");\n\n        require(\n            core.getUserCurrentBorrowRateMode(_reserve, _user) ==\n                CoreLibrary.InterestRateMode.STABLE,\n            \"The user borrow is variable and cannot be rebalanced\"\n        );\n\n        uint256 userCurrentStableRate = core.getUserCurrentStableBorrowRate(_reserve, _user);\n        uint256 liquidityRate = core.getReserveCurrentLiquidityRate(_reserve);\n        uint256 reserveCurrentStableRate = core.getReserveCurrentStableBorrowRate(_reserve);\n        uint256 rebalanceDownRateThreshold = reserveCurrentStableRate.rayMul(\n            WadRayMath.ray().add(parametersProvider.getRebalanceDownRateDelta())\n        );\n\n        //step 2: we have two possible situations to rebalance:\n\n        //1. user stable borrow rate is below the current liquidity rate. The loan needs to be rebalanced,\n        //as this situation can be abused (user putting back the borrowed liquidity in the same reserve to earn on it)\n        //2. user stable rate is above the market avg borrow rate of a certain delta, and utilization rate is low.\n        //In this case, the user is paying an interest that is too high, and needs to be rescaled down.\n        if (\n            userCurrentStableRate < liquidityRate ||\n            userCurrentStableRate > rebalanceDownRateThreshold\n        ) {\n            uint256 newStableRate = core.updateStateOnRebalance(\n                _reserve,\n                _user,\n                borrowBalanceIncrease\n            );\n\n            emit RebalanceStableBorrowRate(\n                _reserve,\n                _user,\n                newStableRate,\n                borrowBalanceIncrease,\n                //solium-disable-next-line\n                block.timestamp\n            );\n\n            return;\n\n        }\n\n        revert(\"Interest rate rebalance conditions were not met\");\n    }\n\n    /**\n    * @dev allows depositors to enable or disable a specific deposit as collateral.\n    * @param _reserve the address of the reserve\n    * @param _useAsCollateral true if the user wants to user the deposit as collateral, false otherwise.\n    **/\n    function setUserUseReserveAsCollateral(address _reserve, bool _useAsCollateral)\n        external\n        nonReentrant\n        onlyActiveReserve(_reserve)\n        onlyUnfreezedReserve(_reserve)\n    {\n        uint256 underlyingBalance = core.getUserUnderlyingAssetBalance(_reserve, msg.sender);\n\n        require(underlyingBalance > 0, \"User does not have any liquidity deposited\");\n\n        require(\n            dataProvider.balanceDecreaseAllowed(_reserve, msg.sender, underlyingBalance),\n            \"User deposit is already being used as collateral\"\n        );\n\n        core.setUserUseReserveAsCollateral(_reserve, msg.sender, _useAsCollateral);\n\n        if (_useAsCollateral) {\n            emit ReserveUsedAsCollateralEnabled(_reserve, msg.sender);\n        } else {\n            emit ReserveUsedAsCollateralDisabled(_reserve, msg.sender);\n        }\n    }\n\n    /**\n    * @dev users can invoke this function to liquidate an undercollateralized position.\n    * @param _reserve the address of the collateral to liquidated\n    * @param _reserve the address of the principal reserve\n    * @param _user the address of the borrower\n    * @param _purchaseAmount the amount of principal that the liquidator wants to repay\n    * @param _receiveAToken true if the liquidators wants to receive the aTokens, false if\n    * he wants to receive the underlying asset directly\n    **/\n    function liquidationCall(\n        address _collateral,\n        address _reserve,\n        address _user,\n        uint256 _purchaseAmount,\n        bool _receiveAToken\n    ) external payable nonReentrant onlyActiveReserve(_reserve) onlyActiveReserve(_collateral) {\n        address liquidationManager = addressesProvider.getLendingPoolLiquidationManager();\n\n        //solium-disable-next-line\n        (bool success, bytes memory result) = liquidationManager.delegatecall(\n            abi.encodeWithSignature(\n                \"liquidationCall(address,address,address,uint256,bool)\",\n                _collateral,\n                _reserve,\n                _user,\n                _purchaseAmount,\n                _receiveAToken\n            )\n        );\n        require(success, \"Liquidation call failed\");\n\n        (uint256 returnCode, string memory returnMessage) = abi.decode(result, (uint256, string));\n\n        if (returnCode != 0) {\n            //error found\n            revert(string(abi.encodePacked(\"Liquidation failed: \", returnMessage)));\n        }\n    }\n\n    /**\n    * @dev allows smartcontracts to access the liquidity of the pool within one transaction,\n    * as long as the amount taken plus a fee is returned. NOTE There are security concerns for developers of flashloan receiver contracts\n    * that must be kept into consideration. For further details please visit https://developers.aave.com\n    * @param _receiver The address of the contract receiving the funds. The receiver should implement the IFlashLoanReceiver interface.\n    * @param _reserve the address of the principal reserve\n    * @param _amount the amount requested for this flashloan\n    **/\n    function flashLoan(address _receiver, address _reserve, uint256 _amount, bytes memory _params)\n        public\n        nonReentrant\n        onlyActiveReserve(_reserve)\n        onlyAmountGreaterThanZero(_amount)\n    {\n        //check that the reserve has enough available liquidity\n        //we avoid using the getAvailableLiquidity() function in LendingPoolCore to save gas\n        uint256 availableLiquidityBefore = _reserve == EthAddressLib.ethAddress()\n            ? address(core).balance\n            : IERC20(_reserve).balanceOf(address(core));\n\n        require(\n            availableLiquidityBefore >= _amount,\n            \"There is not enough liquidity available to borrow\"\n        );\n\n        (uint256 totalFeeBips, uint256 protocolFeeBips) = parametersProvider\n            .getFlashLoanFeesInBips();\n        //calculate amount fee\n        uint256 amountFee = _amount.mul(totalFeeBips).div(10000);\n\n        //protocol fee is the part of the amountFee reserved for the protocol - the rest goes to depositors\n        uint256 protocolFee = amountFee.mul(protocolFeeBips).div(10000);\n        require(\n            amountFee > 0 && protocolFee > 0,\n            \"The requested amount is too small for a flashLoan.\"\n        );\n\n        //get the FlashLoanReceiver instance\n        IFlashLoanReceiver receiver = IFlashLoanReceiver(_receiver);\n\n        address payable userPayable = address(uint160(_receiver));\n\n        //transfer funds to the receiver\n        core.transferToUser(_reserve, userPayable, _amount);\n\n        //execute action of the receiver\n        receiver.executeOperation(_reserve, _amount, amountFee, _params);\n\n        //check that the actual balance of the core contract includes the returned amount\n        uint256 availableLiquidityAfter = _reserve == EthAddressLib.ethAddress()\n            ? address(core).balance\n            : IERC20(_reserve).balanceOf(address(core));\n\n        require(\n            availableLiquidityAfter == availableLiquidityBefore.add(amountFee),\n            \"The actual balance of the protocol is inconsistent\"\n        );\n\n        core.updateStateOnFlashLoan(\n            _reserve,\n            availableLiquidityBefore,\n            amountFee.sub(protocolFee),\n            protocolFee\n        );\n\n        //solium-disable-next-line\n        emit FlashLoan(_receiver, _reserve, _amount, amountFee, protocolFee, block.timestamp);\n    }\n\n    /**\n    * @dev accessory functions to fetch data from the core contract\n    **/\n\n    function getReserveConfigurationData(address _reserve)\n        external\n        view\n        returns (\n            uint256 ltv,\n            uint256 liquidationThreshold,\n            uint256 liquidationBonus,\n            address interestRateStrategyAddress,\n            bool usageAsCollateralEnabled,\n            bool borrowingEnabled,\n            bool stableBorrowRateEnabled,\n            bool isActive\n        )\n    {\n        return dataProvider.getReserveConfigurationData(_reserve);\n    }\n\n    function getReserveData(address _reserve)\n        external\n        view\n        returns (\n            uint256 totalLiquidity,\n            uint256 availableLiquidity,\n            uint256 totalBorrowsStable,\n            uint256 totalBorrowsVariable,\n            uint256 liquidityRate,\n            uint256 variableBorrowRate,\n            uint256 stableBorrowRate,\n            uint256 averageStableBorrowRate,\n            uint256 utilizationRate,\n            uint256 liquidityIndex,\n            uint256 variableBorrowIndex,\n            address aTokenAddress,\n            uint40 lastUpdateTimestamp\n        )\n    {\n        return dataProvider.getReserveData(_reserve);\n    }\n\n    function getUserAccountData(address _user)\n        external\n        view\n        returns (\n            uint256 totalLiquidityETH,\n            uint256 totalCollateralETH,\n            uint256 totalBorrowsETH,\n            uint256 totalFeesETH,\n            uint256 availableBorrowsETH,\n            uint256 currentLiquidationThreshold,\n            uint256 ltv,\n            uint256 healthFactor\n        )\n    {\n        return dataProvider.getUserAccountData(_user);\n    }\n\n    function getUserReserveData(address _reserve, address _user)\n        external\n        view\n        returns (\n            uint256 currentATokenBalance,\n            uint256 currentBorrowBalance,\n            uint256 principalBorrowBalance,\n            uint256 borrowRateMode,\n            uint256 borrowRate,\n            uint256 liquidityRate,\n            uint256 originationFee,\n            uint256 variableBorrowIndex,\n            uint256 lastUpdateTimestamp,\n            bool usageAsCollateralEnabled\n        )\n    {\n        return dataProvider.getUserReserveData(_reserve, _user);\n    }\n\n    function getReserves() external view returns (address[] memory) {\n        return core.getReserves();\n    }\n\n    /**\n    * @dev internal function to save on code size for the onlyActiveReserve modifier\n    **/\n    function requireReserveActiveInternal(address _reserve) internal view {\n        require(core.getReserveIsActive(_reserve), \"Action requires an active reserve\");\n    }\n\n    /**\n    * @notice internal function to save on code size for the onlyUnfreezedReserve modifier\n    **/\n    function requireReserveNotFreezedInternal(address _reserve) internal view {\n        require(!core.getReserveIsFreezed(_reserve), \"Action requires an unfreezed reserve\");\n    }\n\n    /**\n    * @notice internal function to save on code size for the onlyAmountGreaterThanZero modifier\n    **/\n    function requireAmountGreaterThanZeroInternal(uint256 _amount) internal pure {\n        require(_amount > 0, \"Amount must be greater than 0\");\n    }\n}\n",
  "sourcePath": "/home/justin/freelancing/aave-protocol/contracts/lendingpool/LendingPool.sol",
  "compiler": {
    "name": "solc",
    "version": "0.5.16+commit.9c3226ce.Emscripten.clang"
  },
  "schemaVersion": "3.1.0",
  "updatedAt": "2020-07-07T15:31:40.678Z",
  "devdoc": {
    "author": "Aave*",
    "methods": {
      "borrow(address,uint256,uint256,uint16)": {
        "details": "Allows users to borrow a specific amount of the reserve currency, provided that the borrower already deposited enough collateral.",
        "params": {
          "_amount": "the amount to be borrowed",
          "_interestRateMode": "the interest rate mode at which the user wants to borrow. Can be 0 (STABLE) or 1 (VARIABLE)*",
          "_reserve": "the address of the reserve"
        }
      },
      "deposit(address,uint256,uint16)": {
        "details": "deposits The underlying asset into the reserve. A corresponding amount of the overlying asset (aTokens) is minted.",
        "params": {
          "_amount": "the amount to be deposited",
          "_referralCode": "integrators are assigned a referral code and can potentially receive rewards.*",
          "_reserve": "the address of the reserve"
        }
      },
      "flashLoan(address,address,uint256,bytes)": {
        "details": "allows smartcontracts to access the liquidity of the pool within one transaction, as long as the amount taken plus a fee is returned. NOTE There are security concerns for developers of flashloan receiver contracts that must be kept into consideration. For further details please visit https://developers.aave.com",
        "params": {
          "_amount": "the amount requested for this flashloan*",
          "_receiver": "The address of the contract receiving the funds. The receiver should implement the IFlashLoanReceiver interface.",
          "_reserve": "the address of the principal reserve"
        }
      },
      "getReserveConfigurationData(address)": {
        "details": "accessory functions to fetch data from the core contract*"
      },
      "initialize(address)": {
        "details": "this function is invoked by the proxy contract when the LendingPool contract is added to the AddressesProvider.",
        "params": {
          "_addressesProvider": "the address of the LendingPoolAddressesProvider registry*"
        }
      },
      "liquidationCall(address,address,address,uint256,bool)": {
        "details": "users can invoke this function to liquidate an undercollateralized position.",
        "params": {
          "_purchaseAmount": "the amount of principal that the liquidator wants to repay",
          "_receiveAToken": "true if the liquidators wants to receive the aTokens, false if he wants to receive the underlying asset directly*",
          "_reserve": "the address of the principal reserve",
          "_user": "the address of the borrower"
        }
      },
      "rebalanceStableBorrowRate(address,address)": {
        "details": "rebalances the stable interest rate of a user if current liquidity rate > user stable rate. this is regulated by Aave to ensure that the protocol is not abused, and the user is paying a fair rate. Anyone can call this function though.",
        "params": {
          "_reserve": "the address of the reserve",
          "_user": "the address of the user to be rebalanced*"
        }
      },
      "redeemUnderlying(address,address,uint256,uint256)": {
        "details": "Redeems the underlying amount of assets requested by _user. This function is executed by the overlying aToken contract in response to a redeem action.",
        "params": {
          "_amount": "the underlying amount to be redeemed*",
          "_reserve": "the address of the reserve",
          "_user": "the address of the user performing the action"
        }
      },
      "setUserUseReserveAsCollateral(address,bool)": {
        "details": "allows depositors to enable or disable a specific deposit as collateral.",
        "params": {
          "_reserve": "the address of the reserve",
          "_useAsCollateral": "true if the user wants to user the deposit as collateral, false otherwise.*"
        }
      },
      "swapBorrowRateMode(address)": {
        "details": "borrowers can user this function to swap between stable and variable borrow rate modes.",
        "params": {
          "_reserve": "the address of the reserve on which the user borrowed*"
        }
      }
    },
    "title": "LendingPool contract"
  },
  "userdoc": {
    "methods": {},
    "notice": "Implements the actions of the LendingPool, and exposes accessory methods to fetch the users and reserve data"
  }
}