{
  "contractName": "LendingPoolAddressesProvider",
  "abi": [
    {
      "anonymous": false,
      "inputs": [
        {
          "indexed": true,
          "internalType": "address",
          "name": "newAddress",
          "type": "address"
        }
      ],
      "name": "EthereumAddressUpdated",
      "type": "event"
    },
    {
      "anonymous": false,
      "inputs": [
        {
          "indexed": true,
          "internalType": "address",
          "name": "newAddress",
          "type": "address"
        }
      ],
      "name": "FeeProviderUpdated",
      "type": "event"
    },
    {
      "anonymous": false,
      "inputs": [
        {
          "indexed": true,
          "internalType": "address",
          "name": "newAddress",
          "type": "address"
        }
      ],
      "name": "LendingPoolConfiguratorUpdated",
      "type": "event"
    },
    {
      "anonymous": false,
      "inputs": [
        {
          "indexed": true,
          "internalType": "address",
          "name": "newAddress",
          "type": "address"
        }
      ],
      "name": "LendingPoolCoreUpdated",
      "type": "event"
    },
    {
      "anonymous": false,
      "inputs": [
        {
          "indexed": true,
          "internalType": "address",
          "name": "newAddress",
          "type": "address"
        }
      ],
      "name": "LendingPoolDataProviderUpdated",
      "type": "event"
    },
    {
      "anonymous": false,
      "inputs": [
        {
          "indexed": true,
          "internalType": "address",
          "name": "newAddress",
          "type": "address"
        }
      ],
      "name": "LendingPoolLiquidationManagerUpdated",
      "type": "event"
    },
    {
      "anonymous": false,
      "inputs": [
        {
          "indexed": true,
          "internalType": "address",
          "name": "newAddress",
          "type": "address"
        }
      ],
      "name": "LendingPoolManagerUpdated",
      "type": "event"
    },
    {
      "anonymous": false,
      "inputs": [
        {
          "indexed": true,
          "internalType": "address",
          "name": "newAddress",
          "type": "address"
        }
      ],
      "name": "LendingPoolParametersProviderUpdated",
      "type": "event"
    },
    {
      "anonymous": false,
      "inputs": [
        {
          "indexed": true,
          "internalType": "address",
          "name": "newAddress",
          "type": "address"
        }
      ],
      "name": "LendingPoolUpdated",
      "type": "event"
    },
    {
      "anonymous": false,
      "inputs": [
        {
          "indexed": true,
          "internalType": "address",
          "name": "newAddress",
          "type": "address"
        }
      ],
      "name": "LendingRateOracleUpdated",
      "type": "event"
    },
    {
      "anonymous": false,
      "inputs": [
        {
          "indexed": true,
          "internalType": "address",
          "name": "previousOwner",
          "type": "address"
        },
        {
          "indexed": true,
          "internalType": "address",
          "name": "newOwner",
          "type": "address"
        }
      ],
      "name": "OwnershipTransferred",
      "type": "event"
    },
    {
      "anonymous": false,
      "inputs": [
        {
          "indexed": true,
          "internalType": "address",
          "name": "newAddress",
          "type": "address"
        }
      ],
      "name": "PriceOracleUpdated",
      "type": "event"
    },
    {
      "anonymous": false,
      "inputs": [
        {
          "indexed": false,
          "internalType": "bytes32",
          "name": "id",
          "type": "bytes32"
        },
        {
          "indexed": true,
          "internalType": "address",
          "name": "newAddress",
          "type": "address"
        }
      ],
      "name": "ProxyCreated",
      "type": "event"
    },
    {
      "anonymous": false,
      "inputs": [
        {
          "indexed": true,
          "internalType": "address",
          "name": "newAddress",
          "type": "address"
        }
      ],
      "name": "TokenDistributorUpdated",
      "type": "event"
    },
    {
      "constant": true,
      "inputs": [
        {
          "internalType": "bytes32",
          "name": "_key",
          "type": "bytes32"
        }
      ],
      "name": "getAddress",
      "outputs": [
        {
          "internalType": "address",
          "name": "",
          "type": "address"
        }
      ],
      "payable": false,
      "stateMutability": "view",
      "type": "function"
    },
    {
      "constant": true,
      "inputs": [],
      "name": "isOwner",
      "outputs": [
        {
          "internalType": "bool",
          "name": "",
          "type": "bool"
        }
      ],
      "payable": false,
      "stateMutability": "view",
      "type": "function"
    },
    {
      "constant": true,
      "inputs": [],
      "name": "owner",
      "outputs": [
        {
          "internalType": "address",
          "name": "",
          "type": "address"
        }
      ],
      "payable": false,
      "stateMutability": "view",
      "type": "function"
    },
    {
      "constant": false,
      "inputs": [],
      "name": "renounceOwnership",
      "outputs": [],
      "payable": false,
      "stateMutability": "nonpayable",
      "type": "function"
    },
    {
      "constant": false,
      "inputs": [
        {
          "internalType": "address",
          "name": "newOwner",
          "type": "address"
        }
      ],
      "name": "transferOwnership",
      "outputs": [],
      "payable": false,
      "stateMutability": "nonpayable",
      "type": "function"
    },
    {
      "constant": true,
      "inputs": [],
      "name": "getLendingPool",
      "outputs": [
        {
          "internalType": "address",
          "name": "",
          "type": "address"
        }
      ],
      "payable": false,
      "stateMutability": "view",
      "type": "function"
    },
    {
      "constant": false,
      "inputs": [
        {
          "internalType": "address",
          "name": "_pool",
          "type": "address"
        }
      ],
      "name": "setLendingPoolImpl",
      "outputs": [],
      "payable": false,
      "stateMutability": "nonpayable",
      "type": "function"
    },
    {
      "constant": true,
      "inputs": [],
      "name": "getLendingPoolCore",
      "outputs": [
        {
          "internalType": "address payable",
          "name": "",
          "type": "address"
        }
      ],
      "payable": false,
      "stateMutability": "view",
      "type": "function"
    },
    {
      "constant": false,
      "inputs": [
        {
          "internalType": "address",
          "name": "_lendingPoolCore",
          "type": "address"
        }
      ],
      "name": "setLendingPoolCoreImpl",
      "outputs": [],
      "payable": false,
      "stateMutability": "nonpayable",
      "type": "function"
    },
    {
      "constant": true,
      "inputs": [],
      "name": "getLendingPoolConfigurator",
      "outputs": [
        {
          "internalType": "address",
          "name": "",
          "type": "address"
        }
      ],
      "payable": false,
      "stateMutability": "view",
      "type": "function"
    },
    {
      "constant": false,
      "inputs": [
        {
          "internalType": "address",
          "name": "_configurator",
          "type": "address"
        }
      ],
      "name": "setLendingPoolConfiguratorImpl",
      "outputs": [],
      "payable": false,
      "stateMutability": "nonpayable",
      "type": "function"
    },
    {
      "constant": true,
      "inputs": [],
      "name": "getLendingPoolDataProvider",
      "outputs": [
        {
          "internalType": "address",
          "name": "",
          "type": "address"
        }
      ],
      "payable": false,
      "stateMutability": "view",
      "type": "function"
    },
    {
      "constant": false,
      "inputs": [
        {
          "internalType": "address",
          "name": "_provider",
          "type": "address"
        }
      ],
      "name": "setLendingPoolDataProviderImpl",
      "outputs": [],
      "payable": false,
      "stateMutability": "nonpayable",
      "type": "function"
    },
    {
      "constant": true,
      "inputs": [],
      "name": "getLendingPoolParametersProvider",
      "outputs": [
        {
          "internalType": "address",
          "name": "",
          "type": "address"
        }
      ],
      "payable": false,
      "stateMutability": "view",
      "type": "function"
    },
    {
      "constant": false,
      "inputs": [
        {
          "internalType": "address",
          "name": "_parametersProvider",
          "type": "address"
        }
      ],
      "name": "setLendingPoolParametersProviderImpl",
      "outputs": [],
      "payable": false,
      "stateMutability": "nonpayable",
      "type": "function"
    },
    {
      "constant": true,
      "inputs": [],
      "name": "getFeeProvider",
      "outputs": [
        {
          "internalType": "address",
          "name": "",
          "type": "address"
        }
      ],
      "payable": false,
      "stateMutability": "view",
      "type": "function"
    },
    {
      "constant": false,
      "inputs": [
        {
          "internalType": "address",
          "name": "_feeProvider",
          "type": "address"
        }
      ],
      "name": "setFeeProviderImpl",
      "outputs": [],
      "payable": false,
      "stateMutability": "nonpayable",
      "type": "function"
    },
    {
      "constant": true,
      "inputs": [],
      "name": "getLendingPoolLiquidationManager",
      "outputs": [
        {
          "internalType": "address",
          "name": "",
          "type": "address"
        }
      ],
      "payable": false,
      "stateMutability": "view",
      "type": "function"
    },
    {
      "constant": false,
      "inputs": [
        {
          "internalType": "address",
          "name": "_manager",
          "type": "address"
        }
      ],
      "name": "setLendingPoolLiquidationManager",
      "outputs": [],
      "payable": false,
      "stateMutability": "nonpayable",
      "type": "function"
    },
    {
      "constant": true,
      "inputs": [],
      "name": "getLendingPoolManager",
      "outputs": [
        {
          "internalType": "address",
          "name": "",
          "type": "address"
        }
      ],
      "payable": false,
      "stateMutability": "view",
      "type": "function"
    },
    {
      "constant": false,
      "inputs": [
        {
          "internalType": "address",
          "name": "_lendingPoolManager",
          "type": "address"
        }
      ],
      "name": "setLendingPoolManager",
      "outputs": [],
      "payable": false,
      "stateMutability": "nonpayable",
      "type": "function"
    },
    {
      "constant": true,
      "inputs": [],
      "name": "getPriceOracle",
      "outputs": [
        {
          "internalType": "address",
          "name": "",
          "type": "address"
        }
      ],
      "payable": false,
      "stateMutability": "view",
      "type": "function"
    },
    {
      "constant": false,
      "inputs": [
        {
          "internalType": "address",
          "name": "_priceOracle",
          "type": "address"
        }
      ],
      "name": "setPriceOracle",
      "outputs": [],
      "payable": false,
      "stateMutability": "nonpayable",
      "type": "function"
    },
    {
      "constant": true,
      "inputs": [],
      "name": "getLendingRateOracle",
      "outputs": [
        {
          "internalType": "address",
          "name": "",
          "type": "address"
        }
      ],
      "payable": false,
      "stateMutability": "view",
      "type": "function"
    },
    {
      "constant": false,
      "inputs": [
        {
          "internalType": "address",
          "name": "_lendingRateOracle",
          "type": "address"
        }
      ],
      "name": "setLendingRateOracle",
      "outputs": [],
      "payable": false,
      "stateMutability": "nonpayable",
      "type": "function"
    },
    {
      "constant": true,
      "inputs": [],
      "name": "getTokenDistributor",
      "outputs": [
        {
          "internalType": "address",
          "name": "",
          "type": "address"
        }
      ],
      "payable": false,
      "stateMutability": "view",
      "type": "function"
    },
    {
      "constant": false,
      "inputs": [
        {
          "internalType": "address",
          "name": "_tokenDistributor",
          "type": "address"
        }
      ],
      "name": "setTokenDistributor",
      "outputs": [],
      "payable": false,
      "stateMutability": "nonpayable",
      "type": "function"
    }
  ],
  "bytecode": "0x608060405260006100146100b760201b60201c565b9050806000806101000a81548173ffffffffffffffffffffffffffffffffffffffff021916908373ffffffffffffffffffffffffffffffffffffffff1602179055508073ffffffffffffffffffffffffffffffffffffffff16600073ffffffffffffffffffffffffffffffffffffffff167f8be0079c531659141344cd1fd0a4f28419497f9722a3daafe3b4186f6b6457e060405160405180910390a3506100bf565b600033905090565b612acb806100ce6000396000f3fe608060405234801561001057600080fd5b50600436106101a95760003560e01c80635aef021f116100f9578063bfedc10311610097578063ee89129611610071578063ee891296146107ce578063f2fde38b14610818578063fbeefc3c1461085c578063fca513a8146108a6576101a9565b8063bfedc103146106fc578063c12542df14610740578063ed6ff76014610784576101a9565b806385c858b1116100d357806385c858b1146106025780638da5cb5b1461064c5780638f32d59b14610696578063a5eface2146106b8576101a9565b80635aef021f14610570578063715018a6146105b4578063820d1274146105be576101a9565b806333128d591161016657806340fdcadc1161014057806340fdcadc1461045a57806344ce375b1461049e578063530e784f146104e25780635834eb9a14610526576101a9565b806333128d59146103825780633618abba146103cc57806338280e6b14610416576101a9565b80630261bf8b146101ae57806304061d8e146101f85780631c8272041461024257806321f8a721146102865780632a62c636146102f45780632f58b80d14610338575b600080fd5b6101b66108f0565b604051808273ffffffffffffffffffffffffffffffffffffffff1673ffffffffffffffffffffffffffffffffffffffff16815260200191505060405180910390f35b610200610920565b604051808273ffffffffffffffffffffffffffffffffffffffff1673ffffffffffffffffffffffffffffffffffffffff16815260200191505060405180910390f35b6102846004803603602081101561025857600080fd5b81019080803573ffffffffffffffffffffffffffffffffffffffff169060200190929190505050610950565b005b6102b26004803603602081101561029c57600080fd5b8101908080359060200190929190505050610a3a565b604051808273ffffffffffffffffffffffffffffffffffffffff1673ffffffffffffffffffffffffffffffffffffffff16815260200191505060405180910390f35b6103366004803603602081101561030a57600080fd5b81019080803573ffffffffffffffffffffffffffffffffffffffff169060200190929190505050610a77565b005b610340610b61565b604051808273ffffffffffffffffffffffffffffffffffffffff1673ffffffffffffffffffffffffffffffffffffffff16815260200191505060405180910390f35b61038a610b91565b604051808273ffffffffffffffffffffffffffffffffffffffff1673ffffffffffffffffffffffffffffffffffffffff16815260200191505060405180910390f35b6103d4610bc1565b604051808273ffffffffffffffffffffffffffffffffffffffff1673ffffffffffffffffffffffffffffffffffffffff16815260200191505060405180910390f35b6104586004803603602081101561042c57600080fd5b81019080803573ffffffffffffffffffffffffffffffffffffffff169060200190929190505050610bf1565b005b61049c6004803603602081101561047057600080fd5b81019080803573ffffffffffffffffffffffffffffffffffffffff169060200190929190505050610cdb565b005b6104e0600480360360208110156104b457600080fd5b81019080803573ffffffffffffffffffffffffffffffffffffffff169060200190929190505050610dc5565b005b610524600480360360208110156104f857600080fd5b81019080803573ffffffffffffffffffffffffffffffffffffffff169060200190929190505050610eaf565b005b61052e610f99565b604051808273ffffffffffffffffffffffffffffffffffffffff1673ffffffffffffffffffffffffffffffffffffffff16815260200191505060405180910390f35b6105b26004803603602081101561058657600080fd5b81019080803573ffffffffffffffffffffffffffffffffffffffff169060200190929190505050610fc9565b005b6105bc6110b3565b005b610600600480360360208110156105d457600080fd5b81019080803573ffffffffffffffffffffffffffffffffffffffff1690602001909291905050506111ec565b005b61060a6112d6565b604051808273ffffffffffffffffffffffffffffffffffffffff1673ffffffffffffffffffffffffffffffffffffffff16815260200191505060405180910390f35b610654611306565b604051808273ffffffffffffffffffffffffffffffffffffffff1673ffffffffffffffffffffffffffffffffffffffff16815260200191505060405180910390f35b61069e61132f565b604051808215151515815260200191505060405180910390f35b6106fa600480360360208110156106ce57600080fd5b81019080803573ffffffffffffffffffffffffffffffffffffffff16906020019092919050505061138d565b005b61073e6004803603602081101561071257600080fd5b81019080803573ffffffffffffffffffffffffffffffffffffffff169060200190929190505050611477565b005b6107826004803603602081101561075657600080fd5b81019080803573ffffffffffffffffffffffffffffffffffffffff169060200190929190505050611561565b005b61078c61164b565b604051808273ffffffffffffffffffffffffffffffffffffffff1673ffffffffffffffffffffffffffffffffffffffff16815260200191505060405180910390f35b6107d6611680565b604051808273ffffffffffffffffffffffffffffffffffffffff1673ffffffffffffffffffffffffffffffffffffffff16815260200191505060405180910390f35b61085a6004803603602081101561082e57600080fd5b81019080803573ffffffffffffffffffffffffffffffffffffffff1690602001909291905050506116b0565b005b610864611736565b604051808273ffffffffffffffffffffffffffffffffffffffff1673ffffffffffffffffffffffffffffffffffffffff16815260200191505060405180910390f35b6108ae611766565b604051808273ffffffffffffffffffffffffffffffffffffffff1673ffffffffffffffffffffffffffffffffffffffff16815260200191505060405180910390f35b600061091b7f4c454e44494e475f504f4f4c0000000000000000000000000000000000000000610a3a565b905090565b600061094b7f504152414d45544552535f50524f564944455200000000000000000000000000610a3a565b905090565b61095861132f565b6109ca576040517f08c379a00000000000000000000000000000000000000000000000000000000081526004018080602001828103825260208152602001807f4f776e61626c653a2063616c6c6572206973206e6f7420746865206f776e657281525060200191505060405180910390fd5b6109f47f4c454e44494e475f504f4f4c5f434f524500000000000000000000000000000082611796565b8073ffffffffffffffffffffffffffffffffffffffff167f71c226bb2879778ca1298196bf7cc1256baee9d05b496c31ee627d35a471b5b760405160405180910390a250565b60006001600083815260200190815260200160002060009054906101000a900473ffffffffffffffffffffffffffffffffffffffff169050919050565b610a7f61132f565b610af1576040517f08c379a00000000000000000000000000000000000000000000000000000000081526004018080602001828103825260208152602001807f4f776e61626c653a2063616c6c6572206973206e6f7420746865206f776e657281525060200191505060405180910390fd5b610b1b7f4645455f50524f5649444552000000000000000000000000000000000000000082611796565b8073ffffffffffffffffffffffffffffffffffffffff167f18e1a55b8eff9c93921eecfa1462d6a8cbb80b3988db3eb14c039e43fdb2266160405160405180910390a250565b6000610b8c7f444154415f50524f564944455200000000000000000000000000000000000000610a3a565b905090565b6000610bbc7f4c454e44494e475f504f4f4c5f4d414e41474552000000000000000000000000610a3a565b905090565b6000610bec7f4c454e44494e475f524154455f4f5241434c4500000000000000000000000000610a3a565b905090565b610bf961132f565b610c6b576040517f08c379a00000000000000000000000000000000000000000000000000000000081526004018080602001828103825260208152602001807f4f776e61626c653a2063616c6c6572206973206e6f7420746865206f776e657281525060200191505060405180910390fd5b610c957f544f4b454e5f4449535452494255544f5200000000000000000000000000000082611b67565b8073ffffffffffffffffffffffffffffffffffffffff167fa8b48a56ec01f81c3615a21ec43e16b925c26293e0801cf6330427f2a687f05360405160405180910390a250565b610ce361132f565b610d55576040517f08c379a00000000000000000000000000000000000000000000000000000000081526004018080602001828103825260208152602001807f4f776e61626c653a2063616c6c6572206973206e6f7420746865206f776e657281525060200191505060405180910390fd5b610d7f7f4c454e44494e475f504f4f4c5f4d414e4147455200000000000000000000000082611b67565b8073ffffffffffffffffffffffffffffffffffffffff167fd5280c51185a38d36f7a0f5e56cac6248312bb70d0974782fa5a595127e0e08e60405160405180910390a250565b610dcd61132f565b610e3f576040517f08c379a00000000000000000000000000000000000000000000000000000000081526004018080602001828103825260208152602001807f4f776e61626c653a2063616c6c6572206973206e6f7420746865206f776e657281525060200191505060405180910390fd5b610e697f4c49515549444154494f4e5f4d414e414745520000000000000000000000000082611b67565b8073ffffffffffffffffffffffffffffffffffffffff167f1a76cb769b814bc038223da86932b099b20aae03473683e6d98f5c3554e2606460405160405180910390a250565b610eb761132f565b610f29576040517f08c379a00000000000000000000000000000000000000000000000000000000081526004018080602001828103825260208152602001807f4f776e61626c653a2063616c6c6572206973206e6f7420746865206f776e657281525060200191505060405180910390fd5b610f537f50524943455f4f5241434c45000000000000000000000000000000000000000082611b67565b8073ffffffffffffffffffffffffffffffffffffffff167fefe8ab924ca486283a79dc604baa67add51afb82af1db8ac386ebbba643cdffd60405160405180910390a250565b6000610fc47f4c49515549444154494f4e5f4d414e4147455200000000000000000000000000610a3a565b905090565b610fd161132f565b611043576040517f08c379a00000000000000000000000000000000000000000000000000000000081526004018080602001828103825260208152602001807f4f776e61626c653a2063616c6c6572206973206e6f7420746865206f776e657281525060200191505060405180910390fd5b61106d7f4c454e44494e475f504f4f4c000000000000000000000000000000000000000082611796565b8073ffffffffffffffffffffffffffffffffffffffff167fc4e6c6cdf28d0edbd8bcf071d724d33cc2e7a30be7d06443925656e9cb492aa460405160405180910390a250565b6110bb61132f565b61112d576040517f08c379a00000000000000000000000000000000000000000000000000000000081526004018080602001828103825260208152602001807f4f776e61626c653a2063616c6c6572206973206e6f7420746865206f776e657281525060200191505060405180910390fd5b600073ffffffffffffffffffffffffffffffffffffffff166000809054906101000a900473ffffffffffffffffffffffffffffffffffffffff1673ffffffffffffffffffffffffffffffffffffffff167f8be0079c531659141344cd1fd0a4f28419497f9722a3daafe3b4186f6b6457e060405160405180910390a360008060006101000a81548173ffffffffffffffffffffffffffffffffffffffff021916908373ffffffffffffffffffffffffffffffffffffffff160217905550565b6111f461132f565b611266576040517f08c379a00000000000000000000000000000000000000000000000000000000081526004018080602001828103825260208152602001807f4f776e61626c653a2063616c6c6572206973206e6f7420746865206f776e657281525060200191505060405180910390fd5b6112907f4c454e44494e475f524154455f4f5241434c450000000000000000000000000082611b67565b8073ffffffffffffffffffffffffffffffffffffffff167f5c29179aba6942020a8a2d38f65de02fb6b7f784e7f049ed3a3cab97621859b560405160405180910390a250565b60006113017f4c454e44494e475f504f4f4c5f434f4e464947555241544f5200000000000000610a3a565b905090565b60008060009054906101000a900473ffffffffffffffffffffffffffffffffffffffff16905090565b60008060009054906101000a900473ffffffffffffffffffffffffffffffffffffffff1673ffffffffffffffffffffffffffffffffffffffff16611371611bbd565b73ffffffffffffffffffffffffffffffffffffffff1614905090565b61139561132f565b611407576040517f08c379a00000000000000000000000000000000000000000000000000000000081526004018080602001828103825260208152602001807f4f776e61626c653a2063616c6c6572206973206e6f7420746865206f776e657281525060200191505060405180910390fd5b6114317f504152414d45544552535f50524f56494445520000000000000000000000000082611796565b8073ffffffffffffffffffffffffffffffffffffffff167fce16ea9b2fd7cadddd0f7359971028f50b5ddba33dfae1a9bdea956fabb1e28060405160405180910390a250565b61147f61132f565b6114f1576040517f08c379a00000000000000000000000000000000000000000000000000000000081526004018080602001828103825260208152602001807f4f776e61626c653a2063616c6c6572206973206e6f7420746865206f776e657281525060200191505060405180910390fd5b61151b7f444154415f50524f56494445520000000000000000000000000000000000000082611796565b8073ffffffffffffffffffffffffffffffffffffffff167f07890d7d10db37434d76ee4f2928fb2dc66227c3b3391206aced4f7bcb59cdb060405160405180910390a250565b61156961132f565b6115db576040517f08c379a00000000000000000000000000000000000000000000000000000000081526004018080602001828103825260208152602001807f4f776e61626c653a2063616c6c6572206973206e6f7420746865206f776e657281525060200191505060405180910390fd5b6116057f4c454e44494e475f504f4f4c5f434f4e464947555241544f520000000000000082611796565b8073ffffffffffffffffffffffffffffffffffffffff167fdfabe479bad36782fb1e77fbfddd4e382671713527e4786cfc93a022ae76372960405160405180910390a250565b6000806116777f4c454e44494e475f504f4f4c5f434f5245000000000000000000000000000000610a3a565b90508091505090565b60006116ab7f544f4b454e5f4449535452494255544f52000000000000000000000000000000610a3a565b905090565b6116b861132f565b61172a576040517f08c379a00000000000000000000000000000000000000000000000000000000081526004018080602001828103825260208152602001807f4f776e61626c653a2063616c6c6572206973206e6f7420746865206f776e657281525060200191505060405180910390fd5b61173381611bc5565b50565b60006117617f4645455f50524f56494445520000000000000000000000000000000000000000610a3a565b905090565b60006117917f50524943455f4f5241434c450000000000000000000000000000000000000000610a3a565b905090565b60006117a183610a3a565b90506000819050606030604051602401808273ffffffffffffffffffffffffffffffffffffffff1673ffffffffffffffffffffffffffffffffffffffff1681526020019150506040516020818303038152906040527fc4d66de8000000000000000000000000000000000000000000000000000000007bffffffffffffffffffffffffffffffffffffffffffffffffffffffff19166020820180517bffffffffffffffffffffffffffffffffffffffffffffffffffffffff83818316178352505050509050600073ffffffffffffffffffffffffffffffffffffffff168373ffffffffffffffffffffffffffffffffffffffff161415611a5b576040516118a790611d09565b604051809103906000f0801580156118c3573d6000803e3d6000fd5b5091508173ffffffffffffffffffffffffffffffffffffffff1663cf7a1d778530846040518463ffffffff1660e01b8152600401808473ffffffffffffffffffffffffffffffffffffffff1673ffffffffffffffffffffffffffffffffffffffff1681526020018373ffffffffffffffffffffffffffffffffffffffff1673ffffffffffffffffffffffffffffffffffffffff16815260200180602001828103825283818151815260200191508051906020019080838360005b8381101561199857808201518184015260208101905061197d565b50505050905090810190601f1680156119c55780820380516001836020036101000a031916815260200191505b50945050505050600060405180830381600087803b1580156119e657600080fd5b505af11580156119fa573d6000803e3d6000fd5b50505050611a088583611b67565b8173ffffffffffffffffffffffffffffffffffffffff167f1eb35cb4b5bbb23d152f3b4016a5a46c37a07ae930ed0956aba951e231142438866040518082815260200191505060405180910390a2611b60565b8173ffffffffffffffffffffffffffffffffffffffff16634f1ef28685836040518363ffffffff1660e01b8152600401808373ffffffffffffffffffffffffffffffffffffffff1673ffffffffffffffffffffffffffffffffffffffff16815260200180602001828103825283818151815260200191508051906020019080838360005b83811015611afa578082015181840152602081019050611adf565b50505050905090810190601f168015611b275780820380516001836020036101000a031916815260200191505b509350505050600060405180830381600087803b158015611b4757600080fd5b505af1158015611b5b573d6000803e3d6000fd5b505050505b5050505050565b806001600084815260200190815260200160002060006101000a81548173ffffffffffffffffffffffffffffffffffffffff021916908373ffffffffffffffffffffffffffffffffffffffff1602179055505050565b600033905090565b600073ffffffffffffffffffffffffffffffffffffffff168173ffffffffffffffffffffffffffffffffffffffff161415611c4b576040517f08c379a0000000000000000000000000000000000000000000000000000000008152600401808060200182810382526026815260200180612a716026913960400191505060405180910390fd5b8073ffffffffffffffffffffffffffffffffffffffff166000809054906101000a900473ffffffffffffffffffffffffffffffffffffffff1673ffffffffffffffffffffffffffffffffffffffff167f8be0079c531659141344cd1fd0a4f28419497f9722a3daafe3b4186f6b6457e060405160405180910390a3806000806101000a81548173ffffffffffffffffffffffffffffffffffffffff021916908373ffffffffffffffffffffffffffffffffffffffff16021790555050565b610d5a80611d178339019056fe608060405234801561001057600080fd5b50610d3a806100206000396000f3fe6080604052600436106100705760003560e01c80638f2839701161004e5780638f283970146101bb578063cf7a1d771461020c578063d1f5789414610307578063f851a440146103e257610070565b80633659cfe61461007a5780634f1ef286146100cb5780635c60da1b14610164575b610078610439565b005b34801561008657600080fd5b506100c96004803603602081101561009d57600080fd5b81019080803573ffffffffffffffffffffffffffffffffffffffff169060200190929190505050610453565b005b610162600480360360408110156100e157600080fd5b81019080803573ffffffffffffffffffffffffffffffffffffffff1690602001909291908035906020019064010000000081111561011e57600080fd5b82018360208201111561013057600080fd5b8035906020019184600183028401116401000000008311171561015257600080fd5b90919293919293905050506104a8565b005b34801561017057600080fd5b5061017961057e565b604051808273ffffffffffffffffffffffffffffffffffffffff1673ffffffffffffffffffffffffffffffffffffffff16815260200191505060405180910390f35b3480156101c757600080fd5b5061020a600480360360208110156101de57600080fd5b81019080803573ffffffffffffffffffffffffffffffffffffffff1690602001909291905050506105d6565b005b6103056004803603606081101561022257600080fd5b81019080803573ffffffffffffffffffffffffffffffffffffffff169060200190929190803573ffffffffffffffffffffffffffffffffffffffff1690602001909291908035906020019064010000000081111561027f57600080fd5b82018360208201111561029157600080fd5b803590602001918460018302840111640100000000831117156102b357600080fd5b91908080601f016020809104026020016040519081016040528093929190818152602001838380828437600081840152601f19601f82011690508083019250505050505050919291929050505061074f565b005b6103e06004803603604081101561031d57600080fd5b81019080803573ffffffffffffffffffffffffffffffffffffffff1690602001909291908035906020019064010000000081111561035a57600080fd5b82018360208201111561036c57600080fd5b8035906020019184600183028401116401000000008311171561038e57600080fd5b91908080601f016020809104026020016040519081016040528093929190818152602001838380828437600081840152601f19601f820116905080830192505050505050509192919290505050610811565b005b3480156103ee57600080fd5b506103f7610994565b604051808273ffffffffffffffffffffffffffffffffffffffff1673ffffffffffffffffffffffffffffffffffffffff16815260200191505060405180910390f35b6104416109ec565b61045161044c610a82565b610ab3565b565b61045b610ad9565b73ffffffffffffffffffffffffffffffffffffffff163373ffffffffffffffffffffffffffffffffffffffff16141561049c5761049781610b0a565b6104a5565b6104a4610439565b5b50565b6104b0610ad9565b73ffffffffffffffffffffffffffffffffffffffff163373ffffffffffffffffffffffffffffffffffffffff161415610570576104ec83610b0a565b60008373ffffffffffffffffffffffffffffffffffffffff168383604051808383808284378083019250505092505050600060405180830381855af49150503d8060008114610557576040519150601f19603f3d011682016040523d82523d6000602084013e61055c565b606091505b505090508061056a57600080fd5b50610579565b610578610439565b5b505050565b6000610588610ad9565b73ffffffffffffffffffffffffffffffffffffffff163373ffffffffffffffffffffffffffffffffffffffff1614156105ca576105c3610a82565b90506105d3565b6105d2610439565b5b90565b6105de610ad9565b73ffffffffffffffffffffffffffffffffffffffff163373ffffffffffffffffffffffffffffffffffffffff16141561074357600073ffffffffffffffffffffffffffffffffffffffff168173ffffffffffffffffffffffffffffffffffffffff161415610697576040517f08c379a0000000000000000000000000000000000000000000000000000000008152600401808060200182810382526036815260200180610c956036913960400191505060405180910390fd5b7f7e644d79422f17c01e4894b5f4f588d331ebfa28653d42ae832dc59e38c9798f6106c0610ad9565b82604051808373ffffffffffffffffffffffffffffffffffffffff1673ffffffffffffffffffffffffffffffffffffffff1681526020018273ffffffffffffffffffffffffffffffffffffffff1673ffffffffffffffffffffffffffffffffffffffff1681526020019250505060405180910390a161073e81610b59565b61074c565b61074b610439565b5b50565b600073ffffffffffffffffffffffffffffffffffffffff1661076f610a82565b73ffffffffffffffffffffffffffffffffffffffff161461078f57600080fd5b6107998382610811565b600160405180807f656970313936372e70726f78792e61646d696e000000000000000000000000008152506013019050604051809103902060001c0360001b7fb53127684a568b3173ae13b9f8a6016e243e63b6e8ee1178d6a717850b5d610360001b1461080357fe5b61080c82610b59565b505050565b600073ffffffffffffffffffffffffffffffffffffffff16610831610a82565b73ffffffffffffffffffffffffffffffffffffffff161461085157600080fd5b600160405180807f656970313936372e70726f78792e696d706c656d656e746174696f6e00000000815250601c019050604051809103902060001c0360001b7f360894a13ba1a3210667c828492db98dca3e2076cc3735a920a3ca505d382bbc60001b146108bb57fe5b6108c482610b88565b6000815111156109905760008273ffffffffffffffffffffffffffffffffffffffff16826040518082805190602001908083835b6020831061091b57805182526020820191506020810190506020830392506108f8565b6001836020036101000a038019825116818451168082178552505050505050905001915050600060405180830381855af49150503d806000811461097b576040519150601f19603f3d011682016040523d82523d6000602084013e610980565b606091505b505090508061098e57600080fd5b505b5050565b600061099e610ad9565b73ffffffffffffffffffffffffffffffffffffffff163373ffffffffffffffffffffffffffffffffffffffff1614156109e0576109d9610ad9565b90506109e9565b6109e8610439565b5b90565b6109f4610ad9565b73ffffffffffffffffffffffffffffffffffffffff163373ffffffffffffffffffffffffffffffffffffffff161415610a78576040517f08c379a0000000000000000000000000000000000000000000000000000000008152600401808060200182810382526032815260200180610c636032913960400191505060405180910390fd5b610a80610c15565b565b6000807f360894a13ba1a3210667c828492db98dca3e2076cc3735a920a3ca505d382bbc60001b9050805491505090565b3660008037600080366000845af43d6000803e8060008114610ad4573d6000f35b3d6000fd5b6000807fb53127684a568b3173ae13b9f8a6016e243e63b6e8ee1178d6a717850b5d610360001b9050805491505090565b610b1381610b88565b8073ffffffffffffffffffffffffffffffffffffffff167fbc7cd75a20ee27fd9adebab32041f755214dbc6bffa90cc0225b39da2e5c2d3b60405160405180910390a250565b60007fb53127684a568b3173ae13b9f8a6016e243e63b6e8ee1178d6a717850b5d610360001b90508181555050565b610b9181610c17565b610be6576040517f08c379a000000000000000000000000000000000000000000000000000000000815260040180806020018281038252603b815260200180610ccb603b913960400191505060405180910390fd5b60007f360894a13ba1a3210667c828492db98dca3e2076cc3735a920a3ca505d382bbc60001b90508181555050565b565b60008060007fc5d2460186f7233c927e7db2dcc703c0e500b653ca82273b7bfad8045d85a47060001b9050833f9150808214158015610c5957506000801b8214155b9250505091905056fe43616e6e6f742063616c6c2066616c6c6261636b2066756e6374696f6e2066726f6d207468652070726f78792061646d696e43616e6e6f74206368616e6765207468652061646d696e206f6620612070726f787920746f20746865207a65726f206164647265737343616e6e6f742073657420612070726f787920696d706c656d656e746174696f6e20746f2061206e6f6e2d636f6e74726163742061646472657373a265627a7a7231582003b40aea747b73e5634c4d14f8e032692a3fc23d662a18c810b2bc582ad6bf3664736f6c634300051000324f776e61626c653a206e6577206f776e657220697320746865207a65726f2061646472657373a265627a7a72315820b42c42bad61ba24d804873e3fa43712e1385005edfdb5842635663be8cf6487864736f6c63430005100032",
  "source": "pragma solidity ^0.5.0;\n\nimport \"openzeppelin-solidity/contracts/ownership/Ownable.sol\";\nimport \"../libraries/openzeppelin-upgradeability/InitializableAdminUpgradeabilityProxy.sol\";\n\nimport \"./AddressStorage.sol\";\nimport \"../interfaces/ILendingPoolAddressesProvider.sol\";\n\n/**\n* @title LendingPoolAddressesProvider contract\n* @notice Is the main registry of the protocol. All the different components of the protocol are accessible\n* through the addresses provider.\n* @author Aave\n**/\n\ncontract LendingPoolAddressesProvider is Ownable, ILendingPoolAddressesProvider, AddressStorage {\n    //events\n    event LendingPoolUpdated(address indexed newAddress);\n    event LendingPoolCoreUpdated(address indexed newAddress);\n    event LendingPoolParametersProviderUpdated(address indexed newAddress);\n    event LendingPoolManagerUpdated(address indexed newAddress);\n    event LendingPoolConfiguratorUpdated(address indexed newAddress);\n    event LendingPoolLiquidationManagerUpdated(address indexed newAddress);\n    event LendingPoolDataProviderUpdated(address indexed newAddress);\n    event EthereumAddressUpdated(address indexed newAddress);\n    event PriceOracleUpdated(address indexed newAddress);\n    event LendingRateOracleUpdated(address indexed newAddress);\n    event FeeProviderUpdated(address indexed newAddress);\n    event TokenDistributorUpdated(address indexed newAddress);\n\n    event ProxyCreated(bytes32 id, address indexed newAddress);\n\n    bytes32 private constant LENDING_POOL = \"LENDING_POOL\";\n    bytes32 private constant LENDING_POOL_CORE = \"LENDING_POOL_CORE\";\n    bytes32 private constant LENDING_POOL_CONFIGURATOR = \"LENDING_POOL_CONFIGURATOR\";\n    bytes32 private constant LENDING_POOL_PARAMETERS_PROVIDER = \"PARAMETERS_PROVIDER\";\n    bytes32 private constant LENDING_POOL_MANAGER = \"LENDING_POOL_MANAGER\";\n    bytes32 private constant LENDING_POOL_LIQUIDATION_MANAGER = \"LIQUIDATION_MANAGER\";\n    bytes32 private constant LENDING_POOL_FLASHLOAN_PROVIDER = \"FLASHLOAN_PROVIDER\";\n    bytes32 private constant DATA_PROVIDER = \"DATA_PROVIDER\";\n    bytes32 private constant ETHEREUM_ADDRESS = \"ETHEREUM_ADDRESS\";\n    bytes32 private constant PRICE_ORACLE = \"PRICE_ORACLE\";\n    bytes32 private constant LENDING_RATE_ORACLE = \"LENDING_RATE_ORACLE\";\n    bytes32 private constant FEE_PROVIDER = \"FEE_PROVIDER\";\n    bytes32 private constant WALLET_BALANCE_PROVIDER = \"WALLET_BALANCE_PROVIDER\";\n    bytes32 private constant TOKEN_DISTRIBUTOR = \"TOKEN_DISTRIBUTOR\";\n\n\n    /**\n    * @dev returns the address of the LendingPool proxy\n    * @return the lending pool proxy address\n    **/\n    function getLendingPool() public view returns (address) {\n        return getAddress(LENDING_POOL);\n    }\n\n\n    /**\n    * @dev updates the implementation of the lending pool\n    * @param _pool the new lending pool implementation\n    **/\n    function setLendingPoolImpl(address _pool) public onlyOwner {\n        updateImplInternal(LENDING_POOL, _pool);\n        emit LendingPoolUpdated(_pool);\n    }\n\n    /**\n    * @dev returns the address of the LendingPoolCore proxy\n    * @return the lending pool core proxy address\n     */\n    function getLendingPoolCore() public view returns (address payable) {\n        address payable core = address(uint160(getAddress(LENDING_POOL_CORE)));\n        return core;\n    }\n\n    /**\n    * @dev updates the implementation of the lending pool core\n    * @param _lendingPoolCore the new lending pool core implementation\n    **/\n    function setLendingPoolCoreImpl(address _lendingPoolCore) public onlyOwner {\n        updateImplInternal(LENDING_POOL_CORE, _lendingPoolCore);\n        emit LendingPoolCoreUpdated(_lendingPoolCore);\n    }\n\n    /**\n    * @dev returns the address of the LendingPoolConfigurator proxy\n    * @return the lending pool configurator proxy address\n    **/\n    function getLendingPoolConfigurator() public view returns (address) {\n        return getAddress(LENDING_POOL_CONFIGURATOR);\n    }\n\n    /**\n    * @dev updates the implementation of the lending pool configurator\n    * @param _configurator the new lending pool configurator implementation\n    **/\n    function setLendingPoolConfiguratorImpl(address _configurator) public onlyOwner {\n        updateImplInternal(LENDING_POOL_CONFIGURATOR, _configurator);\n        emit LendingPoolConfiguratorUpdated(_configurator);\n    }\n\n    /**\n    * @dev returns the address of the LendingPoolDataProvider proxy\n    * @return the lending pool data provider proxy address\n     */\n    function getLendingPoolDataProvider() public view returns (address) {\n        return getAddress(DATA_PROVIDER);\n    }\n\n    /**\n    * @dev updates the implementation of the lending pool data provider\n    * @param _provider the new lending pool data provider implementation\n    **/\n    function setLendingPoolDataProviderImpl(address _provider) public onlyOwner {\n        updateImplInternal(DATA_PROVIDER, _provider);\n        emit LendingPoolDataProviderUpdated(_provider);\n    }\n\n    /**\n    * @dev returns the address of the LendingPoolParametersProvider proxy\n    * @return the address of the Lending pool parameters provider proxy\n    **/\n    function getLendingPoolParametersProvider() public view returns (address) {\n        return getAddress(LENDING_POOL_PARAMETERS_PROVIDER);\n    }\n\n    /**\n    * @dev updates the implementation of the lending pool parameters provider\n    * @param _parametersProvider the new lending pool parameters provider implementation\n    **/\n    function setLendingPoolParametersProviderImpl(address _parametersProvider) public onlyOwner {\n        updateImplInternal(LENDING_POOL_PARAMETERS_PROVIDER, _parametersProvider);\n        emit LendingPoolParametersProviderUpdated(_parametersProvider);\n    }\n\n    /**\n    * @dev returns the address of the FeeProvider proxy\n    * @return the address of the Fee provider proxy\n    **/\n    function getFeeProvider() public view returns (address) {\n        return getAddress(FEE_PROVIDER);\n    }\n\n    /**\n    * @dev updates the implementation of the FeeProvider proxy\n    * @param _feeProvider the new lending pool fee provider implementation\n    **/\n    function setFeeProviderImpl(address _feeProvider) public onlyOwner {\n        updateImplInternal(FEE_PROVIDER, _feeProvider);\n        emit FeeProviderUpdated(_feeProvider);\n    }\n\n    /**\n    * @dev returns the address of the LendingPoolLiquidationManager. Since the manager is used\n    * through delegateCall within the LendingPool contract, the proxy contract pattern does not work properly hence\n    * the addresses are changed directly.\n    * @return the address of the Lending pool liquidation manager\n    **/\n\n    function getLendingPoolLiquidationManager() public view returns (address) {\n        return getAddress(LENDING_POOL_LIQUIDATION_MANAGER);\n    }\n\n    /**\n    * @dev updates the address of the Lending pool liquidation manager\n    * @param _manager the new lending pool liquidation manager address\n    **/\n    function setLendingPoolLiquidationManager(address _manager) public onlyOwner {\n        _setAddress(LENDING_POOL_LIQUIDATION_MANAGER, _manager);\n        emit LendingPoolLiquidationManagerUpdated(_manager);\n    }\n\n    /**\n    * @dev the functions below are storing specific addresses that are outside the context of the protocol\n    * hence the upgradable proxy pattern is not used\n    **/\n\n\n    function getLendingPoolManager() public view returns (address) {\n        return getAddress(LENDING_POOL_MANAGER);\n    }\n\n    function setLendingPoolManager(address _lendingPoolManager) public onlyOwner {\n        _setAddress(LENDING_POOL_MANAGER, _lendingPoolManager);\n        emit LendingPoolManagerUpdated(_lendingPoolManager);\n    }\n\n    function getPriceOracle() public view returns (address) {\n        return getAddress(PRICE_ORACLE);\n    }\n\n    function setPriceOracle(address _priceOracle) public onlyOwner {\n        _setAddress(PRICE_ORACLE, _priceOracle);\n        emit PriceOracleUpdated(_priceOracle);\n    }\n\n    function getLendingRateOracle() public view returns (address) {\n        return getAddress(LENDING_RATE_ORACLE);\n    }\n\n    function setLendingRateOracle(address _lendingRateOracle) public onlyOwner {\n        _setAddress(LENDING_RATE_ORACLE, _lendingRateOracle);\n        emit LendingRateOracleUpdated(_lendingRateOracle);\n    }\n\n\n    function getTokenDistributor() public view returns (address) {\n        return getAddress(TOKEN_DISTRIBUTOR);\n    }\n\n    function setTokenDistributor(address _tokenDistributor) public onlyOwner {\n        _setAddress(TOKEN_DISTRIBUTOR, _tokenDistributor);\n        emit TokenDistributorUpdated(_tokenDistributor);\n    }\n\n\n    /**\n    * @dev internal function to update the implementation of a specific component of the protocol\n    * @param _id the id of the contract to be updated\n    * @param _newAddress the address of the new implementation\n    **/\n    function updateImplInternal(bytes32 _id, address _newAddress) internal {\n        address payable proxyAddress = address(uint160(getAddress(_id)));\n\n        InitializableAdminUpgradeabilityProxy proxy = InitializableAdminUpgradeabilityProxy(proxyAddress);\n        bytes memory params = abi.encodeWithSignature(\"initialize(address)\", address(this));\n\n        if (proxyAddress == address(0)) {\n            proxy = new InitializableAdminUpgradeabilityProxy();\n            proxy.initialize(_newAddress, address(this), params);\n            _setAddress(_id, address(proxy));\n            emit ProxyCreated(_id, address(proxy));\n        } else {\n            proxy.upgradeToAndCall(_newAddress, params);\n        }\n\n    }\n}\n",
  "sourcePath": "/home/justin/freelancing/aave-protocol/contracts/configuration/LendingPoolAddressesProvider.sol",
  "compiler": {
    "name": "solc",
    "version": "0.5.16+commit.9c3226ce.Emscripten.clang"
  },
  "schemaVersion": "3.1.0",
  "updatedAt": "2020-07-07T15:31:40.658Z",
  "devdoc": {
    "author": "Aave*",
    "methods": {
      "getFeeProvider()": {
        "details": "returns the address of the FeeProvider proxy",
        "return": "the address of the Fee provider proxy*"
      },
      "getLendingPool()": {
        "details": "returns the address of the LendingPool proxy",
        "return": "the lending pool proxy address*"
      },
      "getLendingPoolConfigurator()": {
        "details": "returns the address of the LendingPoolConfigurator proxy",
        "return": "the lending pool configurator proxy address*"
      },
      "getLendingPoolCore()": {
        "details": "returns the address of the LendingPoolCore proxy",
        "return": "the lending pool core proxy address"
      },
      "getLendingPoolDataProvider()": {
        "details": "returns the address of the LendingPoolDataProvider proxy",
        "return": "the lending pool data provider proxy address"
      },
      "getLendingPoolLiquidationManager()": {
        "details": "returns the address of the LendingPoolLiquidationManager. Since the manager is used through delegateCall within the LendingPool contract, the proxy contract pattern does not work properly hence the addresses are changed directly.",
        "return": "the address of the Lending pool liquidation manager*"
      },
      "getLendingPoolManager()": {
        "details": "the functions below are storing specific addresses that are outside the context of the protocol hence the upgradable proxy pattern is not used*"
      },
      "getLendingPoolParametersProvider()": {
        "details": "returns the address of the LendingPoolParametersProvider proxy",
        "return": "the address of the Lending pool parameters provider proxy*"
      },
      "isOwner()": {
        "details": "Returns true if the caller is the current owner."
      },
      "owner()": {
        "details": "Returns the address of the current owner."
      },
      "renounceOwnership()": {
        "details": "Leaves the contract without owner. It will not be possible to call `onlyOwner` functions anymore. Can only be called by the current owner.     * NOTE: Renouncing ownership will leave the contract without an owner, thereby removing any functionality that is only available to the owner."
      },
      "setFeeProviderImpl(address)": {
        "details": "updates the implementation of the FeeProvider proxy",
        "params": {
          "_feeProvider": "the new lending pool fee provider implementation*"
        }
      },
      "setLendingPoolConfiguratorImpl(address)": {
        "details": "updates the implementation of the lending pool configurator",
        "params": {
          "_configurator": "the new lending pool configurator implementation*"
        }
      },
      "setLendingPoolCoreImpl(address)": {
        "details": "updates the implementation of the lending pool core",
        "params": {
          "_lendingPoolCore": "the new lending pool core implementation*"
        }
      },
      "setLendingPoolDataProviderImpl(address)": {
        "details": "updates the implementation of the lending pool data provider",
        "params": {
          "_provider": "the new lending pool data provider implementation*"
        }
      },
      "setLendingPoolImpl(address)": {
        "details": "updates the implementation of the lending pool",
        "params": {
          "_pool": "the new lending pool implementation*"
        }
      },
      "setLendingPoolLiquidationManager(address)": {
        "details": "updates the address of the Lending pool liquidation manager",
        "params": {
          "_manager": "the new lending pool liquidation manager address*"
        }
      },
      "setLendingPoolParametersProviderImpl(address)": {
        "details": "updates the implementation of the lending pool parameters provider",
        "params": {
          "_parametersProvider": "the new lending pool parameters provider implementation*"
        }
      },
      "transferOwnership(address)": {
        "details": "Transfers ownership of the contract to a new account (`newOwner`). Can only be called by the current owner."
      }
    },
    "title": "LendingPoolAddressesProvider contract"
  },
  "userdoc": {
    "methods": {},
    "notice": "Is the main registry of the protocol. All the different components of the protocol are accessible through the addresses provider."
  }
}