{
  "contractName": "LendingPoolConfigurator",
  "abi": [
    {
      "anonymous": false,
      "inputs": [
        {
          "indexed": true,
          "internalType": "address",
          "name": "_reserve",
          "type": "address"
        }
      ],
      "name": "BorrowingDisabledOnReserve",
      "type": "event"
    },
    {
      "anonymous": false,
      "inputs": [
        {
          "indexed": false,
          "internalType": "address",
          "name": "_reserve",
          "type": "address"
        },
        {
          "indexed": false,
          "internalType": "bool",
          "name": "_stableRateEnabled",
          "type": "bool"
        }
      ],
      "name": "BorrowingEnabledOnReserve",
      "type": "event"
    },
    {
      "anonymous": false,
      "inputs": [
        {
          "indexed": true,
          "internalType": "address",
          "name": "_reserve",
          "type": "address"
        }
      ],
      "name": "ReserveActivated",
      "type": "event"
    },
    {
      "anonymous": false,
      "inputs": [
        {
          "indexed": false,
          "internalType": "address",
          "name": "_reserve",
          "type": "address"
        },
        {
          "indexed": false,
          "internalType": "uint256",
          "name": "_ltv",
          "type": "uint256"
        }
      ],
      "name": "ReserveBaseLtvChanged",
      "type": "event"
    },
    {
      "anonymous": false,
      "inputs": [
        {
          "indexed": true,
          "internalType": "address",
          "name": "_reserve",
          "type": "address"
        }
      ],
      "name": "ReserveDeactivated",
      "type": "event"
    },
    {
      "anonymous": false,
      "inputs": [
        {
          "indexed": false,
          "internalType": "address",
          "name": "_reserve",
          "type": "address"
        },
        {
          "indexed": false,
          "internalType": "uint256",
          "name": "_decimals",
          "type": "uint256"
        }
      ],
      "name": "ReserveDecimalsChanged",
      "type": "event"
    },
    {
      "anonymous": false,
      "inputs": [
        {
          "indexed": true,
          "internalType": "address",
          "name": "_reserve",
          "type": "address"
        }
      ],
      "name": "ReserveDisabledAsCollateral",
      "type": "event"
    },
    {
      "anonymous": false,
      "inputs": [
        {
          "indexed": true,
          "internalType": "address",
          "name": "_reserve",
          "type": "address"
        },
        {
          "indexed": false,
          "internalType": "uint256",
          "name": "_ltv",
          "type": "uint256"
        },
        {
          "indexed": false,
          "internalType": "uint256",
          "name": "_liquidationThreshold",
          "type": "uint256"
        },
        {
          "indexed": false,
          "internalType": "uint256",
          "name": "_liquidationBonus",
          "type": "uint256"
        }
      ],
      "name": "ReserveEnabledAsCollateral",
      "type": "event"
    },
    {
      "anonymous": false,
      "inputs": [
        {
          "indexed": true,
          "internalType": "address",
          "name": "_reserve",
          "type": "address"
        }
      ],
      "name": "ReserveFreezed",
      "type": "event"
    },
    {
      "anonymous": false,
      "inputs": [
        {
          "indexed": true,
          "internalType": "address",
          "name": "_reserve",
          "type": "address"
        },
        {
          "indexed": true,
          "internalType": "address",
          "name": "_aToken",
          "type": "address"
        },
        {
          "indexed": false,
          "internalType": "address",
          "name": "_interestRateStrategyAddress",
          "type": "address"
        }
      ],
      "name": "ReserveInitialized",
      "type": "event"
    },
    {
      "anonymous": false,
      "inputs": [
        {
          "indexed": false,
          "internalType": "address",
          "name": "_reserve",
          "type": "address"
        },
        {
          "indexed": false,
          "internalType": "address",
          "name": "_strategy",
          "type": "address"
        }
      ],
      "name": "ReserveInterestRateStrategyChanged",
      "type": "event"
    },
    {
      "anonymous": false,
      "inputs": [
        {
          "indexed": false,
          "internalType": "address",
          "name": "_reserve",
          "type": "address"
        },
        {
          "indexed": false,
          "internalType": "uint256",
          "name": "_bonus",
          "type": "uint256"
        }
      ],
      "name": "ReserveLiquidationBonusChanged",
      "type": "event"
    },
    {
      "anonymous": false,
      "inputs": [
        {
          "indexed": false,
          "internalType": "address",
          "name": "_reserve",
          "type": "address"
        },
        {
          "indexed": false,
          "internalType": "uint256",
          "name": "_threshold",
          "type": "uint256"
        }
      ],
      "name": "ReserveLiquidationThresholdChanged",
      "type": "event"
    },
    {
      "anonymous": false,
      "inputs": [
        {
          "indexed": true,
          "internalType": "address",
          "name": "_reserve",
          "type": "address"
        }
      ],
      "name": "ReserveRemoved",
      "type": "event"
    },
    {
      "anonymous": false,
      "inputs": [
        {
          "indexed": true,
          "internalType": "address",
          "name": "_reserve",
          "type": "address"
        }
      ],
      "name": "ReserveUnfreezed",
      "type": "event"
    },
    {
      "anonymous": false,
      "inputs": [
        {
          "indexed": true,
          "internalType": "address",
          "name": "_reserve",
          "type": "address"
        }
      ],
      "name": "StableRateDisabledOnReserve",
      "type": "event"
    },
    {
      "anonymous": false,
      "inputs": [
        {
          "indexed": true,
          "internalType": "address",
          "name": "_reserve",
          "type": "address"
        }
      ],
      "name": "StableRateEnabledOnReserve",
      "type": "event"
    },
    {
      "constant": true,
      "inputs": [],
      "name": "CONFIGURATOR_REVISION",
      "outputs": [
        {
          "internalType": "uint256",
          "name": "",
          "type": "uint256"
        }
      ],
      "payable": false,
      "stateMutability": "view",
      "type": "function"
    },
    {
      "constant": true,
      "inputs": [],
      "name": "poolAddressesProvider",
      "outputs": [
        {
          "internalType": "contract LendingPoolAddressesProvider",
          "name": "",
          "type": "address"
        }
      ],
      "payable": false,
      "stateMutability": "view",
      "type": "function"
    },
    {
      "constant": false,
      "inputs": [
        {
          "internalType": "contract LendingPoolAddressesProvider",
          "name": "_poolAddressesProvider",
          "type": "address"
        }
      ],
      "name": "initialize",
      "outputs": [],
      "payable": false,
      "stateMutability": "nonpayable",
      "type": "function"
    },
    {
      "constant": false,
      "inputs": [
        {
          "internalType": "address",
          "name": "_reserve",
          "type": "address"
        },
        {
          "internalType": "uint8",
          "name": "_underlyingAssetDecimals",
          "type": "uint8"
        },
        {
          "internalType": "address",
          "name": "_interestRateStrategyAddress",
          "type": "address"
        }
      ],
      "name": "initReserve",
      "outputs": [],
      "payable": false,
      "stateMutability": "nonpayable",
      "type": "function"
    },
    {
      "constant": false,
      "inputs": [
        {
          "internalType": "address",
          "name": "_reserve",
          "type": "address"
        },
        {
          "internalType": "string",
          "name": "_aTokenName",
          "type": "string"
        },
        {
          "internalType": "string",
          "name": "_aTokenSymbol",
          "type": "string"
        },
        {
          "internalType": "uint8",
          "name": "_underlyingAssetDecimals",
          "type": "uint8"
        },
        {
          "internalType": "address",
          "name": "_interestRateStrategyAddress",
          "type": "address"
        }
      ],
      "name": "initReserveWithData",
      "outputs": [],
      "payable": false,
      "stateMutability": "nonpayable",
      "type": "function"
    },
    {
      "constant": false,
      "inputs": [
        {
          "internalType": "address",
          "name": "_reserveToRemove",
          "type": "address"
        }
      ],
      "name": "removeLastAddedReserve",
      "outputs": [],
      "payable": false,
      "stateMutability": "nonpayable",
      "type": "function"
    },
    {
      "constant": false,
      "inputs": [
        {
          "internalType": "address",
          "name": "_reserve",
          "type": "address"
        },
        {
          "internalType": "bool",
          "name": "_stableBorrowRateEnabled",
          "type": "bool"
        }
      ],
      "name": "enableBorrowingOnReserve",
      "outputs": [],
      "payable": false,
      "stateMutability": "nonpayable",
      "type": "function"
    },
    {
      "constant": false,
      "inputs": [
        {
          "internalType": "address",
          "name": "_reserve",
          "type": "address"
        }
      ],
      "name": "disableBorrowingOnReserve",
      "outputs": [],
      "payable": false,
      "stateMutability": "nonpayable",
      "type": "function"
    },
    {
      "constant": false,
      "inputs": [
        {
          "internalType": "address",
          "name": "_reserve",
          "type": "address"
        },
        {
          "internalType": "uint256",
          "name": "_baseLTVasCollateral",
          "type": "uint256"
        },
        {
          "internalType": "uint256",
          "name": "_liquidationThreshold",
          "type": "uint256"
        },
        {
          "internalType": "uint256",
          "name": "_liquidationBonus",
          "type": "uint256"
        }
      ],
      "name": "enableReserveAsCollateral",
      "outputs": [],
      "payable": false,
      "stateMutability": "nonpayable",
      "type": "function"
    },
    {
      "constant": false,
      "inputs": [
        {
          "internalType": "address",
          "name": "_reserve",
          "type": "address"
        }
      ],
      "name": "disableReserveAsCollateral",
      "outputs": [],
      "payable": false,
      "stateMutability": "nonpayable",
      "type": "function"
    },
    {
      "constant": false,
      "inputs": [
        {
          "internalType": "address",
          "name": "_reserve",
          "type": "address"
        }
      ],
      "name": "enableReserveStableBorrowRate",
      "outputs": [],
      "payable": false,
      "stateMutability": "nonpayable",
      "type": "function"
    },
    {
      "constant": false,
      "inputs": [
        {
          "internalType": "address",
          "name": "_reserve",
          "type": "address"
        }
      ],
      "name": "disableReserveStableBorrowRate",
      "outputs": [],
      "payable": false,
      "stateMutability": "nonpayable",
      "type": "function"
    },
    {
      "constant": false,
      "inputs": [
        {
          "internalType": "address",
          "name": "_reserve",
          "type": "address"
        }
      ],
      "name": "activateReserve",
      "outputs": [],
      "payable": false,
      "stateMutability": "nonpayable",
      "type": "function"
    },
    {
      "constant": false,
      "inputs": [
        {
          "internalType": "address",
          "name": "_reserve",
          "type": "address"
        }
      ],
      "name": "deactivateReserve",
      "outputs": [],
      "payable": false,
      "stateMutability": "nonpayable",
      "type": "function"
    },
    {
      "constant": false,
      "inputs": [
        {
          "internalType": "address",
          "name": "_reserve",
          "type": "address"
        }
      ],
      "name": "freezeReserve",
      "outputs": [],
      "payable": false,
      "stateMutability": "nonpayable",
      "type": "function"
    },
    {
      "constant": false,
      "inputs": [
        {
          "internalType": "address",
          "name": "_reserve",
          "type": "address"
        }
      ],
      "name": "unfreezeReserve",
      "outputs": [],
      "payable": false,
      "stateMutability": "nonpayable",
      "type": "function"
    },
    {
      "constant": false,
      "inputs": [
        {
          "internalType": "address",
          "name": "_reserve",
          "type": "address"
        },
        {
          "internalType": "uint256",
          "name": "_ltv",
          "type": "uint256"
        }
      ],
      "name": "setReserveBaseLTVasCollateral",
      "outputs": [],
      "payable": false,
      "stateMutability": "nonpayable",
      "type": "function"
    },
    {
      "constant": false,
      "inputs": [
        {
          "internalType": "address",
          "name": "_reserve",
          "type": "address"
        },
        {
          "internalType": "uint256",
          "name": "_threshold",
          "type": "uint256"
        }
      ],
      "name": "setReserveLiquidationThreshold",
      "outputs": [],
      "payable": false,
      "stateMutability": "nonpayable",
      "type": "function"
    },
    {
      "constant": false,
      "inputs": [
        {
          "internalType": "address",
          "name": "_reserve",
          "type": "address"
        },
        {
          "internalType": "uint256",
          "name": "_bonus",
          "type": "uint256"
        }
      ],
      "name": "setReserveLiquidationBonus",
      "outputs": [],
      "payable": false,
      "stateMutability": "nonpayable",
      "type": "function"
    },
    {
      "constant": false,
      "inputs": [
        {
          "internalType": "address",
          "name": "_reserve",
          "type": "address"
        },
        {
          "internalType": "uint256",
          "name": "_decimals",
          "type": "uint256"
        }
      ],
      "name": "setReserveDecimals",
      "outputs": [],
      "payable": false,
      "stateMutability": "nonpayable",
      "type": "function"
    },
    {
      "constant": false,
      "inputs": [
        {
          "internalType": "address",
          "name": "_reserve",
          "type": "address"
        },
        {
          "internalType": "address",
          "name": "_rateStrategyAddress",
          "type": "address"
        }
      ],
      "name": "setReserveInterestRateStrategyAddress",
      "outputs": [],
      "payable": false,
      "stateMutability": "nonpayable",
      "type": "function"
    },
    {
      "constant": false,
      "inputs": [],
      "name": "refreshLendingPoolCoreConfiguration",
      "outputs": [],
      "payable": false,
      "stateMutability": "nonpayable",
      "type": "function"
    }
  ],
  "bytecode": "0x60806040526000805534801561001457600080fd5b5061869480620000256000396000f3fe60806040523480156200001157600080fd5b5060043610620001605760003560e01c8063a8dc0f4511620000c9578063d466016f1162000087578063d466016f146200079d578063dae4c4e714620007ee578063e12dcc6c1462000835578063e8ae2f5b1462000841578063eede87c11462000888578063ef1f937314620008db5762000160565b8063a8dc0f45146200063a578063b75d6f341462000681578063b8c0f74514620006c8578063c4d66de8146200070f578063d06e2ec114620007565762000160565b806366bbd928116200012357806366bbd928146200048057806370fb84f414620004d15780637aca76eb14620005225780637af635a6146200056957806380e17d871462000589578063a5bc826c14620005d55762000160565b8063071033e414620001655780631d2118f914620001d95780633443a14b146200024057806336805a6214620002915780633e72a4541462000439575b600080fd5b620001d7600480360360608110156200017d57600080fd5b81019080803573ffffffffffffffffffffffffffffffffffffffff169060200190929190803560ff169060200190929190803573ffffffffffffffffffffffffffffffffffffffff16906020019092919050505062000922565b005b6200023e60048036036040811015620001f157600080fd5b81019080803573ffffffffffffffffffffffffffffffffffffffff169060200190929190803573ffffffffffffffffffffffffffffffffffffffff16906020019092919050505062000e29565b005b6200028f600480360360408110156200025857600080fd5b81019080803573ffffffffffffffffffffffffffffffffffffffff1690602001909291908035906020019092919050505062001167565b005b62000437600480360360a0811015620002a957600080fd5b81019080803573ffffffffffffffffffffffffffffffffffffffff16906020019092919080359060200190640100000000811115620002e757600080fd5b820183602082011115620002fa57600080fd5b803590602001918460018302840111640100000000831117156200031d57600080fd5b91908080601f016020809104026020016040519081016040528093929190818152602001838380828437600081840152601f19601f820116905080830192505050505050509192919290803590602001906401000000008111156200038157600080fd5b8201836020820111156200039457600080fd5b80359060200191846001830284011164010000000083111715620003b757600080fd5b91908080601f016020809104026020016040519081016040528093929190818152602001838380828437600081840152601f19601f820116905080830192505050505050509192919290803560ff169060200190929190803573ffffffffffffffffffffffffffffffffffffffff1690602001909291905050506200144d565b005b6200047e600480360360208110156200045157600080fd5b81019080803573ffffffffffffffffffffffffffffffffffffffff16906020019092919050505062001973565b005b620004cf600480360360408110156200049857600080fd5b81019080803573ffffffffffffffffffffffffffffffffffffffff1690602001909291908035906020019092919050505062001d3d565b005b6200052060048036036040811015620004e957600080fd5b81019080803573ffffffffffffffffffffffffffffffffffffffff1690602001909291908035906020019092919050505062002023565b005b62000567600480360360208110156200053a57600080fd5b81019080803573ffffffffffffffffffffffffffffffffffffffff16906020019092919050505062002309565b005b62000573620025be565b6040518082815260200191505060405180910390f35b62000593620025c3565b604051808273ffffffffffffffffffffffffffffffffffffffff1673ffffffffffffffffffffffffffffffffffffffff16815260200191505060405180910390f35b6200063860048036036080811015620005ed57600080fd5b81019080803573ffffffffffffffffffffffffffffffffffffffff169060200190929190803590602001909291908035906020019092919080359060200190929190505050620025e9565b005b6200067f600480360360208110156200065257600080fd5b81019080803573ffffffffffffffffffffffffffffffffffffffff169060200190929190505050620028d4565b005b620006c6600480360360208110156200069957600080fd5b81019080803573ffffffffffffffffffffffffffffffffffffffff16906020019092919050505062002b89565b005b6200070d60048036036020811015620006e057600080fd5b81019080803573ffffffffffffffffffffffffffffffffffffffff16906020019092919050505062002e3e565b005b62000754600480360360208110156200072757600080fd5b81019080803573ffffffffffffffffffffffffffffffffffffffff169060200190929190505050620030f3565b005b6200079b600480360360208110156200076e57600080fd5b81019080803573ffffffffffffffffffffffffffffffffffffffff1690602001909291905050506200322e565b005b620007ec60048036036040811015620007b557600080fd5b81019080803573ffffffffffffffffffffffffffffffffffffffff16906020019092919080359060200190929190505050620034e3565b005b62000833600480360360208110156200080657600080fd5b81019080803573ffffffffffffffffffffffffffffffffffffffff169060200190929190505050620037c9565b005b6200083f62003a7e565b005b62000886600480360360208110156200085957600080fd5b81019080803573ffffffffffffffffffffffffffffffffffffffff16906020019092919050505062003cb8565b005b620008d960048036036040811015620008a057600080fd5b81019080803573ffffffffffffffffffffffffffffffffffffffff16906020019092919080351515906020019092919050505062003f6d565b005b6200092060048036036020811015620008f357600080fd5b81019080803573ffffffffffffffffffffffffffffffffffffffff1690602001909291905050506200425b565b005b3373ffffffffffffffffffffffffffffffffffffffff16603460009054906101000a900473ffffffffffffffffffffffffffffffffffffffff1673ffffffffffffffffffffffffffffffffffffffff166333128d596040518163ffffffff1660e01b815260040160206040518083038186803b158015620009a257600080fd5b505afa158015620009b7573d6000803e3d6000fd5b505050506040513d6020811015620009ce57600080fd5b810190808051906020019092919050505073ffffffffffffffffffffffffffffffffffffffff161462000a4d576040517f08c379a0000000000000000000000000000000000000000000000000000000008152600401808060200182810382526029815260200180620085df6029913960400191505060405180910390fd5b600083905060608173ffffffffffffffffffffffffffffffffffffffff166306fdde036040518163ffffffff1660e01b815260040160006040518083038186803b15801562000a9b57600080fd5b505afa15801562000ab0573d6000803e3d6000fd5b505050506040513d6000823e3d601f19601f82011682018060405250602081101562000adb57600080fd5b810190808051604051939291908464010000000082111562000afc57600080fd5b8382019150602082018581111562000b1357600080fd5b825186600182028301116401000000008211171562000b3157600080fd5b8083526020830192505050908051906020019080838360005b8381101562000b6757808201518184015260208101905062000b4a565b50505050905090810190601f16801562000b955780820380516001836020036101000a031916815260200191505b5060405250505060405160200180807f4161766520496e7465726573742062656172696e67200000000000000000000081525060160182805190602001908083835b6020831062000bfc578051825260208201915060208101905060208303925062000bd7565b6001836020036101000a038019825116818451168082178552505050505050905001915050604051602081830303815290604052905060608273ffffffffffffffffffffffffffffffffffffffff166395d89b416040518163ffffffff1660e01b815260040160006040518083038186803b15801562000c7b57600080fd5b505afa15801562000c90573d6000803e3d6000fd5b505050506040513d6000823e3d601f19601f82011682018060405250602081101562000cbb57600080fd5b810190808051604051939291908464010000000082111562000cdc57600080fd5b8382019150602082018581111562000cf357600080fd5b825186600182028301116401000000008211171562000d1157600080fd5b8083526020830192505050908051906020019080838360005b8381101562000d4757808201518184015260208101905062000d2a565b50505050905090810190601f16801562000d755780820380516001836020036101000a031916815260200191505b5060405250505060405160200180807f610000000000000000000000000000000000000000000000000000000000000081525060010182805190602001908083835b6020831062000ddc578051825260208201915060208101905060208303925062000db7565b6001836020036101000a038019825116818451168082178552505050505050905001915050604051602081830303815290604052905062000e2186838388886200144d565b505050505050565b3373ffffffffffffffffffffffffffffffffffffffff16603460009054906101000a900473ffffffffffffffffffffffffffffffffffffffff1673ffffffffffffffffffffffffffffffffffffffff166333128d596040518163ffffffff1660e01b815260040160206040518083038186803b15801562000ea957600080fd5b505afa15801562000ebe573d6000803e3d6000fd5b505050506040513d602081101562000ed557600080fd5b810190808051906020019092919050505073ffffffffffffffffffffffffffffffffffffffff161462000f54576040517f08c379a0000000000000000000000000000000000000000000000000000000008152600401808060200182810382526029815260200180620085df6029913960400191505060405180910390fd5b6000603460009054906101000a900473ffffffffffffffffffffffffffffffffffffffff1673ffffffffffffffffffffffffffffffffffffffff1663ed6ff7606040518163ffffffff1660e01b815260040160206040518083038186803b15801562000fbf57600080fd5b505afa15801562000fd4573d6000803e3d6000fd5b505050506040513d602081101562000feb57600080fd5b810190808051906020019092919050505090508073ffffffffffffffffffffffffffffffffffffffff16631d2118f984846040518363ffffffff1660e01b8152600401808373ffffffffffffffffffffffffffffffffffffffff1673ffffffffffffffffffffffffffffffffffffffff1681526020018273ffffffffffffffffffffffffffffffffffffffff1673ffffffffffffffffffffffffffffffffffffffff16815260200192505050600060405180830381600087803b158015620010b257600080fd5b505af1158015620010c7573d6000803e3d6000fd5b505050507f5644b64ebb0ce18c4032248ca52f58355469092ff072866c3dcd8640e817d6a58383604051808373ffffffffffffffffffffffffffffffffffffffff1673ffffffffffffffffffffffffffffffffffffffff1681526020018273ffffffffffffffffffffffffffffffffffffffff1673ffffffffffffffffffffffffffffffffffffffff1681526020019250505060405180910390a1505050565b3373ffffffffffffffffffffffffffffffffffffffff16603460009054906101000a900473ffffffffffffffffffffffffffffffffffffffff1673ffffffffffffffffffffffffffffffffffffffff166333128d596040518163ffffffff1660e01b815260040160206040518083038186803b158015620011e757600080fd5b505afa158015620011fc573d6000803e3d6000fd5b505050506040513d60208110156200121357600080fd5b810190808051906020019092919050505073ffffffffffffffffffffffffffffffffffffffff161462001292576040517f08c379a0000000000000000000000000000000000000000000000000000000008152600401808060200182810382526029815260200180620085df6029913960400191505060405180910390fd5b6000603460009054906101000a900473ffffffffffffffffffffffffffffffffffffffff1673ffffffffffffffffffffffffffffffffffffffff1663ed6ff7606040518163ffffffff1660e01b815260040160206040518083038186803b158015620012fd57600080fd5b505afa15801562001312573d6000803e3d6000fd5b505050506040513d60208110156200132957600080fd5b810190808051906020019092919050505090508073ffffffffffffffffffffffffffffffffffffffff16633443a14b84846040518363ffffffff1660e01b8152600401808373ffffffffffffffffffffffffffffffffffffffff1673ffffffffffffffffffffffffffffffffffffffff16815260200182815260200192505050600060405180830381600087803b158015620013c457600080fd5b505af1158015620013d9573d6000803e3d6000fd5b505050507f437dd3b61b7c7eee7fc70515c8846482dfca92e2e1e02af5d638c5d4878d67148383604051808373ffffffffffffffffffffffffffffffffffffffff1673ffffffffffffffffffffffffffffffffffffffff1681526020018281526020019250505060405180910390a1505050565b3373ffffffffffffffffffffffffffffffffffffffff16603460009054906101000a900473ffffffffffffffffffffffffffffffffffffffff1673ffffffffffffffffffffffffffffffffffffffff166333128d596040518163ffffffff1660e01b815260040160206040518083038186803b158015620014cd57600080fd5b505afa158015620014e2573d6000803e3d6000fd5b505050506040513d6020811015620014f957600080fd5b810190808051906020019092919050505073ffffffffffffffffffffffffffffffffffffffff161462001578576040517f08c379a0000000000000000000000000000000000000000000000000000000008152600401808060200182810382526029815260200180620085df6029913960400191505060405180910390fd5b6000603460009054906101000a900473ffffffffffffffffffffffffffffffffffffffff1673ffffffffffffffffffffffffffffffffffffffff1663ed6ff7606040518163ffffffff1660e01b815260040160206040518083038186803b158015620015e357600080fd5b505afa158015620015f8573d6000803e3d6000fd5b505050506040513d60208110156200160f57600080fd5b810190808051906020019092919050505090506000603460009054906101000a900473ffffffffffffffffffffffffffffffffffffffff168785888860405162001659906200452a565b808673ffffffffffffffffffffffffffffffffffffffff1673ffffffffffffffffffffffffffffffffffffffff1681526020018573ffffffffffffffffffffffffffffffffffffffff1673ffffffffffffffffffffffffffffffffffffffff1681526020018460ff1660ff1681526020018060200180602001838103835285818151815260200191508051906020019080838360005b838110156200170c578082015181840152602081019050620016ef565b50505050905090810190601f1680156200173a5780820380516001836020036101000a031916815260200191505b50838103825284818151815260200191508051906020019080838360005b838110156200177557808201518184015260208101905062001758565b50505050905090810190601f168015620017a35780820380516001836020036101000a031916815260200191505b50975050505050505050604051809103906000f080158015620017ca573d6000803e3d6000fd5b5090508173ffffffffffffffffffffffffffffffffffffffff166345330a40888387876040518563ffffffff1660e01b8152600401808573ffffffffffffffffffffffffffffffffffffffff1673ffffffffffffffffffffffffffffffffffffffff1681526020018473ffffffffffffffffffffffffffffffffffffffff1673ffffffffffffffffffffffffffffffffffffffff1681526020018360ff1681526020018273ffffffffffffffffffffffffffffffffffffffff1673ffffffffffffffffffffffffffffffffffffffff168152602001945050505050600060405180830381600087803b158015620018c057600080fd5b505af1158015620018d5573d6000803e3d6000fd5b505050508073ffffffffffffffffffffffffffffffffffffffff168773ffffffffffffffffffffffffffffffffffffffff167f1d9fcd0dc935b4778d5af97f55c4d7b2553257382f1ef25c412114c8eeebd88e85604051808273ffffffffffffffffffffffffffffffffffffffff1673ffffffffffffffffffffffffffffffffffffffff16815260200191505060405180910390a350505050505050565b3373ffffffffffffffffffffffffffffffffffffffff16603460009054906101000a900473ffffffffffffffffffffffffffffffffffffffff1673ffffffffffffffffffffffffffffffffffffffff166333128d596040518163ffffffff1660e01b815260040160206040518083038186803b158015620019f357600080fd5b505afa15801562001a08573d6000803e3d6000fd5b505050506040513d602081101562001a1f57600080fd5b810190808051906020019092919050505073ffffffffffffffffffffffffffffffffffffffff161462001a9e576040517f08c379a0000000000000000000000000000000000000000000000000000000008152600401808060200182810382526029815260200180620085df6029913960400191505060405180910390fd5b6000603460009054906101000a900473ffffffffffffffffffffffffffffffffffffffff1673ffffffffffffffffffffffffffffffffffffffff1663ed6ff7606040518163ffffffff1660e01b815260040160206040518083038186803b15801562001b0957600080fd5b505afa15801562001b1e573d6000803e3d6000fd5b505050506040513d602081101562001b3557600080fd5b8101908080519060200190929190505050905060008173ffffffffffffffffffffffffffffffffffffffff1663c33cfd90846040518263ffffffff1660e01b8152600401808273ffffffffffffffffffffffffffffffffffffffff1673ffffffffffffffffffffffffffffffffffffffff16815260200191505060206040518083038186803b15801562001bc857600080fd5b505afa15801562001bdd573d6000803e3d6000fd5b505050506040513d602081101562001bf457600080fd5b81019080805190602001909291905050501462001c5d576040517f08c379a000000000000000000000000000000000000000000000000000000000815260040180806020018281038252602a81526020018062008636602a913960400191505060405180910390fd5b8073ffffffffffffffffffffffffffffffffffffffff16633e72a454836040518263ffffffff1660e01b8152600401808273ffffffffffffffffffffffffffffffffffffffff1673ffffffffffffffffffffffffffffffffffffffff168152602001915050600060405180830381600087803b15801562001cdd57600080fd5b505af115801562001cf2573d6000803e3d6000fd5b505050508173ffffffffffffffffffffffffffffffffffffffff167f6f60cf8bd0f218cabe1ea3150bd07b0b758c35c4cfdf7138017a283e65564d5e60405160405180910390a25050565b3373ffffffffffffffffffffffffffffffffffffffff16603460009054906101000a900473ffffffffffffffffffffffffffffffffffffffff1673ffffffffffffffffffffffffffffffffffffffff166333128d596040518163ffffffff1660e01b815260040160206040518083038186803b15801562001dbd57600080fd5b505afa15801562001dd2573d6000803e3d6000fd5b505050506040513d602081101562001de957600080fd5b810190808051906020019092919050505073ffffffffffffffffffffffffffffffffffffffff161462001e68576040517f08c379a0000000000000000000000000000000000000000000000000000000008152600401808060200182810382526029815260200180620085df6029913960400191505060405180910390fd5b6000603460009054906101000a900473ffffffffffffffffffffffffffffffffffffffff1673ffffffffffffffffffffffffffffffffffffffff1663ed6ff7606040518163ffffffff1660e01b815260040160206040518083038186803b15801562001ed357600080fd5b505afa15801562001ee8573d6000803e3d6000fd5b505050506040513d602081101562001eff57600080fd5b810190808051906020019092919050505090508073ffffffffffffffffffffffffffffffffffffffff166366bbd92884846040518363ffffffff1660e01b8152600401808373ffffffffffffffffffffffffffffffffffffffff1673ffffffffffffffffffffffffffffffffffffffff16815260200182815260200192505050600060405180830381600087803b15801562001f9a57600080fd5b505af115801562001faf573d6000803e3d6000fd5b505050507f2e73b7f1df792712003e6859f940c1e8711c3f1329474771fee71d2ec11631298383604051808373ffffffffffffffffffffffffffffffffffffffff1673ffffffffffffffffffffffffffffffffffffffff1681526020018281526020019250505060405180910390a1505050565b3373ffffffffffffffffffffffffffffffffffffffff16603460009054906101000a900473ffffffffffffffffffffffffffffffffffffffff1673ffffffffffffffffffffffffffffffffffffffff166333128d596040518163ffffffff1660e01b815260040160206040518083038186803b158015620020a357600080fd5b505afa158015620020b8573d6000803e3d6000fd5b505050506040513d6020811015620020cf57600080fd5b810190808051906020019092919050505073ffffffffffffffffffffffffffffffffffffffff16146200214e576040517f08c379a0000000000000000000000000000000000000000000000000000000008152600401808060200182810382526029815260200180620085df6029913960400191505060405180910390fd5b6000603460009054906101000a900473ffffffffffffffffffffffffffffffffffffffff1673ffffffffffffffffffffffffffffffffffffffff1663ed6ff7606040518163ffffffff1660e01b815260040160206040518083038186803b158015620021b957600080fd5b505afa158015620021ce573d6000803e3d6000fd5b505050506040513d6020811015620021e557600080fd5b810190808051906020019092919050505090508073ffffffffffffffffffffffffffffffffffffffff166370fb84f484846040518363ffffffff1660e01b8152600401808373ffffffffffffffffffffffffffffffffffffffff1673ffffffffffffffffffffffffffffffffffffffff16815260200182815260200192505050600060405180830381600087803b1580156200228057600080fd5b505af115801562002295573d6000803e3d6000fd5b505050507fe3ba662f7011e701056a43e8cf832242322eeff01453e7a72d01ec2af36d9aec8383604051808373ffffffffffffffffffffffffffffffffffffffff1673ffffffffffffffffffffffffffffffffffffffff1681526020018281526020019250505060405180910390a1505050565b3373ffffffffffffffffffffffffffffffffffffffff16603460009054906101000a900473ffffffffffffffffffffffffffffffffffffffff1673ffffffffffffffffffffffffffffffffffffffff166333128d596040518163ffffffff1660e01b815260040160206040518083038186803b1580156200238957600080fd5b505afa1580156200239e573d6000803e3d6000fd5b505050506040513d6020811015620023b557600080fd5b810190808051906020019092919050505073ffffffffffffffffffffffffffffffffffffffff161462002434576040517f08c379a0000000000000000000000000000000000000000000000000000000008152600401808060200182810382526029815260200180620085df6029913960400191505060405180910390fd5b6000603460009054906101000a900473ffffffffffffffffffffffffffffffffffffffff1673ffffffffffffffffffffffffffffffffffffffff1663ed6ff7606040518163ffffffff1660e01b815260040160206040518083038186803b1580156200249f57600080fd5b505afa158015620024b4573d6000803e3d6000fd5b505050506040513d6020811015620024cb57600080fd5b810190808051906020019092919050505090508073ffffffffffffffffffffffffffffffffffffffff16637aca76eb836040518263ffffffff1660e01b8152600401808273ffffffffffffffffffffffffffffffffffffffff1673ffffffffffffffffffffffffffffffffffffffff168152602001915050600060405180830381600087803b1580156200255e57600080fd5b505af115801562002573573d6000803e3d6000fd5b505050508173ffffffffffffffffffffffffffffffffffffffff167fda5cdb66c77023db6abe5226a4d4a40c3b8e768012f4ff4e446f62f60127fc5660405160405180910390a25050565b600381565b603460009054906101000a900473ffffffffffffffffffffffffffffffffffffffff1681565b3373ffffffffffffffffffffffffffffffffffffffff16603460009054906101000a900473ffffffffffffffffffffffffffffffffffffffff1673ffffffffffffffffffffffffffffffffffffffff166333128d596040518163ffffffff1660e01b815260040160206040518083038186803b1580156200266957600080fd5b505afa1580156200267e573d6000803e3d6000fd5b505050506040513d60208110156200269557600080fd5b810190808051906020019092919050505073ffffffffffffffffffffffffffffffffffffffff161462002714576040517f08c379a0000000000000000000000000000000000000000000000000000000008152600401808060200182810382526029815260200180620085df6029913960400191505060405180910390fd5b6000603460009054906101000a900473ffffffffffffffffffffffffffffffffffffffff1673ffffffffffffffffffffffffffffffffffffffff1663ed6ff7606040518163ffffffff1660e01b815260040160206040518083038186803b1580156200277f57600080fd5b505afa15801562002794573d6000803e3d6000fd5b505050506040513d6020811015620027ab57600080fd5b810190808051906020019092919050505090508073ffffffffffffffffffffffffffffffffffffffff1663a5bc826c868686866040518563ffffffff1660e01b8152600401808573ffffffffffffffffffffffffffffffffffffffff1673ffffffffffffffffffffffffffffffffffffffff168152602001848152602001838152602001828152602001945050505050600060405180830381600087803b1580156200285657600080fd5b505af11580156200286b573d6000803e3d6000fd5b505050508473ffffffffffffffffffffffffffffffffffffffff167fdfe62f53e7707d64f99bca15d2bdf3facc4074bc047e7dec2ea130300e99274485858560405180848152602001838152602001828152602001935050505060405180910390a25050505050565b3373ffffffffffffffffffffffffffffffffffffffff16603460009054906101000a900473ffffffffffffffffffffffffffffffffffffffff1673ffffffffffffffffffffffffffffffffffffffff166333128d596040518163ffffffff1660e01b815260040160206040518083038186803b1580156200295457600080fd5b505afa15801562002969573d6000803e3d6000fd5b505050506040513d60208110156200298057600080fd5b810190808051906020019092919050505073ffffffffffffffffffffffffffffffffffffffff1614620029ff576040517f08c379a0000000000000000000000000000000000000000000000000000000008152600401808060200182810382526029815260200180620085df6029913960400191505060405180910390fd5b6000603460009054906101000a900473ffffffffffffffffffffffffffffffffffffffff1673ffffffffffffffffffffffffffffffffffffffff1663ed6ff7606040518163ffffffff1660e01b815260040160206040518083038186803b15801562002a6a57600080fd5b505afa15801562002a7f573d6000803e3d6000fd5b505050506040513d602081101562002a9657600080fd5b810190808051906020019092919050505090508073ffffffffffffffffffffffffffffffffffffffff1663a8dc0f45836040518263ffffffff1660e01b8152600401808273ffffffffffffffffffffffffffffffffffffffff1673ffffffffffffffffffffffffffffffffffffffff168152602001915050600060405180830381600087803b15801562002b2957600080fd5b505af115801562002b3e573d6000803e3d6000fd5b505050508173ffffffffffffffffffffffffffffffffffffffff167fe9a7e5fd4fc8ea18e602350324bf48e8f05d12434af0ce0be05743e6a5fdcb9e60405160405180910390a25050565b3373ffffffffffffffffffffffffffffffffffffffff16603460009054906101000a900473ffffffffffffffffffffffffffffffffffffffff1673ffffffffffffffffffffffffffffffffffffffff166333128d596040518163ffffffff1660e01b815260040160206040518083038186803b15801562002c0957600080fd5b505afa15801562002c1e573d6000803e3d6000fd5b505050506040513d602081101562002c3557600080fd5b810190808051906020019092919050505073ffffffffffffffffffffffffffffffffffffffff161462002cb4576040517f08c379a0000000000000000000000000000000000000000000000000000000008152600401808060200182810382526029815260200180620085df6029913960400191505060405180910390fd5b6000603460009054906101000a900473ffffffffffffffffffffffffffffffffffffffff1673ffffffffffffffffffffffffffffffffffffffff1663ed6ff7606040518163ffffffff1660e01b815260040160206040518083038186803b15801562002d1f57600080fd5b505afa15801562002d34573d6000803e3d6000fd5b505050506040513d602081101562002d4b57600080fd5b810190808051906020019092919050505090508073ffffffffffffffffffffffffffffffffffffffff1663b75d6f34836040518263ffffffff1660e01b8152600401808273ffffffffffffffffffffffffffffffffffffffff1673ffffffffffffffffffffffffffffffffffffffff168152602001915050600060405180830381600087803b15801562002dde57600080fd5b505af115801562002df3573d6000803e3d6000fd5b505050508173ffffffffffffffffffffffffffffffffffffffff167f35b80cd8ea3440e9a8454f116fa658b858da1b64c86c48451f4559cefcdfb56c60405160405180910390a25050565b3373ffffffffffffffffffffffffffffffffffffffff16603460009054906101000a900473ffffffffffffffffffffffffffffffffffffffff1673ffffffffffffffffffffffffffffffffffffffff166333128d596040518163ffffffff1660e01b815260040160206040518083038186803b15801562002ebe57600080fd5b505afa15801562002ed3573d6000803e3d6000fd5b505050506040513d602081101562002eea57600080fd5b810190808051906020019092919050505073ffffffffffffffffffffffffffffffffffffffff161462002f69576040517f08c379a0000000000000000000000000000000000000000000000000000000008152600401808060200182810382526029815260200180620085df6029913960400191505060405180910390fd5b6000603460009054906101000a900473ffffffffffffffffffffffffffffffffffffffff1673ffffffffffffffffffffffffffffffffffffffff1663ed6ff7606040518163ffffffff1660e01b815260040160206040518083038186803b15801562002fd457600080fd5b505afa15801562002fe9573d6000803e3d6000fd5b505050506040513d60208110156200300057600080fd5b810190808051906020019092919050505090508073ffffffffffffffffffffffffffffffffffffffff1663b8c0f745836040518263ffffffff1660e01b8152600401808273ffffffffffffffffffffffffffffffffffffffff1673ffffffffffffffffffffffffffffffffffffffff168152602001915050600060405180830381600087803b1580156200309357600080fd5b505af1158015620030a8573d6000803e3d6000fd5b505050508173ffffffffffffffffffffffffffffffffffffffff167f8bbf35441ac2c607ddecadd3d8ee58636d32f217fad201fb2655581502dd84e360405160405180910390a25050565b6000620030ff62004510565b9050600160009054906101000a900460ff16806200312357506200312262004519565b5b8062003130575060005481115b62003187576040517f08c379a000000000000000000000000000000000000000000000000000000000815260040180806020018281038252602e81526020018062008608602e913960400191505060405180910390fd5b6000600160009054906101000a900460ff161590508015620031c55760018060006101000a81548160ff021916908315150217905550816000819055505b82603460006101000a81548173ffffffffffffffffffffffffffffffffffffffff021916908373ffffffffffffffffffffffffffffffffffffffff160217905550801562003229576000600160006101000a81548160ff0219169083151502179055505b505050565b3373ffffffffffffffffffffffffffffffffffffffff16603460009054906101000a900473ffffffffffffffffffffffffffffffffffffffff1673ffffffffffffffffffffffffffffffffffffffff166333128d596040518163ffffffff1660e01b815260040160206040518083038186803b158015620032ae57600080fd5b505afa158015620032c3573d6000803e3d6000fd5b505050506040513d6020811015620032da57600080fd5b810190808051906020019092919050505073ffffffffffffffffffffffffffffffffffffffff161462003359576040517f08c379a0000000000000000000000000000000000000000000000000000000008152600401808060200182810382526029815260200180620085df6029913960400191505060405180910390fd5b6000603460009054906101000a900473ffffffffffffffffffffffffffffffffffffffff1673ffffffffffffffffffffffffffffffffffffffff1663ed6ff7606040518163ffffffff1660e01b815260040160206040518083038186803b158015620033c457600080fd5b505afa158015620033d9573d6000803e3d6000fd5b505050506040513d6020811015620033f057600080fd5b810190808051906020019092919050505090508073ffffffffffffffffffffffffffffffffffffffff1663d06e2ec1836040518263ffffffff1660e01b8152600401808273ffffffffffffffffffffffffffffffffffffffff1673ffffffffffffffffffffffffffffffffffffffff168152602001915050600060405180830381600087803b1580156200348357600080fd5b505af115801562003498573d6000803e3d6000fd5b505050508173ffffffffffffffffffffffffffffffffffffffff167f19dbf059e4d3a0cb998d4328b7b991bbe312827eeb053d8ff63edf33158e01db60405160405180910390a25050565b3373ffffffffffffffffffffffffffffffffffffffff16603460009054906101000a900473ffffffffffffffffffffffffffffffffffffffff1673ffffffffffffffffffffffffffffffffffffffff166333128d596040518163ffffffff1660e01b815260040160206040518083038186803b1580156200356357600080fd5b505afa15801562003578573d6000803e3d6000fd5b505050506040513d60208110156200358f57600080fd5b810190808051906020019092919050505073ffffffffffffffffffffffffffffffffffffffff16146200360e576040517f08c379a0000000000000000000000000000000000000000000000000000000008152600401808060200182810382526029815260200180620085df6029913960400191505060405180910390fd5b6000603460009054906101000a900473ffffffffffffffffffffffffffffffffffffffff1673ffffffffffffffffffffffffffffffffffffffff1663ed6ff7606040518163ffffffff1660e01b815260040160206040518083038186803b1580156200367957600080fd5b505afa1580156200368e573d6000803e3d6000fd5b505050506040513d6020811015620036a557600080fd5b810190808051906020019092919050505090508073ffffffffffffffffffffffffffffffffffffffff1663d466016f84846040518363ffffffff1660e01b8152600401808373ffffffffffffffffffffffffffffffffffffffff1673ffffffffffffffffffffffffffffffffffffffff16815260200182815260200192505050600060405180830381600087803b1580156200374057600080fd5b505af115801562003755573d6000803e3d6000fd5b505050507fda47540c7f7fd5a68c3285f3bb708f322424f948f41df6f51622fa24b39686648383604051808373ffffffffffffffffffffffffffffffffffffffff1673ffffffffffffffffffffffffffffffffffffffff1681526020018281526020019250505060405180910390a1505050565b3373ffffffffffffffffffffffffffffffffffffffff16603460009054906101000a900473ffffffffffffffffffffffffffffffffffffffff1673ffffffffffffffffffffffffffffffffffffffff166333128d596040518163ffffffff1660e01b815260040160206040518083038186803b1580156200384957600080fd5b505afa1580156200385e573d6000803e3d6000fd5b505050506040513d60208110156200387557600080fd5b810190808051906020019092919050505073ffffffffffffffffffffffffffffffffffffffff1614620038f4576040517f08c379a0000000000000000000000000000000000000000000000000000000008152600401808060200182810382526029815260200180620085df6029913960400191505060405180910390fd5b6000603460009054906101000a900473ffffffffffffffffffffffffffffffffffffffff1673ffffffffffffffffffffffffffffffffffffffff1663ed6ff7606040518163ffffffff1660e01b815260040160206040518083038186803b1580156200395f57600080fd5b505afa15801562003974573d6000803e3d6000fd5b505050506040513d60208110156200398b57600080fd5b810190808051906020019092919050505090508073ffffffffffffffffffffffffffffffffffffffff1663dae4c4e7836040518263ffffffff1660e01b8152600401808273ffffffffffffffffffffffffffffffffffffffff1673ffffffffffffffffffffffffffffffffffffffff168152602001915050600060405180830381600087803b15801562003a1e57600080fd5b505af115801562003a33573d6000803e3d6000fd5b505050508173ffffffffffffffffffffffffffffffffffffffff167f8dee2b2f3e98319ae6347eda521788f73f4086c9be9a594942b370b137fb8cb160405160405180910390a25050565b3373ffffffffffffffffffffffffffffffffffffffff16603460009054906101000a900473ffffffffffffffffffffffffffffffffffffffff1673ffffffffffffffffffffffffffffffffffffffff166333128d596040518163ffffffff1660e01b815260040160206040518083038186803b15801562003afe57600080fd5b505afa15801562003b13573d6000803e3d6000fd5b505050506040513d602081101562003b2a57600080fd5b810190808051906020019092919050505073ffffffffffffffffffffffffffffffffffffffff161462003ba9576040517f08c379a0000000000000000000000000000000000000000000000000000000008152600401808060200182810382526029815260200180620085df6029913960400191505060405180910390fd5b6000603460009054906101000a900473ffffffffffffffffffffffffffffffffffffffff1673ffffffffffffffffffffffffffffffffffffffff1663ed6ff7606040518163ffffffff1660e01b815260040160206040518083038186803b15801562003c1457600080fd5b505afa15801562003c29573d6000803e3d6000fd5b505050506040513d602081101562003c4057600080fd5b810190808051906020019092919050505090508073ffffffffffffffffffffffffffffffffffffffff1663646810836040518163ffffffff1660e01b8152600401600060405180830381600087803b15801562003c9c57600080fd5b505af115801562003cb1573d6000803e3d6000fd5b5050505050565b3373ffffffffffffffffffffffffffffffffffffffff16603460009054906101000a900473ffffffffffffffffffffffffffffffffffffffff1673ffffffffffffffffffffffffffffffffffffffff166333128d596040518163ffffffff1660e01b815260040160206040518083038186803b15801562003d3857600080fd5b505afa15801562003d4d573d6000803e3d6000fd5b505050506040513d602081101562003d6457600080fd5b810190808051906020019092919050505073ffffffffffffffffffffffffffffffffffffffff161462003de3576040517f08c379a0000000000000000000000000000000000000000000000000000000008152600401808060200182810382526029815260200180620085df6029913960400191505060405180910390fd5b6000603460009054906101000a900473ffffffffffffffffffffffffffffffffffffffff1673ffffffffffffffffffffffffffffffffffffffff1663ed6ff7606040518163ffffffff1660e01b815260040160206040518083038186803b15801562003e4e57600080fd5b505afa15801562003e63573d6000803e3d6000fd5b505050506040513d602081101562003e7a57600080fd5b810190808051906020019092919050505090508073ffffffffffffffffffffffffffffffffffffffff1663e8ae2f5b836040518263ffffffff1660e01b8152600401808273ffffffffffffffffffffffffffffffffffffffff1673ffffffffffffffffffffffffffffffffffffffff168152602001915050600060405180830381600087803b15801562003f0d57600080fd5b505af115801562003f22573d6000803e3d6000fd5b505050508173ffffffffffffffffffffffffffffffffffffffff167f9cc75e4cafc9a556a369bc53468649075680eb554d225d5918f199453824796d60405160405180910390a25050565b3373ffffffffffffffffffffffffffffffffffffffff16603460009054906101000a900473ffffffffffffffffffffffffffffffffffffffff1673ffffffffffffffffffffffffffffffffffffffff166333128d596040518163ffffffff1660e01b815260040160206040518083038186803b15801562003fed57600080fd5b505afa15801562004002573d6000803e3d6000fd5b505050506040513d60208110156200401957600080fd5b810190808051906020019092919050505073ffffffffffffffffffffffffffffffffffffffff161462004098576040517f08c379a0000000000000000000000000000000000000000000000000000000008152600401808060200182810382526029815260200180620085df6029913960400191505060405180910390fd5b6000603460009054906101000a900473ffffffffffffffffffffffffffffffffffffffff1673ffffffffffffffffffffffffffffffffffffffff1663ed6ff7606040518163ffffffff1660e01b815260040160206040518083038186803b1580156200410357600080fd5b505afa15801562004118573d6000803e3d6000fd5b505050506040513d60208110156200412f57600080fd5b810190808051906020019092919050505090508073ffffffffffffffffffffffffffffffffffffffff1663eede87c184846040518363ffffffff1660e01b8152600401808373ffffffffffffffffffffffffffffffffffffffff1673ffffffffffffffffffffffffffffffffffffffff1681526020018215151515815260200192505050600060405180830381600087803b158015620041ce57600080fd5b505af1158015620041e3573d6000803e3d6000fd5b505050507fab2f7f9e5ca2772fafa94f355c1842a80ae6b9e41f83083098d81f67d7a0b5088383604051808373ffffffffffffffffffffffffffffffffffffffff1673ffffffffffffffffffffffffffffffffffffffff168152602001821515151581526020019250505060405180910390a1505050565b3373ffffffffffffffffffffffffffffffffffffffff16603460009054906101000a900473ffffffffffffffffffffffffffffffffffffffff1673ffffffffffffffffffffffffffffffffffffffff166333128d596040518163ffffffff1660e01b815260040160206040518083038186803b158015620042db57600080fd5b505afa158015620042f0573d6000803e3d6000fd5b505050506040513d60208110156200430757600080fd5b810190808051906020019092919050505073ffffffffffffffffffffffffffffffffffffffff161462004386576040517f08c379a0000000000000000000000000000000000000000000000000000000008152600401808060200182810382526029815260200180620085df6029913960400191505060405180910390fd5b6000603460009054906101000a900473ffffffffffffffffffffffffffffffffffffffff1673ffffffffffffffffffffffffffffffffffffffff1663ed6ff7606040518163ffffffff1660e01b815260040160206040518083038186803b158015620043f157600080fd5b505afa15801562004406573d6000803e3d6000fd5b505050506040513d60208110156200441d57600080fd5b810190808051906020019092919050505090508073ffffffffffffffffffffffffffffffffffffffff1663ef1f9373836040518263ffffffff1660e01b8152600401808273ffffffffffffffffffffffffffffffffffffffff1673ffffffffffffffffffffffffffffffffffffffff168152602001915050600060405180830381600087803b158015620044b057600080fd5b505af1158015620044c5573d6000803e3d6000fd5b505050508173ffffffffffffffffffffffffffffffffffffffff167f995959c2ceab6ce20e8cd89c904e449fd3e21918a0f420c9ec9340595585526b60405160405180910390a25050565b60006003905090565b600080303b90506000811491505090565b6140a680620045398339019056fe60806040523480156200001157600080fd5b50604051620040a6380380620040a6833981810160405260a08110156200003757600080fd5b81019080805190602001909291908051906020019092919080519060200190929190805160405193929190846401000000008211156200007657600080fd5b838201915060208201858111156200008d57600080fd5b8251866001820283011164010000000082111715620000ab57600080fd5b8083526020830192505050908051906020019080838360005b83811015620000e1578082015181840152602081019050620000c4565b50505050905090810190601f1680156200010f5780820380516001836020036101000a031916815260200191505b50604052602001805160405193929190846401000000008211156200013357600080fd5b838201915060208201858111156200014a57600080fd5b82518660018202830111640100000000821117156200016857600080fd5b8083526020830192505050908051906020019080838360005b838110156200019e57808201518184015260208101905062000181565b50505050905090810190601f168015620001cc5780820380516001836020036101000a031916815260200191505b506040525050508181848260039080519060200190620001ee92919062000565565b5081600490805190602001906200020792919062000565565b5080600560006101000a81548160ff021916908360ff16021790555050505084600a60006101000a81548173ffffffffffffffffffffffffffffffffffffffff021916908373ffffffffffffffffffffffffffffffffffffffff160217905550600a60009054906101000a900473ffffffffffffffffffffffffffffffffffffffff1673ffffffffffffffffffffffffffffffffffffffff1663ed6ff7606040518163ffffffff1660e01b815260040160206040518083038186803b158015620002d057600080fd5b505afa158015620002e5573d6000803e3d6000fd5b505050506040513d6020811015620002fc57600080fd5b8101908080519060200190929190505050600b60006101000a81548173ffffffffffffffffffffffffffffffffffffffff021916908373ffffffffffffffffffffffffffffffffffffffff160217905550600a60009054906101000a900473ffffffffffffffffffffffffffffffffffffffff1673ffffffffffffffffffffffffffffffffffffffff16630261bf8b6040518163ffffffff1660e01b815260040160206040518083038186803b158015620003b657600080fd5b505afa158015620003cb573d6000803e3d6000fd5b505050506040513d6020811015620003e257600080fd5b8101908080519060200190929190505050600c60006101000a81548173ffffffffffffffffffffffffffffffffffffffff021916908373ffffffffffffffffffffffffffffffffffffffff160217905550600a60009054906101000a900473ffffffffffffffffffffffffffffffffffffffff1673ffffffffffffffffffffffffffffffffffffffff16632f58b80d6040518163ffffffff1660e01b815260040160206040518083038186803b1580156200049c57600080fd5b505afa158015620004b1573d6000803e3d6000fd5b505050506040513d6020811015620004c857600080fd5b8101908080519060200190929190505050600d60006101000a81548173ffffffffffffffffffffffffffffffffffffffff021916908373ffffffffffffffffffffffffffffffffffffffff16021790555083600560016101000a81548173ffffffffffffffffffffffffffffffffffffffff021916908373ffffffffffffffffffffffffffffffffffffffff160217905550505050505062000614565b828054600181600116156101000203166002900490600052602060002090601f016020900481019282601f10620005a857805160ff1916838001178555620005d9565b82800160010185558215620005d9579182015b82811115620005d8578251825591602001919060010190620005bb565b5b509050620005e89190620005ec565b5090565b6200061191905b808211156200060d576000816000905550600101620005f3565b5090565b90565b613a8280620006246000396000f3fe608060405234801561001057600080fd5b50600436106101735760003560e01c80635eae177c116100de578063a9059cbb11610097578063db006a7511610071578063db006a75146108c0578063dd62ed3e146108ee578063ee9907a414610966578063f866c319146109be57610173565b8063a9059cbb146107e4578063c634dfaa1461084a578063d0fc81d2146108a257610173565b80635eae177c146105a557806370a082311461060b57806389d1a0fc1461066357806394362e8b146106ad57806395d89b41146106fb578063a457c2d71461077e57610173565b806323b872dd1161013057806323b872dd1461035f578063313ce567146103e5578063325a9b1314610409578063395093511461046d5780633edb7cb8146104d3578063445e80101461052157610173565b806306fdde0314610178578063095ea7b3146101fb5780630e49072d1461026157806312c87c2d146102a557806318160ddd146102e95780631d51e7cf14610307575b600080fd5b610180610a2c565b6040518080602001828103825283818151815260200191508051906020019080838360005b838110156101c05780820151818401526020810190506101a5565b50505050905090810190601f1680156101ed5780820380516001836020036101000a031916815260200191505b509250505060405180910390f35b6102476004803603604081101561021157600080fd5b81019080803573ffffffffffffffffffffffffffffffffffffffff16906020019092919080359060200190929190505050610ace565b604051808215151515815260200191505060405180910390f35b6102a36004803603602081101561027757600080fd5b81019080803573ffffffffffffffffffffffffffffffffffffffff169060200190929190505050610aec565b005b6102e7600480360360208110156102bb57600080fd5b81019080803573ffffffffffffffffffffffffffffffffffffffff169060200190929190505050610af9565b005b6102f1610c59565b6040518082815260200191505060405180910390f35b6103496004803603602081101561031d57600080fd5b81019080803573ffffffffffffffffffffffffffffffffffffffff169060200190929190505050610d9e565b6040518082815260200191505060405180910390f35b6103cb6004803603606081101561037557600080fd5b81019080803573ffffffffffffffffffffffffffffffffffffffff169060200190929190803573ffffffffffffffffffffffffffffffffffffffff16906020019092919080359060200190929190505050610de7565b604051808215151515815260200191505060405180910390f35b6103ed610ec0565b604051808260ff1660ff16815260200191505060405180910390f35b61046b6004803603604081101561041f57600080fd5b81019080803573ffffffffffffffffffffffffffffffffffffffff169060200190929190803573ffffffffffffffffffffffffffffffffffffffff169060200190929190505050610ed7565b005b6104b96004803603604081101561048357600080fd5b81019080803573ffffffffffffffffffffffffffffffffffffffff16906020019092919080359060200190929190505050610fc8565b604051808215151515815260200191505060405180910390f35b61051f600480360360408110156104e957600080fd5b81019080803573ffffffffffffffffffffffffffffffffffffffff1690602001909291908035906020019092919050505061107b565b005b6105636004803603602081101561053757600080fd5b81019080803573ffffffffffffffffffffffffffffffffffffffff1690602001909291905050506111ea565b604051808273ffffffffffffffffffffffffffffffffffffffff1673ffffffffffffffffffffffffffffffffffffffff16815260200191505060405180910390f35b6105f1600480360360408110156105bb57600080fd5b81019080803573ffffffffffffffffffffffffffffffffffffffff16906020019092919080359060200190929190505050611253565b604051808215151515815260200191505060405180910390f35b61064d6004803603602081101561062157600080fd5b81019080803573ffffffffffffffffffffffffffffffffffffffff169060200190929190505050611395565b6040518082815260200191505060405180910390f35b61066b61150a565b604051808273ffffffffffffffffffffffffffffffffffffffff1673ffffffffffffffffffffffffffffffffffffffff16815260200191505060405180910390f35b6106f9600480360360408110156106c357600080fd5b81019080803573ffffffffffffffffffffffffffffffffffffffff16906020019092919080359060200190929190505050611530565b005b610703611674565b6040518080602001828103825283818151815260200191508051906020019080838360005b83811015610743578082015181840152602081019050610728565b50505050905090810190601f1680156107705780820380516001836020036101000a031916815260200191505b509250505060405180910390f35b6107ca6004803603604081101561079457600080fd5b81019080803573ffffffffffffffffffffffffffffffffffffffff16906020019092919080359060200190929190505050611716565b604051808215151515815260200191505060405180910390f35b610830600480360360408110156107fa57600080fd5b81019080803573ffffffffffffffffffffffffffffffffffffffff169060200190929190803590602001909291905050506117e3565b604051808215151515815260200191505060405180910390f35b61088c6004803603602081101561086057600080fd5b81019080803573ffffffffffffffffffffffffffffffffffffffff169060200190929190505050611801565b6040518082815260200191505060405180910390f35b6108aa611813565b6040518082815260200191505060405180910390f35b6108ec600480360360208110156108d657600080fd5b8101908080359060200190929190505050611837565b005b6109506004803603604081101561090457600080fd5b81019080803573ffffffffffffffffffffffffffffffffffffffff169060200190929190803573ffffffffffffffffffffffffffffffffffffffff169060200190929190505050611bad565b6040518082815260200191505060405180910390f35b6109a86004803603602081101561097c57600080fd5b81019080803573ffffffffffffffffffffffffffffffffffffffff169060200190929190505050611c34565b6040518082815260200191505060405180910390f35b610a2a600480360360608110156109d457600080fd5b81019080803573ffffffffffffffffffffffffffffffffffffffff169060200190929190803573ffffffffffffffffffffffffffffffffffffffff16906020019092919080359060200190929190505050611c7d565b005b606060038054600181600116156101000203166002900480601f016020809104026020016040519081016040528092919081815260200182805460018160011615610100020316600290048015610ac45780601f10610a9957610100808354040283529160200191610ac4565b820191906000526020600020905b815481529060010190602001808311610aa757829003601f168201915b5050505050905090565b6000610ae2610adb611d33565b8484611d3b565b6001905092915050565b610af63382611f32565b50565b3373ffffffffffffffffffffffffffffffffffffffff168173ffffffffffffffffffffffffffffffffffffffff161415610b7e576040517f08c379a00000000000000000000000000000000000000000000000000000000081526004018080602001828103825260258152602001806138496025913960400191505060405180910390fd5b80600960003373ffffffffffffffffffffffffffffffffffffffff1673ffffffffffffffffffffffffffffffffffffffff16815260200190815260200160002060006101000a81548173ffffffffffffffffffffffffffffffffffffffff021916908373ffffffffffffffffffffffffffffffffffffffff1602179055508073ffffffffffffffffffffffffffffffffffffffff163373ffffffffffffffffffffffffffffffffffffffff167fc2d6a42a9d5273283f73009a07aacfb043f2f91173a8d9d33b504afe898db08b60405160405180910390a350565b600080610c64612308565b90506000811415610c79576000915050610d9b565b610d97610d92600b60009054906101000a900473ffffffffffffffffffffffffffffffffffffffff1673ffffffffffffffffffffffffffffffffffffffff1663d15e0053600560019054906101000a900473ffffffffffffffffffffffffffffffffffffffff166040518263ffffffff1660e01b8152600401808273ffffffffffffffffffffffffffffffffffffffff1673ffffffffffffffffffffffffffffffffffffffff16815260200191505060206040518083038186803b158015610d4057600080fd5b505afa158015610d54573d6000803e3d6000fd5b505050506040513d6020811015610d6a57600080fd5b8101908080519060200190929190505050610d8484612312565b61233290919063ffffffff16565b612395565b9150505b90565b6000600860008373ffffffffffffffffffffffffffffffffffffffff1673ffffffffffffffffffffffffffffffffffffffff168152602001908152602001600020549050919050565b6000610df48484846123da565b610eb584610e00611d33565b610eb08560405180606001604052806028815260200161388f60289139600160008b73ffffffffffffffffffffffffffffffffffffffff1673ffffffffffffffffffffffffffffffffffffffff1681526020019081526020016000206000610e66611d33565b73ffffffffffffffffffffffffffffffffffffffff1673ffffffffffffffffffffffffffffffffffffffff1681526020019081526020016000205461246a9092919063ffffffff16565b611d3b565b600190509392505050565b6000600560009054906101000a900460ff16905090565b600960008373ffffffffffffffffffffffffffffffffffffffff1673ffffffffffffffffffffffffffffffffffffffff16815260200190815260200160002060009054906101000a900473ffffffffffffffffffffffffffffffffffffffff1673ffffffffffffffffffffffffffffffffffffffff163373ffffffffffffffffffffffffffffffffffffffff1614610fba576040517f08c379a000000000000000000000000000000000000000000000000000000000815260040180806020018281038252603a815260200180613a14603a913960400191505060405180910390fd5b610fc48282611f32565b5050565b6000611071610fd5611d33565b8461106c8560016000610fe6611d33565b73ffffffffffffffffffffffffffffffffffffffff1673ffffffffffffffffffffffffffffffffffffffff16815260200190815260200160002060008973ffffffffffffffffffffffffffffffffffffffff1673ffffffffffffffffffffffffffffffffffffffff1681526020019081526020016000205461252a90919063ffffffff16565b611d3b565b6001905092915050565b600c60009054906101000a900473ffffffffffffffffffffffffffffffffffffffff1673ffffffffffffffffffffffffffffffffffffffff163373ffffffffffffffffffffffffffffffffffffffff1614611121576040517f08c379a00000000000000000000000000000000000000000000000000000000081526004018080602001828103825260328152602001806139bd6032913960400191505060405180910390fd5b600080600061112f856125b2565b93509350935050611141858386612758565b61114b8585612a4e565b600080905060006111658686612c0690919063ffffffff16565b14156111775761117486612c50565b90505b8573ffffffffffffffffffffffffffffffffffffffff167f90e5d3d68ec162d9c7de393037a3ede04dd44f68e051bf2ace4a73c299dbc4db8685846111bc57856111bf565b60005b60405180848152602001838152602001828152602001935050505060405180910390a2505050505050565b6000600760008373ffffffffffffffffffffffffffffffffffffffff1673ffffffffffffffffffffffffffffffffffffffff16815260200190815260200160002060009054906101000a900473ffffffffffffffffffffffffffffffffffffffff169050919050565b6000600d60009054906101000a900473ffffffffffffffffffffffffffffffffffffffff1673ffffffffffffffffffffffffffffffffffffffff166376e9d615600560019054906101000a900473ffffffffffffffffffffffffffffffffffffffff1685856040518463ffffffff1660e01b8152600401808473ffffffffffffffffffffffffffffffffffffffff1673ffffffffffffffffffffffffffffffffffffffff1681526020018373ffffffffffffffffffffffffffffffffffffffff1673ffffffffffffffffffffffffffffffffffffffff168152602001828152602001935050505060206040518083038186803b15801561135257600080fd5b505afa158015611366573d6000803e3d6000fd5b505050506040513d602081101561137c57600080fd5b8101908080519060200190929190505050905092915050565b6000806113a183612de8565b90506000600860008573ffffffffffffffffffffffffffffffffffffffff1673ffffffffffffffffffffffffffffffffffffffff1681526020019081526020016000205490506000821480156113f75750600081145b1561140757600092505050611505565b600073ffffffffffffffffffffffffffffffffffffffff16600760008673ffffffffffffffffffffffffffffffffffffffff1673ffffffffffffffffffffffffffffffffffffffff16815260200190815260200160002060009054906101000a900473ffffffffffffffffffffffffffffffffffffffff1673ffffffffffffffffffffffffffffffffffffffff1614156114d2576114c9816114bb866114b6858761252a90919063ffffffff16565b612e30565b612c0690919063ffffffff16565b92505050611505565b6115006114f1826114e38785612e30565b612c0690919063ffffffff16565b8361252a90919063ffffffff16565b925050505b919050565b600560019054906101000a900473ffffffffffffffffffffffffffffffffffffffff1681565b600c60009054906101000a900473ffffffffffffffffffffffffffffffffffffffff1673ffffffffffffffffffffffffffffffffffffffff163373ffffffffffffffffffffffffffffffffffffffff16146115d6576040517f08c379a00000000000000000000000000000000000000000000000000000000081526004018080602001828103825260328152602001806139bd6032913960400191505060405180910390fd5b6000806115e2846125b2565b935093505050611606846115ff858561252a90919063ffffffff16565b6000612758565b6116108484612fa9565b8373ffffffffffffffffffffffffffffffffffffffff167fbe7799898ca2d813ff902b487c1b434ab45b47edd8f38b77ad5e99aae8341b7a84848460405180848152602001838152602001828152602001935050505060405180910390a250505050565b606060048054600181600116156101000203166002900480601f01602080910402602001604051908101604052809291908181526020018280546001816001161561010002031660029004801561170c5780601f106116e15761010080835404028352916020019161170c565b820191906000526020600020905b8154815290600101906020018083116116ef57829003601f168201915b5050505050905090565b60006117d9611723611d33565b846117d4856040518060600160405280602581526020016139ef602591396001600061174d611d33565b73ffffffffffffffffffffffffffffffffffffffff1673ffffffffffffffffffffffffffffffffffffffff16815260200190815260200160002060008a73ffffffffffffffffffffffffffffffffffffffff1673ffffffffffffffffffffffffffffffffffffffff1681526020019081526020016000205461246a9092919063ffffffff16565b611d3b565b6001905092915050565b60006117f76117f0611d33565b84846123da565b6001905092915050565b600061180c82612de8565b9050919050565b7fffffffffffffffffffffffffffffffffffffffffffffffffffffffffffffffff81565b600081116118ad576040517f08c379a00000000000000000000000000000000000000000000000000000000081526004018080602001828103825260208152602001807f416d6f756e7420746f2072656465656d206e6565647320746f206265203e203081525060200191505060405180910390fd5b60008060006118bb336125b2565b9350935093505060008490507fffffffffffffffffffffffffffffffffffffffffffffffffffffffffffffffff8514156118f3578390505b8381111561194c576040517f08c379a00000000000000000000000000000000000000000000000000000000081526004018080602001828103825260328152602001806137cf6032913960400191505060405180910390fd5b6119563382611253565b6119c8576040517f08c379a000000000000000000000000000000000000000000000000000000000815260040180806020018281038252601b8152602001807f5472616e736665722063616e6e6f7420626520616c6c6f7765642e000000000081525060200191505060405180910390fd5b6119d3338483612758565b6119dd3382612a4e565b600080905060006119f78387612c0690919063ffffffff16565b1415611a0957611a0633612c50565b90505b600c60009054906101000a900473ffffffffffffffffffffffffffffffffffffffff1673ffffffffffffffffffffffffffffffffffffffff16639895e3d8600560019054906101000a900473ffffffffffffffffffffffffffffffffffffffff163385611a7f878b612c0690919063ffffffff16565b6040518563ffffffff1660e01b8152600401808573ffffffffffffffffffffffffffffffffffffffff1673ffffffffffffffffffffffffffffffffffffffff1681526020018473ffffffffffffffffffffffffffffffffffffffff1673ffffffffffffffffffffffffffffffffffffffff168152602001838152602001828152602001945050505050600060405180830381600087803b158015611b2257600080fd5b505af1158015611b36573d6000803e3d6000fd5b505050503373ffffffffffffffffffffffffffffffffffffffff167fbd5034ffbd47e4e72a94baa2cdb74c6fad73cb3bcdc13036b72ec8306f5a7646838684611b7f5786611b82565b60005b60405180848152602001838152602001828152602001935050505060405180910390a2505050505050565b6000600160008473ffffffffffffffffffffffffffffffffffffffff1673ffffffffffffffffffffffffffffffffffffffff16815260200190815260200160002060008373ffffffffffffffffffffffffffffffffffffffff1673ffffffffffffffffffffffffffffffffffffffff16815260200190815260200160002054905092915050565b6000600660008373ffffffffffffffffffffffffffffffffffffffff1673ffffffffffffffffffffffffffffffffffffffff168152602001908152602001600020549050919050565b600c60009054906101000a900473ffffffffffffffffffffffffffffffffffffffff1673ffffffffffffffffffffffffffffffffffffffff163373ffffffffffffffffffffffffffffffffffffffff1614611d23576040517f08c379a00000000000000000000000000000000000000000000000000000000081526004018080602001828103825260328152602001806139bd6032913960400191505060405180910390fd5b611d2e838383613164565b505050565b600033905090565b600073ffffffffffffffffffffffffffffffffffffffff168373ffffffffffffffffffffffffffffffffffffffff161415611dc1576040517f08c379a00000000000000000000000000000000000000000000000000000000081526004018080602001828103825260248152602001806139996024913960400191505060405180910390fd5b600073ffffffffffffffffffffffffffffffffffffffff168273ffffffffffffffffffffffffffffffffffffffff161415611e47576040517f08c379a00000000000000000000000000000000000000000000000000000000081526004018080602001828103825260228152602001806138016022913960400191505060405180910390fd5b80600160008573ffffffffffffffffffffffffffffffffffffffff1673ffffffffffffffffffffffffffffffffffffffff16815260200190815260200160002060008473ffffffffffffffffffffffffffffffffffffffff1673ffffffffffffffffffffffffffffffffffffffff168152602001908152602001600020819055508173ffffffffffffffffffffffffffffffffffffffff168373ffffffffffffffffffffffffffffffffffffffff167f8c5be1e5ebec7d5bd14f71427d1e84f3dd0314c0f7b2291e5b200ac8c7c3b925836040518082815260200191505060405180910390a3505050565b6000600760008473ffffffffffffffffffffffffffffffffffffffff1673ffffffffffffffffffffffffffffffffffffffff16815260200190815260200160002060009054906101000a900473ffffffffffffffffffffffffffffffffffffffff1690508073ffffffffffffffffffffffffffffffffffffffff168273ffffffffffffffffffffffffffffffffffffffff16141561201b576040517f08c379a000000000000000000000000000000000000000000000000000000000815260040180806020018281038252602a8152602001806138b7602a913960400191505060405180910390fd5b60008060008061202a876125b2565b93509350935093506000831161208b576040517f08c379a00000000000000000000000000000000000000000000000000000000081526004018080602001828103825260428152602001806138e16042913960600191505060405180910390fd5b600073ffffffffffffffffffffffffffffffffffffffff168573ffffffffffffffffffffffffffffffffffffffff16146120cc576120cb87600086612758565b5b8673ffffffffffffffffffffffffffffffffffffffff168673ffffffffffffffffffffffffffffffffffffffff1614156121ff576000600760008973ffffffffffffffffffffffffffffffffffffffff1673ffffffffffffffffffffffffffffffffffffffff16815260200190815260200160002060006101000a81548173ffffffffffffffffffffffffffffffffffffffff021916908373ffffffffffffffffffffffffffffffffffffffff160217905550600073ffffffffffffffffffffffffffffffffffffffff168773ffffffffffffffffffffffffffffffffffffffff167f5e3cad45b1fe24159d1cb39788d82d0f69cc15770aa96fba1d3d1a734873559485858560405180848152602001838152602001828152602001935050505060405180910390a35050505050612304565b85600760008973ffffffffffffffffffffffffffffffffffffffff1673ffffffffffffffffffffffffffffffffffffffff16815260200190815260200160002060006101000a81548173ffffffffffffffffffffffffffffffffffffffff021916908373ffffffffffffffffffffffffffffffffffffffff16021790555061228987846000612758565b8573ffffffffffffffffffffffffffffffffffffffff168773ffffffffffffffffffffffffffffffffffffffff167f5e3cad45b1fe24159d1cb39788d82d0f69cc15770aa96fba1d3d1a734873559485858560405180848152602001838152602001828152602001935050505060405180910390a350505050505b5050565b6000600254905090565b600061232b633b9aca00836132e190919063ffffffff16565b9050919050565b600061238d6b033b2e3c9fd0803ce800000061237f61235a85876132e190919063ffffffff16565b60026b033b2e3c9fd0803ce80000008161237057fe5b0461252a90919063ffffffff16565b61336790919063ffffffff16565b905092915050565b6000806002633b9aca00816123a657fe5b0490506123d2633b9aca006123c4858461252a90919063ffffffff16565b61336790919063ffffffff16565b915050919050565b82816123e68282611253565b612458576040517f08c379a000000000000000000000000000000000000000000000000000000000815260040180806020018281038252601b8152602001807f5472616e736665722063616e6e6f7420626520616c6c6f7765642e000000000081525060200191505060405180910390fd5b612463858585613164565b5050505050565b6000838311158290612517576040517f08c379a00000000000000000000000000000000000000000000000000000000081526004018080602001828103825283818151815260200191508051906020019080838360005b838110156124dc5780820151818401526020810190506124c1565b50505050905090810190601f1680156125095780820380516001836020036101000a031916815260200191505b509250505060405180910390fd5b5060008385039050809150509392505050565b6000808284019050838110156125a8576040517f08c379a000000000000000000000000000000000000000000000000000000000815260040180806020018281038252601b8152602001807f536166654d6174683a206164646974696f6e206f766572666c6f77000000000081525060200191505060405180910390fd5b8091505092915050565b60008060008060006125c386612de8565b905060006125e2826125d489611395565b612c0690919063ffffffff16565b90506125ee8782612fa9565b6000600b60009054906101000a900473ffffffffffffffffffffffffffffffffffffffff1673ffffffffffffffffffffffffffffffffffffffff1663d15e0053600560019054906101000a900473ffffffffffffffffffffffffffffffffffffffff166040518263ffffffff1660e01b8152600401808273ffffffffffffffffffffffffffffffffffffffff1673ffffffffffffffffffffffffffffffffffffffff16815260200191505060206040518083038186803b1580156126b157600080fd5b505afa1580156126c5573d6000803e3d6000fd5b505050506040513d60208110156126db57600080fd5b8101908080519060200190929190505050600660008a73ffffffffffffffffffffffffffffffffffffffff1673ffffffffffffffffffffffffffffffffffffffff168152602001908152602001600020819055905082612744838561252a90919063ffffffff16565b838396509650965096505050509193509193565b6000600760008573ffffffffffffffffffffffffffffffffffffffff1673ffffffffffffffffffffffffffffffffffffffff16815260200190815260200160002060009054906101000a900473ffffffffffffffffffffffffffffffffffffffff169050600073ffffffffffffffffffffffffffffffffffffffff168173ffffffffffffffffffffffffffffffffffffffff1614156127f75750612a49565b600080612803836125b2565b93509350505061286d8461285f87600860008873ffffffffffffffffffffffffffffffffffffffff1673ffffffffffffffffffffffffffffffffffffffff1681526020019081526020016000205461252a90919063ffffffff16565b612c0690919063ffffffff16565b600860008573ffffffffffffffffffffffffffffffffffffffff1673ffffffffffffffffffffffffffffffffffffffff168152602001908152602001600020819055506000600760008573ffffffffffffffffffffffffffffffffffffffff1673ffffffffffffffffffffffffffffffffffffffff16815260200190815260200160002060009054906101000a900473ffffffffffffffffffffffffffffffffffffffff169050600073ffffffffffffffffffffffffffffffffffffffff168173ffffffffffffffffffffffffffffffffffffffff16146129de5761299a83600860008473ffffffffffffffffffffffffffffffffffffffff1673ffffffffffffffffffffffffffffffffffffffff1681526020019081526020016000205461252a90919063ffffffff16565b600860008373ffffffffffffffffffffffffffffffffffffffff1673ffffffffffffffffffffffffffffffffffffffff168152602001908152602001600020819055505b8373ffffffffffffffffffffffffffffffffffffffff167f70ff8cf632603e2bfd1afb7e4061acce53d95356b1be9726b99fa22ba733b01f848489896040518085815260200184815260200183815260200182815260200194505050505060405180910390a2505050505b505050565b600073ffffffffffffffffffffffffffffffffffffffff168273ffffffffffffffffffffffffffffffffffffffff161415612ad4576040517f08c379a00000000000000000000000000000000000000000000000000000000081526004018080602001828103825260218152602001806139536021913960400191505060405180910390fd5b612b3f816040518060600160405280602281526020016137ad602291396000808673ffffffffffffffffffffffffffffffffffffffff1673ffffffffffffffffffffffffffffffffffffffff1681526020019081526020016000205461246a9092919063ffffffff16565b6000808473ffffffffffffffffffffffffffffffffffffffff1673ffffffffffffffffffffffffffffffffffffffff16815260200190815260200160002081905550612b9681600254612c0690919063ffffffff16565b600281905550600073ffffffffffffffffffffffffffffffffffffffff168273ffffffffffffffffffffffffffffffffffffffff167fddf252ad1be2c89b69c2b068fc378daa952ba7f163c4a11628f55a4df523b3ef836040518082815260200191505060405180910390a35050565b6000612c4883836040518060400160405280601e81526020017f536166654d6174683a207375627472616374696f6e206f766572666c6f77000081525061246a565b905092915050565b600080600760008473ffffffffffffffffffffffffffffffffffffffff1673ffffffffffffffffffffffffffffffffffffffff16815260200190815260200160002060006101000a81548173ffffffffffffffffffffffffffffffffffffffff021916908373ffffffffffffffffffffffffffffffffffffffff160217905550600073ffffffffffffffffffffffffffffffffffffffff168273ffffffffffffffffffffffffffffffffffffffff167f5e3cad45b1fe24159d1cb39788d82d0f69cc15770aa96fba1d3d1a7348735594600080600060405180848152602001838152602001828152602001935050505060405180910390a36000600860008473ffffffffffffffffffffffffffffffffffffffff1673ffffffffffffffffffffffffffffffffffffffff168152602001908152602001600020541415612dde576000600660008473ffffffffffffffffffffffffffffffffffffffff1673ffffffffffffffffffffffffffffffffffffffff1681526020019081526020016000208190555060019050612de3565b600090505b919050565b60008060008373ffffffffffffffffffffffffffffffffffffffff1673ffffffffffffffffffffffffffffffffffffffff168152602001908152602001600020549050919050565b6000612fa1612f9c600660008673ffffffffffffffffffffffffffffffffffffffff1673ffffffffffffffffffffffffffffffffffffffff16815260200190815260200160002054612f8e600b60009054906101000a900473ffffffffffffffffffffffffffffffffffffffff1673ffffffffffffffffffffffffffffffffffffffff1663d15e0053600560019054906101000a900473ffffffffffffffffffffffffffffffffffffffff166040518263ffffffff1660e01b8152600401808273ffffffffffffffffffffffffffffffffffffffff1673ffffffffffffffffffffffffffffffffffffffff16815260200191505060206040518083038186803b158015612f3c57600080fd5b505afa158015612f50573d6000803e3d6000fd5b505050506040513d6020811015612f6657600080fd5b8101908080519060200190929190505050612f8087612312565b61233290919063ffffffff16565b6133b190919063ffffffff16565b612395565b905092915050565b600073ffffffffffffffffffffffffffffffffffffffff168273ffffffffffffffffffffffffffffffffffffffff16141561304c576040517f08c379a000000000000000000000000000000000000000000000000000000000815260040180806020018281038252601f8152602001807f45524332303a206d696e7420746f20746865207a65726f20616464726573730081525060200191505060405180910390fd5b6130618160025461252a90919063ffffffff16565b6002819055506130b8816000808573ffffffffffffffffffffffffffffffffffffffff1673ffffffffffffffffffffffffffffffffffffffff1681526020019081526020016000205461252a90919063ffffffff16565b6000808473ffffffffffffffffffffffffffffffffffffffff1673ffffffffffffffffffffffffffffffffffffffff168152602001908152602001600020819055508173ffffffffffffffffffffffffffffffffffffffff16600073ffffffffffffffffffffffffffffffffffffffff167fddf252ad1be2c89b69c2b068fc378daa952ba7f163c4a11628f55a4df523b3ef836040518082815260200191505060405180910390a35050565b600081116131bd576040517f08c379a00000000000000000000000000000000000000000000000000000000081526004018080602001828103825260308152602001806139236030913960400191505060405180910390fd5b60008060006131cb866125b2565b935093509350506000806131de876125b2565b9350935050506131ef888588612758565b61320d87613206888561252a90919063ffffffff16565b6000612758565b61321888888861340d565b600080905060006132328888612c0690919063ffffffff16565b14156132445761324189612c50565b90505b8773ffffffffffffffffffffffffffffffffffffffff168973ffffffffffffffffffffffffffffffffffffffff167f89a178eaa27e0cd201bd795ca8ff716ac0df9618494510ca79771cfc66ffcde8898887866132a157896132a4565b60005b88604051808681526020018581526020018481526020018381526020018281526020019550505050505060405180910390a3505050505050505050565b6000808314156132f45760009050613361565b600082840290508284828161330557fe5b041461335c576040517f08c379a000000000000000000000000000000000000000000000000000000000815260040180806020018281038252602181526020018061386e6021913960400191505060405180910390fd5b809150505b92915050565b60006133a983836040518060400160405280601a81526020017f536166654d6174683a206469766973696f6e206279207a65726f0000000000008152506136c3565b905092915050565b600080600283816133be57fe5b049050613404836133f66133e76b033b2e3c9fd0803ce8000000886132e190919063ffffffff16565b8461252a90919063ffffffff16565b61336790919063ffffffff16565b91505092915050565b600073ffffffffffffffffffffffffffffffffffffffff168373ffffffffffffffffffffffffffffffffffffffff161415613493576040517f08c379a00000000000000000000000000000000000000000000000000000000081526004018080602001828103825260258152602001806139746025913960400191505060405180910390fd5b600073ffffffffffffffffffffffffffffffffffffffff168273ffffffffffffffffffffffffffffffffffffffff161415613519576040517f08c379a000000000000000000000000000000000000000000000000000000000815260040180806020018281038252602381526020018061378a6023913960400191505060405180910390fd5b61358481604051806060016040528060268152602001613823602691396000808773ffffffffffffffffffffffffffffffffffffffff1673ffffffffffffffffffffffffffffffffffffffff1681526020019081526020016000205461246a9092919063ffffffff16565b6000808573ffffffffffffffffffffffffffffffffffffffff1673ffffffffffffffffffffffffffffffffffffffff16815260200190815260200160002081905550613617816000808573ffffffffffffffffffffffffffffffffffffffff1673ffffffffffffffffffffffffffffffffffffffff1681526020019081526020016000205461252a90919063ffffffff16565b6000808473ffffffffffffffffffffffffffffffffffffffff1673ffffffffffffffffffffffffffffffffffffffff168152602001908152602001600020819055508173ffffffffffffffffffffffffffffffffffffffff168373ffffffffffffffffffffffffffffffffffffffff167fddf252ad1be2c89b69c2b068fc378daa952ba7f163c4a11628f55a4df523b3ef836040518082815260200191505060405180910390a3505050565b6000808311829061376f576040517f08c379a00000000000000000000000000000000000000000000000000000000081526004018080602001828103825283818151815260200191508051906020019080838360005b83811015613734578082015181840152602081019050613719565b50505050905090810190601f1680156137615780820380516001836020036101000a031916815260200191505b509250505060405180910390fd5b50600083858161377b57fe5b04905080915050939250505056fe45524332303a207472616e7366657220746f20746865207a65726f206164647265737345524332303a206275726e20616d6f756e7420657863656564732062616c616e6365557365722063616e6e6f742072656465656d206d6f7265207468616e2074686520617661696c61626c652062616c616e636545524332303a20617070726f766520746f20746865207a65726f206164647265737345524332303a207472616e7366657220616d6f756e7420657863656564732062616c616e6365557365722063616e6e6f74206769766520616c6c6f77616e636520746f2068696d73656c66536166654d6174683a206d756c7469706c69636174696f6e206f766572666c6f7745524332303a207472616e7366657220616d6f756e74206578636565647320616c6c6f77616e6365496e74657265737420697320616c7265616479207265646972656374656420746f207468652075736572496e7465726573742073747265616d2063616e206f6e6c79206265207265646972656374656420696620746865726520697320612076616c69642062616c616e63655472616e7366657272656420616d6f756e74206e6565647320746f2062652067726561746572207468616e207a65726f45524332303a206275726e2066726f6d20746865207a65726f206164647265737345524332303a207472616e736665722066726f6d20746865207a65726f206164647265737345524332303a20617070726f76652066726f6d20746865207a65726f20616464726573735468652063616c6c6572206f6620746869732066756e6374696f6e206d7573742062652061206c656e64696e6720706f6f6c45524332303a2064656372656173656420616c6c6f77616e63652062656c6f77207a65726f43616c6c6572206973206e6f7420616c6c6f77656420746f2072656469726563742074686520696e746572657374206f66207468652075736572a265627a7a7231582001576fe5d02de4de16eea5a64cdf647e6302e2a739759e4dd7710a809b6bd57164736f6c634300051000325468652063616c6c6572206d7573742062652061206c656e64696e6720706f6f6c206d616e61676572436f6e747261637420696e7374616e63652068617320616c7265616479206265656e20696e697469616c697a6564546865206c6971756964697479206f66207468652072657365727665206e6565647320746f2062652030a265627a7a723158203c0f6e0e09dd46acc4efa992fee248e7b56e1fbe0d237ae3d9583d3db1a5043164736f6c63430005100032",
  "source": "pragma solidity ^0.5.0;\n\nimport \"openzeppelin-solidity/contracts/math/SafeMath.sol\";\nimport \"openzeppelin-solidity/contracts/token/ERC20/ERC20Detailed.sol\";\nimport \"../libraries/openzeppelin-upgradeability/VersionedInitializable.sol\";\nimport \"../configuration/LendingPoolAddressesProvider.sol\";\nimport \"./LendingPoolCore.sol\";\nimport \"../tokenization/AToken.sol\";\n\n/**\n* @title LendingPoolConfigurator contract\n* @author Aave\n* @notice Executes configuration methods on the LendingPoolCore contract. Allows to enable/disable reserves,\n* and set different protocol parameters.\n**/\n\ncontract LendingPoolConfigurator is VersionedInitializable {\n    using SafeMath for uint256;\n\n    /**\n    * @dev emitted when a reserve is initialized.\n    * @param _reserve the address of the reserve\n    * @param _aToken the address of the overlying aToken contract\n    * @param _interestRateStrategyAddress the address of the interest rate strategy for the reserve\n    **/\n    event ReserveInitialized(\n        address indexed _reserve,\n        address indexed _aToken,\n        address _interestRateStrategyAddress\n    );\n\n    /**\n    * @dev emitted when a reserve is removed.\n    * @param _reserve the address of the reserve\n    **/\n    event ReserveRemoved(\n        address indexed _reserve\n    );\n\n    /**\n    * @dev emitted when borrowing is enabled on a reserve\n    * @param _reserve the address of the reserve\n    * @param _stableRateEnabled true if stable rate borrowing is enabled, false otherwise\n    **/\n    event BorrowingEnabledOnReserve(address _reserve, bool _stableRateEnabled);\n\n    /**\n    * @dev emitted when borrowing is disabled on a reserve\n    * @param _reserve the address of the reserve\n    **/\n    event BorrowingDisabledOnReserve(address indexed _reserve);\n\n    /**\n    * @dev emitted when a reserve is enabled as collateral.\n    * @param _reserve the address of the reserve\n    * @param _ltv the loan to value of the asset when used as collateral\n    * @param _liquidationThreshold the threshold at which loans using this asset as collateral will be considered undercollateralized\n    * @param _liquidationBonus the bonus liquidators receive to liquidate this asset\n    **/\n    event ReserveEnabledAsCollateral(\n        address indexed _reserve,\n        uint256 _ltv,\n        uint256 _liquidationThreshold,\n        uint256 _liquidationBonus\n    );\n\n    /**\n    * @dev emitted when a reserve is disabled as collateral\n    * @param _reserve the address of the reserve\n    **/\n    event ReserveDisabledAsCollateral(address indexed _reserve);\n\n    /**\n    * @dev emitted when stable rate borrowing is enabled on a reserve\n    * @param _reserve the address of the reserve\n    **/\n    event StableRateEnabledOnReserve(address indexed _reserve);\n\n    /**\n    * @dev emitted when stable rate borrowing is disabled on a reserve\n    * @param _reserve the address of the reserve\n    **/\n    event StableRateDisabledOnReserve(address indexed _reserve);\n\n    /**\n    * @dev emitted when a reserve is activated\n    * @param _reserve the address of the reserve\n    **/\n    event ReserveActivated(address indexed _reserve);\n\n    /**\n    * @dev emitted when a reserve is deactivated\n    * @param _reserve the address of the reserve\n    **/\n    event ReserveDeactivated(address indexed _reserve);\n\n    /**\n    * @dev emitted when a reserve is freezed\n    * @param _reserve the address of the reserve\n    **/\n    event ReserveFreezed(address indexed _reserve);\n\n    /**\n    * @dev emitted when a reserve is unfreezed\n    * @param _reserve the address of the reserve\n    **/\n    event ReserveUnfreezed(address indexed _reserve);\n\n    /**\n    * @dev emitted when a reserve loan to value is updated\n    * @param _reserve the address of the reserve\n    * @param _ltv the new value for the loan to value\n    **/\n    event ReserveBaseLtvChanged(address _reserve, uint256 _ltv);\n\n    /**\n    * @dev emitted when a reserve liquidation threshold is updated\n    * @param _reserve the address of the reserve\n    * @param _threshold the new value for the liquidation threshold\n    **/\n    event ReserveLiquidationThresholdChanged(address _reserve, uint256 _threshold);\n\n    /**\n    * @dev emitted when a reserve liquidation bonus is updated\n    * @param _reserve the address of the reserve\n    * @param _bonus the new value for the liquidation bonus\n    **/\n    event ReserveLiquidationBonusChanged(address _reserve, uint256 _bonus);\n\n    /**\n    * @dev emitted when the reserve decimals are updated\n    * @param _reserve the address of the reserve\n    * @param _decimals the new decimals\n    **/\n    event ReserveDecimalsChanged(address _reserve, uint256 _decimals);\n\n\n    /**\n    * @dev emitted when a reserve interest strategy contract is updated\n    * @param _reserve the address of the reserve\n    * @param _strategy the new address of the interest strategy contract\n    **/\n    event ReserveInterestRateStrategyChanged(address _reserve, address _strategy);\n\n    LendingPoolAddressesProvider public poolAddressesProvider;\n    /**\n    * @dev only the lending pool manager can call functions affected by this modifier\n    **/\n    modifier onlyLendingPoolManager {\n        require(\n            poolAddressesProvider.getLendingPoolManager() == msg.sender,\n            \"The caller must be a lending pool manager\"\n        );\n        _;\n    }\n\n    uint256 public constant CONFIGURATOR_REVISION = 0x3;\n\n    function getRevision() internal pure returns (uint256) {\n        return CONFIGURATOR_REVISION;\n    }\n\n    function initialize(LendingPoolAddressesProvider _poolAddressesProvider) public initializer {\n        poolAddressesProvider = _poolAddressesProvider;\n    }\n\n    /**\n    * @dev initializes a reserve\n    * @param _reserve the address of the reserve to be initialized\n    * @param _underlyingAssetDecimals the decimals of the reserve underlying asset\n    * @param _interestRateStrategyAddress the address of the interest rate strategy contract for this reserve\n    **/\n    function initReserve(\n        address _reserve,\n        uint8 _underlyingAssetDecimals,\n        address _interestRateStrategyAddress\n    ) external onlyLendingPoolManager {\n        ERC20Detailed asset = ERC20Detailed(_reserve);\n\n        string memory aTokenName = string(abi.encodePacked(\"Aave Interest bearing \", asset.name()));\n        string memory aTokenSymbol = string(abi.encodePacked(\"a\", asset.symbol()));\n\n        initReserveWithData(\n            _reserve,\n            aTokenName,\n            aTokenSymbol,\n            _underlyingAssetDecimals,\n            _interestRateStrategyAddress\n        );\n\n    }\n\n    /**\n    * @dev initializes a reserve using aTokenData provided externally (useful if the underlying ERC20 contract doesn't expose name or decimals)\n    * @param _reserve the address of the reserve to be initialized\n    * @param _aTokenName the name of the aToken contract\n    * @param _aTokenSymbol the symbol of the aToken contract\n    * @param _underlyingAssetDecimals the decimals of the reserve underlying asset\n    * @param _interestRateStrategyAddress the address of the interest rate strategy contract for this reserve\n    **/\n    function initReserveWithData(\n        address _reserve,\n        string memory _aTokenName,\n        string memory _aTokenSymbol,\n        uint8 _underlyingAssetDecimals,\n        address _interestRateStrategyAddress\n    ) public onlyLendingPoolManager {\n        LendingPoolCore core = LendingPoolCore(poolAddressesProvider.getLendingPoolCore());\n\n        AToken aTokenInstance = new AToken(\n            poolAddressesProvider,\n            _reserve,\n            _underlyingAssetDecimals,\n            _aTokenName,\n            _aTokenSymbol\n        );\n        core.initReserve(\n            _reserve,\n            address(aTokenInstance),\n            _underlyingAssetDecimals,\n            _interestRateStrategyAddress\n        );\n\n        emit ReserveInitialized(\n            _reserve,\n            address(aTokenInstance),\n            _interestRateStrategyAddress\n        );\n    }\n\n    /**\n    * @dev removes the last added reserve in the list of the reserves\n    * @param _reserveToRemove the address of the reserve\n    **/\n    function removeLastAddedReserve( address _reserveToRemove) external onlyLendingPoolManager {\n        LendingPoolCore core = LendingPoolCore(poolAddressesProvider.getLendingPoolCore());\n        core.removeLastAddedReserve(_reserveToRemove);\n        emit ReserveRemoved(_reserveToRemove);\n    }\n\n    /**\n    * @dev enables borrowing on a reserve\n    * @param _reserve the address of the reserve\n    * @param _stableBorrowRateEnabled true if stable borrow rate needs to be enabled by default on this reserve\n    **/\n    function enableBorrowingOnReserve(address _reserve, bool _stableBorrowRateEnabled)\n        external\n        onlyLendingPoolManager\n    {\n        LendingPoolCore core = LendingPoolCore(poolAddressesProvider.getLendingPoolCore());\n        core.enableBorrowingOnReserve(_reserve, _stableBorrowRateEnabled);\n        emit BorrowingEnabledOnReserve(_reserve, _stableBorrowRateEnabled);\n    }\n\n    /**\n    * @dev disables borrowing on a reserve\n    * @param _reserve the address of the reserve\n    **/\n    function disableBorrowingOnReserve(address _reserve) external onlyLendingPoolManager {\n        LendingPoolCore core = LendingPoolCore(poolAddressesProvider.getLendingPoolCore());\n        core.disableBorrowingOnReserve(_reserve);\n\n        emit BorrowingDisabledOnReserve(_reserve);\n    }\n\n    /**\n    * @dev enables a reserve to be used as collateral\n    * @param _reserve the address of the reserve\n    * @param _baseLTVasCollateral the loan to value of the asset when used as collateral\n    * @param _liquidationThreshold the threshold at which loans using this asset as collateral will be considered undercollateralized\n    * @param _liquidationBonus the bonus liquidators receive to liquidate this asset\n    **/\n    function enableReserveAsCollateral(\n        address _reserve,\n        uint256 _baseLTVasCollateral,\n        uint256 _liquidationThreshold,\n        uint256 _liquidationBonus\n    ) external onlyLendingPoolManager {\n        LendingPoolCore core = LendingPoolCore(poolAddressesProvider.getLendingPoolCore());\n        core.enableReserveAsCollateral(\n            _reserve,\n            _baseLTVasCollateral,\n            _liquidationThreshold,\n            _liquidationBonus\n        );\n        emit ReserveEnabledAsCollateral(\n            _reserve,\n            _baseLTVasCollateral,\n            _liquidationThreshold,\n            _liquidationBonus\n        );\n    }\n\n    /**\n    * @dev disables a reserve as collateral\n    * @param _reserve the address of the reserve\n    **/\n    function disableReserveAsCollateral(address _reserve) external onlyLendingPoolManager {\n        LendingPoolCore core = LendingPoolCore(poolAddressesProvider.getLendingPoolCore());\n        core.disableReserveAsCollateral(_reserve);\n\n        emit ReserveDisabledAsCollateral(_reserve);\n    }\n\n    /**\n    * @dev enable stable rate borrowing on a reserve\n    * @param _reserve the address of the reserve\n    **/\n    function enableReserveStableBorrowRate(address _reserve) external onlyLendingPoolManager {\n        LendingPoolCore core = LendingPoolCore(poolAddressesProvider.getLendingPoolCore());\n        core.enableReserveStableBorrowRate(_reserve);\n\n        emit StableRateEnabledOnReserve(_reserve);\n    }\n\n    /**\n    * @dev disable stable rate borrowing on a reserve\n    * @param _reserve the address of the reserve\n    **/\n    function disableReserveStableBorrowRate(address _reserve) external onlyLendingPoolManager {\n        LendingPoolCore core = LendingPoolCore(poolAddressesProvider.getLendingPoolCore());\n        core.disableReserveStableBorrowRate(_reserve);\n\n        emit StableRateDisabledOnReserve(_reserve);\n    }\n\n    /**\n    * @dev activates a reserve\n    * @param _reserve the address of the reserve\n    **/\n    function activateReserve(address _reserve) external onlyLendingPoolManager {\n        LendingPoolCore core = LendingPoolCore(poolAddressesProvider.getLendingPoolCore());\n        core.activateReserve(_reserve);\n\n        emit ReserveActivated(_reserve);\n    }\n\n    /**\n    * @dev deactivates a reserve\n    * @param _reserve the address of the reserve\n    **/\n    function deactivateReserve(address _reserve) external onlyLendingPoolManager {\n        LendingPoolCore core = LendingPoolCore(poolAddressesProvider.getLendingPoolCore());\n        require(core.getReserveTotalLiquidity(_reserve) == 0, \"The liquidity of the reserve needs to be 0\");\n        core.deactivateReserve(_reserve);\n\n        emit ReserveDeactivated(_reserve);\n    }\n\n    /**\n    * @dev freezes a reserve. A freezed reserve doesn't accept any new deposit, borrow or rate swap, but can accept repayments, liquidations, rate rebalances and redeems\n    * @param _reserve the address of the reserve\n    **/\n    function freezeReserve(address _reserve) external onlyLendingPoolManager {\n        LendingPoolCore core = LendingPoolCore(poolAddressesProvider.getLendingPoolCore());\n        core.freezeReserve(_reserve);\n\n        emit ReserveFreezed(_reserve);\n    }\n\n    /**\n    * @dev unfreezes a reserve\n    * @param _reserve the address of the reserve\n    **/\n    function unfreezeReserve(address _reserve) external onlyLendingPoolManager {\n        LendingPoolCore core = LendingPoolCore(poolAddressesProvider.getLendingPoolCore());\n        core.unfreezeReserve(_reserve);\n\n        emit ReserveUnfreezed(_reserve);\n    }\n\n    /**\n    * @dev emitted when a reserve loan to value is updated\n    * @param _reserve the address of the reserve\n    * @param _ltv the new value for the loan to value\n    **/\n    function setReserveBaseLTVasCollateral(address _reserve, uint256 _ltv)\n        external\n        onlyLendingPoolManager\n    {\n        LendingPoolCore core = LendingPoolCore(poolAddressesProvider.getLendingPoolCore());\n        core.setReserveBaseLTVasCollateral(_reserve, _ltv);\n        emit ReserveBaseLtvChanged(_reserve, _ltv);\n    }\n\n    /**\n    * @dev updates the liquidation threshold of a reserve.\n    * @param _reserve the address of the reserve\n    * @param _threshold the new value for the liquidation threshold\n    **/\n    function setReserveLiquidationThreshold(address _reserve, uint256 _threshold)\n        external\n        onlyLendingPoolManager\n    {\n        LendingPoolCore core = LendingPoolCore(poolAddressesProvider.getLendingPoolCore());\n        core.setReserveLiquidationThreshold(_reserve, _threshold);\n        emit ReserveLiquidationThresholdChanged(_reserve, _threshold);\n    }\n\n    /**\n    * @dev updates the liquidation bonus of a reserve\n    * @param _reserve the address of the reserve\n    * @param _bonus the new value for the liquidation bonus\n    **/\n    function setReserveLiquidationBonus(address _reserve, uint256 _bonus)\n        external\n        onlyLendingPoolManager\n    {\n        LendingPoolCore core = LendingPoolCore(poolAddressesProvider.getLendingPoolCore());\n        core.setReserveLiquidationBonus(_reserve, _bonus);\n        emit ReserveLiquidationBonusChanged(_reserve, _bonus);\n    }\n\n    /**\n    * @dev updates the reserve decimals\n    * @param _reserve the address of the reserve\n    * @param _decimals the new number of decimals\n    **/\n    function setReserveDecimals(address _reserve, uint256 _decimals)\n        external\n        onlyLendingPoolManager\n    {\n        LendingPoolCore core = LendingPoolCore(poolAddressesProvider.getLendingPoolCore());\n        core.setReserveDecimals(_reserve, _decimals);\n        emit ReserveDecimalsChanged(_reserve, _decimals);\n    }\n\n    /**\n    * @dev sets the interest rate strategy of a reserve\n    * @param _reserve the address of the reserve\n    * @param _rateStrategyAddress the new address of the interest strategy contract\n    **/\n    function setReserveInterestRateStrategyAddress(address _reserve, address _rateStrategyAddress)\n        external\n        onlyLendingPoolManager\n    {\n        LendingPoolCore core = LendingPoolCore(poolAddressesProvider.getLendingPoolCore());\n        core.setReserveInterestRateStrategyAddress(_reserve, _rateStrategyAddress);\n        emit ReserveInterestRateStrategyChanged(_reserve, _rateStrategyAddress);\n    }\n\n    /**\n    * @dev refreshes the lending pool core configuration to update the cached address\n    **/\n    function refreshLendingPoolCoreConfiguration() external onlyLendingPoolManager {\n        LendingPoolCore core = LendingPoolCore(poolAddressesProvider.getLendingPoolCore());\n        core.refreshConfiguration();\n    }\n}\n",
  "sourcePath": "/home/justin/freelancing/aave-protocol/contracts/lendingpool/LendingPoolConfigurator.sol",
  "compiler": {
    "name": "solc",
    "version": "0.5.16+commit.9c3226ce.Emscripten.clang"
  },
  "schemaVersion": "3.1.0",
  "updatedAt": "2020-07-07T15:31:40.698Z",
  "devdoc": {
    "author": "Aave",
    "methods": {
      "activateReserve(address)": {
        "details": "activates a reserve",
        "params": {
          "_reserve": "the address of the reserve*"
        }
      },
      "deactivateReserve(address)": {
        "details": "deactivates a reserve",
        "params": {
          "_reserve": "the address of the reserve*"
        }
      },
      "disableBorrowingOnReserve(address)": {
        "details": "disables borrowing on a reserve",
        "params": {
          "_reserve": "the address of the reserve*"
        }
      },
      "disableReserveAsCollateral(address)": {
        "details": "disables a reserve as collateral",
        "params": {
          "_reserve": "the address of the reserve*"
        }
      },
      "disableReserveStableBorrowRate(address)": {
        "details": "disable stable rate borrowing on a reserve",
        "params": {
          "_reserve": "the address of the reserve*"
        }
      },
      "enableBorrowingOnReserve(address,bool)": {
        "details": "enables borrowing on a reserve",
        "params": {
          "_reserve": "the address of the reserve",
          "_stableBorrowRateEnabled": "true if stable borrow rate needs to be enabled by default on this reserve*"
        }
      },
      "enableReserveAsCollateral(address,uint256,uint256,uint256)": {
        "details": "enables a reserve to be used as collateral",
        "params": {
          "_baseLTVasCollateral": "the loan to value of the asset when used as collateral",
          "_liquidationBonus": "the bonus liquidators receive to liquidate this asset*",
          "_liquidationThreshold": "the threshold at which loans using this asset as collateral will be considered undercollateralized",
          "_reserve": "the address of the reserve"
        }
      },
      "enableReserveStableBorrowRate(address)": {
        "details": "enable stable rate borrowing on a reserve",
        "params": {
          "_reserve": "the address of the reserve*"
        }
      },
      "freezeReserve(address)": {
        "details": "freezes a reserve. A freezed reserve doesn't accept any new deposit, borrow or rate swap, but can accept repayments, liquidations, rate rebalances and redeems",
        "params": {
          "_reserve": "the address of the reserve*"
        }
      },
      "initReserve(address,uint8,address)": {
        "details": "initializes a reserve",
        "params": {
          "_interestRateStrategyAddress": "the address of the interest rate strategy contract for this reserve*",
          "_reserve": "the address of the reserve to be initialized",
          "_underlyingAssetDecimals": "the decimals of the reserve underlying asset"
        }
      },
      "initReserveWithData(address,string,string,uint8,address)": {
        "details": "initializes a reserve using aTokenData provided externally (useful if the underlying ERC20 contract doesn't expose name or decimals)",
        "params": {
          "_aTokenName": "the name of the aToken contract",
          "_aTokenSymbol": "the symbol of the aToken contract",
          "_interestRateStrategyAddress": "the address of the interest rate strategy contract for this reserve*",
          "_reserve": "the address of the reserve to be initialized",
          "_underlyingAssetDecimals": "the decimals of the reserve underlying asset"
        }
      },
      "refreshLendingPoolCoreConfiguration()": {
        "details": "refreshes the lending pool core configuration to update the cached address*"
      },
      "removeLastAddedReserve(address)": {
        "details": "removes the last added reserve in the list of the reserves",
        "params": {
          "_reserveToRemove": "the address of the reserve*"
        }
      },
      "setReserveBaseLTVasCollateral(address,uint256)": {
        "details": "emitted when a reserve loan to value is updated",
        "params": {
          "_ltv": "the new value for the loan to value*",
          "_reserve": "the address of the reserve"
        }
      },
      "setReserveDecimals(address,uint256)": {
        "details": "updates the reserve decimals",
        "params": {
          "_decimals": "the new number of decimals*",
          "_reserve": "the address of the reserve"
        }
      },
      "setReserveInterestRateStrategyAddress(address,address)": {
        "details": "sets the interest rate strategy of a reserve",
        "params": {
          "_rateStrategyAddress": "the new address of the interest strategy contract*",
          "_reserve": "the address of the reserve"
        }
      },
      "setReserveLiquidationBonus(address,uint256)": {
        "details": "updates the liquidation bonus of a reserve",
        "params": {
          "_bonus": "the new value for the liquidation bonus*",
          "_reserve": "the address of the reserve"
        }
      },
      "setReserveLiquidationThreshold(address,uint256)": {
        "details": "updates the liquidation threshold of a reserve.",
        "params": {
          "_reserve": "the address of the reserve",
          "_threshold": "the new value for the liquidation threshold*"
        }
      },
      "unfreezeReserve(address)": {
        "details": "unfreezes a reserve",
        "params": {
          "_reserve": "the address of the reserve*"
        }
      }
    },
    "title": "LendingPoolConfigurator contract"
  },
  "userdoc": {
    "methods": {},
    "notice": "Executes configuration methods on the LendingPoolCore contract. Allows to enable/disable reserves, and set different protocol parameters.*"
  }
}