{
  "contractName": "MockAggregatorKNC",
  "abi": [
    {
      "inputs": [
        {
          "internalType": "int256",
          "name": "_initialAnswer",
          "type": "int256"
        }
      ],
      "payable": false,
      "stateMutability": "nonpayable",
      "type": "constructor"
    },
    {
      "anonymous": false,
      "inputs": [
        {
          "indexed": true,
          "internalType": "int256",
          "name": "current",
          "type": "int256"
        },
        {
          "indexed": true,
          "internalType": "uint256",
          "name": "roundId",
          "type": "uint256"
        },
        {
          "indexed": false,
          "internalType": "uint256",
          "name": "timestamp",
          "type": "uint256"
        }
      ],
      "name": "AnswerUpdated",
      "type": "event"
    },
    {
      "constant": true,
      "inputs": [],
      "name": "latestAnswer",
      "outputs": [
        {
          "internalType": "int256",
          "name": "",
          "type": "int256"
        }
      ],
      "payable": false,
      "stateMutability": "view",
      "type": "function"
    }
  ],
  "bytecode": "0x608060405234801561001057600080fd5b5060405161011d38038061011d8339818101604052602081101561003357600080fd5b810190808051906020019092919050505080806000819055506000817f0559884fd3a460db3073b7fc896cc77986f16e378210ded43186175bf646fc5f426040518082815260200191505060405180910390a350506087806100966000396000f3fe6080604052348015600f57600080fd5b506004361060285760003560e01c806350d25bcd14602d575b600080fd5b60336049565b6040518082815260200191505060405180910390f35b6000805490509056fea265627a7a7231582036a4c599a3e685d11606276e15c81ef89da90fd7e188d10ba3c73e75814bd9a164736f6c63430005100032",
  "source": "pragma solidity ^0.5.0;\n\nimport \"./MockAggregatorBase.sol\";\n\ncontract MockAggregatorKNC is MockAggregatorBase {\n    constructor (int256 _initialAnswer) public MockAggregatorBase(_initialAnswer) {}\n}",
  "sourcePath": "/home/justin/freelancing/aave-protocol/contracts/mocks/oracle/CLAggregators/MockAggregatorKNC.sol",
  "compiler": {
    "name": "solc",
    "version": "0.5.16+commit.9c3226ce.Emscripten.clang"
  },
  "schemaVersion": "3.1.0",
  "updatedAt": "2020-07-28T08:53:26.990Z",
  "devdoc": {
    "methods": {}
  },
  "userdoc": {
    "methods": {}
  }
}