{
  "contractName": "MockFlashLoanReceiver",
  "abi": [
    {
      "inputs": [
        {
          "internalType": "contract ILendingPoolAddressesProvider",
          "name": "_provider",
          "type": "address"
        }
      ],
      "payable": false,
      "stateMutability": "nonpayable",
      "type": "constructor"
    },
    {
      "anonymous": false,
      "inputs": [
        {
          "indexed": false,
          "internalType": "address",
          "name": "_reserve",
          "type": "address"
        },
        {
          "indexed": false,
          "internalType": "uint256",
          "name": "_amount",
          "type": "uint256"
        },
        {
          "indexed": false,
          "internalType": "uint256",
          "name": "_fee",
          "type": "uint256"
        }
      ],
      "name": "ExecutedWithFail",
      "type": "event"
    },
    {
      "anonymous": false,
      "inputs": [
        {
          "indexed": false,
          "internalType": "address",
          "name": "_reserve",
          "type": "address"
        },
        {
          "indexed": false,
          "internalType": "uint256",
          "name": "_amount",
          "type": "uint256"
        },
        {
          "indexed": false,
          "internalType": "uint256",
          "name": "_fee",
          "type": "uint256"
        }
      ],
      "name": "ExecutedWithSuccess",
      "type": "event"
    },
    {
      "payable": true,
      "stateMutability": "payable",
      "type": "fallback"
    },
    {
      "constant": true,
      "inputs": [],
      "name": "addressesProvider",
      "outputs": [
        {
          "internalType": "contract ILendingPoolAddressesProvider",
          "name": "",
          "type": "address"
        }
      ],
      "payable": false,
      "stateMutability": "view",
      "type": "function"
    },
    {
      "constant": false,
      "inputs": [
        {
          "internalType": "bool",
          "name": "_fail",
          "type": "bool"
        }
      ],
      "name": "setFailExecutionTransfer",
      "outputs": [],
      "payable": false,
      "stateMutability": "nonpayable",
      "type": "function"
    },
    {
      "constant": false,
      "inputs": [
        {
          "internalType": "address",
          "name": "_reserve",
          "type": "address"
        },
        {
          "internalType": "uint256",
          "name": "_amount",
          "type": "uint256"
        },
        {
          "internalType": "uint256",
          "name": "_fee",
          "type": "uint256"
        },
        {
          "internalType": "bytes",
          "name": "_params",
          "type": "bytes"
        }
      ],
      "name": "executeOperation",
      "outputs": [],
      "payable": false,
      "stateMutability": "nonpayable",
      "type": "function"
    }
  ],
  "bytecode": "0x608060405260008060146101000a81548160ff02191690831515021790555034801561002a57600080fd5b50604051610c3f380380610c3f8339818101604052602081101561004d57600080fd5b810190808051906020019092919050505080806000806101000a81548173ffffffffffffffffffffffffffffffffffffffff021916908373ffffffffffffffffffffffffffffffffffffffff1602179055505050610b8f806100b06000396000f3fe6080604052600436106100345760003560e01c8063388f70f114610036578063c72c4d1014610073578063ee872558146100ca575b005b34801561004257600080fd5b506100716004803603602081101561005957600080fd5b810190808035151590602001909291905050506101c6565b005b34801561007f57600080fd5b506100886101e3565b604051808273ffffffffffffffffffffffffffffffffffffffff1673ffffffffffffffffffffffffffffffffffffffff16815260200191505060405180910390f35b3480156100d657600080fd5b506101c4600480360360808110156100ed57600080fd5b81019080803573ffffffffffffffffffffffffffffffffffffffff16906020019092919080359060200190929190803590602001909291908035906020019064010000000081111561013e57600080fd5b82018360208201111561015057600080fd5b8035906020019184600183028401116401000000008311171561017257600080fd5b91908080601f016020809104026020016040519081016040528093929190818152602001838380828437600081840152601f19601f820116905080830192505050505050509192919290505050610208565b005b80600060146101000a81548160ff02191690831515021790555050565b6000809054906101000a900473ffffffffffffffffffffffffffffffffffffffff1681565b6000849050610217308661047b565b84111561028c576040517f08c379a00000000000000000000000000000000000000000000000000000000081526004018080602001828103825260208152602001807f496e76616c69642062616c616e636520666f722074686520636f6e747261637481525060200191505060405180910390fd5b600060149054906101000a900460ff161561031a577f816f6a6bc084e1996be1a831afa1af30763d0501b6b43b9e1922a11f347366d7858585604051808473ffffffffffffffffffffffffffffffffffffffff1673ffffffffffffffffffffffffffffffffffffffff168152602001838152602001828152602001935050505060405180910390a150610475565b610322610598565b73ffffffffffffffffffffffffffffffffffffffff168573ffffffffffffffffffffffffffffffffffffffff16146103e4578073ffffffffffffffffffffffffffffffffffffffff1663a0712d68846040518263ffffffff1660e01b815260040180828152602001915050602060405180830381600087803b1580156103a757600080fd5b505af11580156103bb573d6000803e3d6000fd5b505050506040513d60208110156103d157600080fd5b8101908080519060200190929190505050505b610400856103fb85876105b490919063ffffffff16565b61063c565b7f7d94e9d0c906b8d7b2b52a581b9e9ba728aa6f8cd8532bd87243d193f47401be858585604051808473ffffffffffffffffffffffffffffffffffffffff1673ffffffffffffffffffffffffffffffffffffffff168152602001838152602001828152602001935050505060405180910390a1505b50505050565b6000610485610598565b73ffffffffffffffffffffffffffffffffffffffff168273ffffffffffffffffffffffffffffffffffffffff1614156104d7578273ffffffffffffffffffffffffffffffffffffffff16319050610592565b8173ffffffffffffffffffffffffffffffffffffffff166370a08231846040518263ffffffff1660e01b8152600401808273ffffffffffffffffffffffffffffffffffffffff1673ffffffffffffffffffffffffffffffffffffffff16815260200191505060206040518083038186803b15801561055457600080fd5b505afa158015610568573d6000803e3d6000fd5b505050506040513d602081101561057e57600080fd5b810190808051906020019092919050505090505b92915050565b600073eeeeeeeeeeeeeeeeeeeeeeeeeeeeeeeeeeeeeeee905090565b600080828401905083811015610632576040517f08c379a000000000000000000000000000000000000000000000000000000000815260040180806020018281038252601b8152602001807f536166654d6174683a206164646974696f6e206f766572666c6f77000000000081525060200191505060405180910390fd5b8091505092915050565b60008060009054906101000a900473ffffffffffffffffffffffffffffffffffffffff1673ffffffffffffffffffffffffffffffffffffffff1663ed6ff7606040518163ffffffff1660e01b815260040160206040518083038186803b1580156106a557600080fd5b505afa1580156106b9573d6000803e3d6000fd5b505050506040513d60208110156106cf57600080fd5b810190808051906020019092919050505090506106ed8184846106f2565b505050565b6106fa610598565b73ffffffffffffffffffffffffffffffffffffffff168273ffffffffffffffffffffffffffffffffffffffff161415610798578273ffffffffffffffffffffffffffffffffffffffff168160405180600001905060006040518083038185875af1925050503d806000811461078b576040519150601f19603f3d011682016040523d82523d6000602084013e610790565b606091505b5050506107c4565b6107c383828473ffffffffffffffffffffffffffffffffffffffff166107c99092919063ffffffff16565b5b505050565b610895838473ffffffffffffffffffffffffffffffffffffffff1663a9059cbb905060e01b8484604051602401808373ffffffffffffffffffffffffffffffffffffffff1673ffffffffffffffffffffffffffffffffffffffff16815260200182815260200192505050604051602081830303815290604052907bffffffffffffffffffffffffffffffffffffffffffffffffffffffff19166020820180517bffffffffffffffffffffffffffffffffffffffffffffffffffffffff838183161783525050505061089a565b505050565b6108b98273ffffffffffffffffffffffffffffffffffffffff16610ae5565b61092b576040517f08c379a000000000000000000000000000000000000000000000000000000000815260040180806020018281038252601f8152602001807f5361666545524332303a2063616c6c20746f206e6f6e2d636f6e74726163740081525060200191505060405180910390fd5b600060608373ffffffffffffffffffffffffffffffffffffffff16836040518082805190602001908083835b6020831061097a5780518252602082019150602081019050602083039250610957565b6001836020036101000a0380198251168184511680821785525050505050509050019150506000604051808303816000865af19150503d80600081146109dc576040519150601f19603f3d011682016040523d82523d6000602084013e6109e1565b606091505b509150915081610a59576040517f08c379a00000000000000000000000000000000000000000000000000000000081526004018080602001828103825260208152602001807f5361666545524332303a206c6f772d6c6576656c2063616c6c206661696c656481525060200191505060405180910390fd5b600081511115610adf57808060200190516020811015610a7857600080fd5b8101908080519060200190929190505050610ade576040517f08c379a000000000000000000000000000000000000000000000000000000000815260040180806020018281038252602a815260200180610b31602a913960400191505060405180910390fd5b5b50505050565b60008060007fc5d2460186f7233c927e7db2dcc703c0e500b653ca82273b7bfad8045d85a47060001b9050833f9150808214158015610b2757506000801b8214155b9250505091905056fe5361666545524332303a204552433230206f7065726174696f6e20646964206e6f742073756363656564a265627a7a723158205094cd74e46cf36f5d4551da5a1acc85d466edc96d49244b21c78fbbfa9f0df564736f6c63430005100032",
  "source": "pragma solidity ^0.5.0;\n\nimport \"openzeppelin-solidity/contracts/math/SafeMath.sol\";\n\nimport \"../../flashloan/base/FlashLoanReceiverBase.sol\";\nimport \"../tokens/MintableERC20.sol\";\n\ncontract MockFlashLoanReceiver is FlashLoanReceiverBase {\n\n    using SafeMath for uint256;\n    event ExecutedWithFail(address _reserve, uint256 _amount, uint256 _fee);\n    event ExecutedWithSuccess(address _reserve, uint256 _amount, uint256 _fee);\n\n\n    bool failExecution = false;\n\n    constructor(ILendingPoolAddressesProvider _provider) FlashLoanReceiverBase(_provider)  public {\n    }\n\n    function setFailExecutionTransfer(bool _fail) public {\n        failExecution = _fail;\n    }\n\n    function executeOperation(\n        address _reserve,\n        uint256 _amount,\n        uint256 _fee,\n        bytes memory _params) public {\n        //mint to this contract the specific amount\n        MintableERC20 token = MintableERC20(_reserve);\n\n\n        //check the contract has the specified balance\n        require(_amount <= getBalanceInternal(address(this), _reserve), \"Invalid balance for the contract\");\n\n        if(failExecution) {\n            emit ExecutedWithFail(_reserve, _amount, _fee);\n            return;\n        }\n\n        //execution does not fail - mint tokens and return them to the _destination\n        //note: if the reserve is eth, the mock contract must receive at least _fee ETH before calling executeOperation\n\n        if(_reserve != EthAddressLib.ethAddress()) {\n            token.mint(_fee);\n        }\n        //returning amount + fee to the destination\n        transferFundsBackToPoolInternal(_reserve, _amount.add(_fee));\n        emit ExecutedWithSuccess(_reserve, _amount, _fee);\n    }\n}",
  "sourcePath": "/home/justin/freelancing/aave-protocol/contracts/mocks/flashloan/MockFlashLoanReceiver.sol",
  "compiler": {
    "name": "solc",
    "version": "0.5.16+commit.9c3226ce.Emscripten.clang"
  },
  "schemaVersion": "3.1.0",
  "updatedAt": "2020-07-28T08:53:26.989Z",
  "devdoc": {
    "methods": {}
  },
  "userdoc": {
    "methods": {}
  }
}